{
	"contracts/KipuBankV3.sol": {
		"KipuBankV3": {
			"abi": [
				{
					"inputs": [
						{
							"internalType": "uint128",
							"name": "_banckCap",
							"type": "uint128"
						},
						{
							"internalType": "address",
							"name": "_feed",
							"type": "address"
						}
					],
					"stateMutability": "nonpayable",
					"type": "constructor"
				},
				{
					"inputs": [
						{
							"internalType": "address",
							"name": "to",
							"type": "address"
						},
						{
							"internalType": "uint256",
							"name": "amount",
							"type": "uint256"
						}
					],
					"name": "DepositNotAllowed",
					"type": "error"
				},
				{
					"inputs": [
						{
							"internalType": "address",
							"name": "to",
							"type": "address"
						},
						{
							"internalType": "address",
							"name": "tokenAddress",
							"type": "address"
						},
						{
							"internalType": "uint256",
							"name": "amount",
							"type": "uint256"
						}
					],
					"name": "ERC20DepositNotAllowed",
					"type": "error"
				},
				{
					"inputs": [
						{
							"internalType": "address",
							"name": "to",
							"type": "address"
						},
						{
							"internalType": "address",
							"name": "tokenAddress",
							"type": "address"
						},
						{
							"internalType": "uint256",
							"name": "amount",
							"type": "uint256"
						}
					],
					"name": "ERC20ExtractionNotAllowed",
					"type": "error"
				},
				{
					"inputs": [
						{
							"internalType": "address",
							"name": "to",
							"type": "address"
						},
						{
							"internalType": "uint256",
							"name": "amount",
							"type": "uint256"
						}
					],
					"name": "ExtractionNotAllowed",
					"type": "error"
				},
				{
					"inputs": [
						{
							"internalType": "address",
							"name": "to",
							"type": "address"
						},
						{
							"internalType": "uint256",
							"name": "amount",
							"type": "uint256"
						},
						{
							"internalType": "bytes",
							"name": "errorData",
							"type": "bytes"
						}
					],
					"name": "ExtractionReverted",
					"type": "error"
				},
				{
					"inputs": [],
					"name": "OracleCompromised",
					"type": "error"
				},
				{
					"inputs": [
						{
							"internalType": "address",
							"name": "owner",
							"type": "address"
						}
					],
					"name": "OwnableInvalidOwner",
					"type": "error"
				},
				{
					"inputs": [
						{
							"internalType": "address",
							"name": "account",
							"type": "address"
						}
					],
					"name": "OwnableUnauthorizedAccount",
					"type": "error"
				},
				{
					"inputs": [
						{
							"internalType": "address",
							"name": "token",
							"type": "address"
						}
					],
					"name": "SafeERC20FailedOperation",
					"type": "error"
				},
				{
					"inputs": [],
					"name": "StalePrice",
					"type": "error"
				},
				{
					"anonymous": false,
					"inputs": [
						{
							"indexed": false,
							"internalType": "contract AggregatorV3Interface",
							"name": "oldFeed",
							"type": "address"
						},
						{
							"indexed": false,
							"internalType": "contract AggregatorV3Interface",
							"name": "newFeed",
							"type": "address"
						}
					],
					"name": "ChainlinkFeedUpdated",
					"type": "event"
				},
				{
					"anonymous": false,
					"inputs": [
						{
							"indexed": false,
							"internalType": "address",
							"name": "from",
							"type": "address"
						},
						{
							"indexed": false,
							"internalType": "uint256",
							"name": "amount",
							"type": "uint256"
						}
					],
					"name": "Deposited",
					"type": "event"
				},
				{
					"anonymous": false,
					"inputs": [
						{
							"indexed": false,
							"internalType": "address",
							"name": "from",
							"type": "address"
						},
						{
							"indexed": false,
							"internalType": "address",
							"name": "tokenAddress",
							"type": "address"
						},
						{
							"indexed": false,
							"internalType": "uint256",
							"name": "amount",
							"type": "uint256"
						}
					],
					"name": "ERC20Deposited",
					"type": "event"
				},
				{
					"anonymous": false,
					"inputs": [
						{
							"indexed": false,
							"internalType": "address",
							"name": "to",
							"type": "address"
						},
						{
							"indexed": false,
							"internalType": "address",
							"name": "tokenAddress",
							"type": "address"
						},
						{
							"indexed": false,
							"internalType": "uint256",
							"name": "amount",
							"type": "uint256"
						}
					],
					"name": "ERC20Extracted",
					"type": "event"
				},
				{
					"anonymous": false,
					"inputs": [
						{
							"indexed": false,
							"internalType": "address",
							"name": "to",
							"type": "address"
						},
						{
							"indexed": false,
							"internalType": "uint256",
							"name": "amount",
							"type": "uint256"
						}
					],
					"name": "Extracted",
					"type": "event"
				},
				{
					"anonymous": false,
					"inputs": [
						{
							"indexed": true,
							"internalType": "address",
							"name": "previousOwner",
							"type": "address"
						},
						{
							"indexed": true,
							"internalType": "address",
							"name": "newOwner",
							"type": "address"
						}
					],
					"name": "OwnershipTransferred",
					"type": "event"
				},
				{
					"inputs": [
						{
							"internalType": "address",
							"name": "_tokenAddress",
							"type": "address"
						},
						{
							"internalType": "uint256",
							"name": "_amount",
							"type": "uint256"
						}
					],
					"name": "depositERC20",
					"outputs": [],
					"stateMutability": "nonpayable",
					"type": "function"
				},
				{
					"inputs": [],
					"name": "depositEth",
					"outputs": [],
					"stateMutability": "payable",
					"type": "function"
				},
				{
					"inputs": [],
					"name": "getBalance",
					"outputs": [
						{
							"internalType": "uint256",
							"name": "balance_",
							"type": "uint256"
						}
					],
					"stateMutability": "view",
					"type": "function"
				},
				{
					"inputs": [
						{
							"internalType": "address",
							"name": "user_",
							"type": "address"
						}
					],
					"name": "getBalance",
					"outputs": [
						{
							"internalType": "uint256",
							"name": "balance_",
							"type": "uint256"
						}
					],
					"stateMutability": "view",
					"type": "function"
				},
				{
					"inputs": [
						{
							"internalType": "address",
							"name": "user_",
							"type": "address"
						}
					],
					"name": "getBalanceInUSD",
					"outputs": [
						{
							"internalType": "uint256",
							"name": "balance_",
							"type": "uint256"
						}
					],
					"stateMutability": "view",
					"type": "function"
				},
				{
					"inputs": [],
					"name": "getBalanceInUSD",
					"outputs": [
						{
							"internalType": "uint256",
							"name": "balance_",
							"type": "uint256"
						}
					],
					"stateMutability": "view",
					"type": "function"
				},
				{
					"inputs": [],
					"name": "getDeposits",
					"outputs": [
						{
							"internalType": "uint256",
							"name": "deposits_",
							"type": "uint256"
						}
					],
					"stateMutability": "view",
					"type": "function"
				},
				{
					"inputs": [
						{
							"internalType": "address",
							"name": "user_",
							"type": "address"
						}
					],
					"name": "getDeposits",
					"outputs": [
						{
							"internalType": "uint256",
							"name": "deposits_",
							"type": "uint256"
						}
					],
					"stateMutability": "view",
					"type": "function"
				},
				{
					"inputs": [
						{
							"internalType": "address",
							"name": "_tokenAddress",
							"type": "address"
						}
					],
					"name": "getERC20Balance",
					"outputs": [
						{
							"internalType": "uint256",
							"name": "balance_",
							"type": "uint256"
						}
					],
					"stateMutability": "view",
					"type": "function"
				},
				{
					"inputs": [
						{
							"internalType": "address",
							"name": "user_",
							"type": "address"
						},
						{
							"internalType": "address",
							"name": "_tokenAddress",
							"type": "address"
						}
					],
					"name": "getERC20Balance",
					"outputs": [
						{
							"internalType": "uint256",
							"name": "balance_",
							"type": "uint256"
						}
					],
					"stateMutability": "view",
					"type": "function"
				},
				{
					"inputs": [
						{
							"internalType": "address",
							"name": "user_",
							"type": "address"
						},
						{
							"internalType": "address",
							"name": "_tokenAddress",
							"type": "address"
						}
					],
					"name": "getERC20Deposits",
					"outputs": [
						{
							"internalType": "uint256",
							"name": "deposits_",
							"type": "uint256"
						}
					],
					"stateMutability": "view",
					"type": "function"
				},
				{
					"inputs": [
						{
							"internalType": "address",
							"name": "_tokenAddress",
							"type": "address"
						}
					],
					"name": "getERC20Deposits",
					"outputs": [
						{
							"internalType": "uint256",
							"name": "deposits_",
							"type": "uint256"
						}
					],
					"stateMutability": "view",
					"type": "function"
				},
				{
					"inputs": [
						{
							"internalType": "address",
							"name": "user_",
							"type": "address"
						},
						{
							"internalType": "address",
							"name": "_tokenAddress",
							"type": "address"
						}
					],
					"name": "getERC20Withdrawals",
					"outputs": [
						{
							"internalType": "uint256",
							"name": "withdrawals_",
							"type": "uint256"
						}
					],
					"stateMutability": "view",
					"type": "function"
				},
				{
					"inputs": [
						{
							"internalType": "address",
							"name": "_tokenAddress",
							"type": "address"
						}
					],
					"name": "getERC20Withdrawals",
					"outputs": [
						{
							"internalType": "uint256",
							"name": "withdrawals_",
							"type": "uint256"
						}
					],
					"stateMutability": "view",
					"type": "function"
				},
				{
					"inputs": [
						{
							"internalType": "address",
							"name": "user_",
							"type": "address"
						}
					],
					"name": "getWithdrawals",
					"outputs": [
						{
							"internalType": "uint256",
							"name": "withdrawals_",
							"type": "uint256"
						}
					],
					"stateMutability": "view",
					"type": "function"
				},
				{
					"inputs": [],
					"name": "getWithdrawals",
					"outputs": [
						{
							"internalType": "uint256",
							"name": "withdrawals_",
							"type": "uint256"
						}
					],
					"stateMutability": "view",
					"type": "function"
				},
				{
					"inputs": [],
					"name": "owner",
					"outputs": [
						{
							"internalType": "address",
							"name": "",
							"type": "address"
						}
					],
					"stateMutability": "view",
					"type": "function"
				},
				{
					"inputs": [],
					"name": "renounceOwnership",
					"outputs": [],
					"stateMutability": "nonpayable",
					"type": "function"
				},
				{
					"inputs": [],
					"name": "s_bankCap",
					"outputs": [
						{
							"internalType": "uint128",
							"name": "",
							"type": "uint128"
						}
					],
					"stateMutability": "view",
					"type": "function"
				},
				{
					"inputs": [],
					"name": "s_feeds",
					"outputs": [
						{
							"internalType": "contract AggregatorV3Interface",
							"name": "",
							"type": "address"
						}
					],
					"stateMutability": "view",
					"type": "function"
				},
				{
					"inputs": [],
					"name": "s_withdrawLimit",
					"outputs": [
						{
							"internalType": "uint128",
							"name": "",
							"type": "uint128"
						}
					],
					"stateMutability": "view",
					"type": "function"
				},
				{
					"inputs": [
						{
							"internalType": "address",
							"name": "_feed",
							"type": "address"
						}
					],
					"name": "setFeeds",
					"outputs": [],
					"stateMutability": "nonpayable",
					"type": "function"
				},
				{
					"inputs": [
						{
							"internalType": "address",
							"name": "newOwner",
							"type": "address"
						}
					],
					"name": "transferOwnership",
					"outputs": [],
					"stateMutability": "nonpayable",
					"type": "function"
				},
				{
					"inputs": [
						{
							"internalType": "address",
							"name": "_tokenAddress",
							"type": "address"
						},
						{
							"internalType": "uint256",
							"name": "_amount",
							"type": "uint256"
						}
					],
					"name": "withdrawERC20",
					"outputs": [],
					"stateMutability": "nonpayable",
					"type": "function"
				},
				{
					"inputs": [
						{
							"internalType": "uint256",
							"name": "_amount",
							"type": "uint256"
						}
					],
					"name": "withdrawEth",
					"outputs": [],
					"stateMutability": "nonpayable",
					"type": "function"
				},
				{
					"stateMutability": "payable",
					"type": "receive"
				}
			],
			"devdoc": {
				"author": "Erik Borgnia",
				"errors": {
					"OwnableInvalidOwner(address)": [
						{
							"details": "The owner is not a valid owner account. (eg. `address(0)`)"
						}
					],
					"OwnableUnauthorizedAccount(address)": [
						{
							"details": "The caller account is not authorized to perform an operation."
						}
					],
					"SafeERC20FailedOperation(address)": [
						{
							"details": "An operation with an ERC-20 token failed."
						}
					]
				},
				"kind": "dev",
				"methods": {
					"depositERC20(address,uint256)": {
						"params": {
							"_amount": "La cantidad a depositar de USDC",
							"_tokenAddress": "La dirección del contrato del token a depositar"
						}
					},
					"getBalance(address)": {
						"details": "Esta función garantiza que toda la información es auditable",
						"params": {
							"user_": "Usuario que se quiere auditar"
						}
					},
					"getBalanceInUSD(address)": {
						"details": "Esta función garantiza que toda la información es auditable",
						"params": {
							"user_": "Usuario que se quiere auditar"
						}
					},
					"getDeposits(address)": {
						"details": "Esta función garantiza que toda la información es auditable",
						"params": {
							"user_": "Usuario que se quiere auditar"
						}
					},
					"getERC20Balance(address)": {
						"params": {
							"_tokenAddress": "La dirección del contrato del token a consultar"
						}
					},
					"getERC20Balance(address,address)": {
						"details": "Esta función garantiza que toda la información es auditable",
						"params": {
							"_tokenAddress": "La dirección del contrato del token a consultar",
							"user_": "Usuario que se quiere auditar"
						}
					},
					"getERC20Deposits(address)": {
						"params": {
							"_tokenAddress": "La dirección del contrato del token a consultar"
						}
					},
					"getERC20Deposits(address,address)": {
						"details": "Esta función garantiza que toda la información es auditable",
						"params": {
							"_tokenAddress": "La dirección del contrato del token a consultar",
							"user_": "Usuario que se quiere auditar"
						}
					},
					"getERC20Withdrawals(address)": {
						"params": {
							"_tokenAddress": "La dirección del contrato del token a consultar"
						}
					},
					"getERC20Withdrawals(address,address)": {
						"details": "Esta función garantiza que toda la información es auditable",
						"params": {
							"_tokenAddress": "La dirección del contrato del token a consultar",
							"user_": "Usuario que se quiere auditar"
						}
					},
					"getWithdrawals(address)": {
						"details": "Esta función garantiza que toda la información es auditable",
						"params": {
							"user_": "Usuario que se quiere auditar"
						}
					},
					"owner()": {
						"details": "Returns the address of the current owner."
					},
					"renounceOwnership()": {
						"details": "Leaves the contract without owner. It will not be possible to call `onlyOwner` functions. Can only be called by the current owner. NOTE: Renouncing ownership will leave the contract without an owner, thereby disabling any functionality that is only available to the owner."
					},
					"setFeeds(address)": {
						"details": "Sólo puede ser llamada por el propietario",
						"params": {
							"_feed": "La nueva dirección del Price Feed"
						}
					},
					"transferOwnership(address)": {
						"details": "Transfers ownership of the contract to a new account (`newOwner`). Can only be called by the current owner."
					},
					"withdrawERC20(address,uint256)": {
						"details": "Sólo se puede depositar un valor mayor a 0, siempre que no se supere el bankCap",
						"params": {
							"_amount": "Cantidad que se quiere extraer. Debe ser <= al balance y al límite de extracción",
							"_tokenAddress": "La dirección del contrato del token a extraer"
						}
					},
					"withdrawEth(uint256)": {
						"details": "Sólo se puede depositar un valor mayor a 0, siempre que no se supere el bankCap",
						"params": {
							"_amount": "Cantidad que se quiere extraer. Debe ser <= al balance y al límite de extracción"
						}
					}
				},
				"title": "KipuBank V3",
				"version": 1
			},
			"evm": {
				"assembly": "    /* \"contracts/KipuBankV3.sol\":919:15589  contract KipuBankV3 is Ownable{... */\n  mstore(0x40, 0xc0)\n    /* \"contracts/KipuBankV3.sol\":2427:2433  10**18 */\n  0x0de0b6b3a7640000\n    /* \"contracts/KipuBankV3.sol\":2384:2433  uint128 public immutable s_withdrawLimit = 10**18 */\n  0xffffffffffffffffffffffffffffffff\n  and\n  0xa0\n  swap1\n  0xffffffffffffffffffffffffffffffff\n  and\n  dup2\n  mstore\n  pop\n    /* \"contracts/KipuBankV3.sol\":4607:4762  constructor(uint128 _banckCap, address _feed) Ownable(msg.sender) {... */\n  callvalue\n  dup1\n  iszero\n  tag_1\n  jumpi\n  revert(0x00, 0x00)\ntag_1:\n  pop\n  mload(0x40)\n  sub(codesize, bytecodeSize)\n  dup1\n  bytecodeSize\n  dup4\n  codecopy\n  dup2\n  dup2\n  add\n  0x40\n  mstore\n  dup2\n  add\n  swap1\n  tag_2\n  swap2\n  swap1\n  tag_3\n  jump\t// in\ntag_2:\n    /* \"contracts/KipuBankV3.sol\":4661:4671  msg.sender */\n  caller\n    /* \"@openzeppelin/contracts/access/Ownable.sol\":1297:1298  0 */\n  0x00\n    /* \"@openzeppelin/contracts/access/Ownable.sol\":1273:1299  initialOwner == address(0) */\n  0xffffffffffffffffffffffffffffffffffffffff\n  and\n    /* \"@openzeppelin/contracts/access/Ownable.sol\":1273:1285  initialOwner */\n  dup2\n    /* \"@openzeppelin/contracts/access/Ownable.sol\":1273:1299  initialOwner == address(0) */\n  0xffffffffffffffffffffffffffffffffffffffff\n  and\n  sub\n    /* \"@openzeppelin/contracts/access/Ownable.sol\":1269:1364  if (initialOwner == address(0)) {... */\n  tag_7\n  jumpi\n    /* \"@openzeppelin/contracts/access/Ownable.sol\":1350:1351  0 */\n  0x00\n    /* \"@openzeppelin/contracts/access/Ownable.sol\":1322:1353  OwnableInvalidOwner(address(0)) */\n  mload(0x40)\n  0x1e4fbdf700000000000000000000000000000000000000000000000000000000\n  dup2\n  mstore\n  0x04\n  add\n  tag_8\n  swap2\n  swap1\n  tag_9\n  jump\t// in\ntag_8:\n  mload(0x40)\n  dup1\n  swap2\n  sub\n  swap1\n  revert\n    /* \"@openzeppelin/contracts/access/Ownable.sol\":1269:1364  if (initialOwner == address(0)) {... */\ntag_7:\n    /* \"@openzeppelin/contracts/access/Ownable.sol\":1373:1405  _transferOwnership(initialOwner) */\n  tag_10\n    /* \"@openzeppelin/contracts/access/Ownable.sol\":1392:1404  initialOwner */\n  dup2\n    /* \"@openzeppelin/contracts/access/Ownable.sol\":1373:1391  _transferOwnership */\n  shl(0x20, tag_11)\n    /* \"@openzeppelin/contracts/access/Ownable.sol\":1373:1405  _transferOwnership(initialOwner) */\n  0x20\n  shr\n  jump\t// in\ntag_10:\n    /* \"@openzeppelin/contracts/access/Ownable.sol\":1225:1412  constructor(address initialOwner) {... */\n  pop\n    /* \"contracts/KipuBankV3.sol\":4696:4705  _banckCap */\n  dup2\n    /* \"contracts/KipuBankV3.sol\":4684:4705  s_bankCap = _banckCap */\n  0xffffffffffffffffffffffffffffffff\n  and\n  0x80\n  dup2\n  0xffffffffffffffffffffffffffffffff\n  and\n  dup2\n  mstore\n  pop\n  pop\n    /* \"contracts/KipuBankV3.sol\":4748:4753  _feed */\n  dup1\n    /* \"contracts/KipuBankV3.sol\":4716:4723  s_feeds */\n  0x01\n  0x00\n    /* \"contracts/KipuBankV3.sol\":4716:4754  s_feeds = AggregatorV3Interface(_feed) */\n  0x0100\n  exp\n  dup2\n  sload\n  dup2\n  0xffffffffffffffffffffffffffffffffffffffff\n  mul\n  not\n  and\n  swap1\n  dup4\n  0xffffffffffffffffffffffffffffffffffffffff\n  and\n  mul\n  or\n  swap1\n  sstore\n  pop\n    /* \"contracts/KipuBankV3.sol\":4607:4762  constructor(uint128 _banckCap, address _feed) Ownable(msg.sender) {... */\n  pop\n  pop\n    /* \"contracts/KipuBankV3.sol\":919:15589  contract KipuBankV3 is Ownable{... */\n  jump(tag_13)\n    /* \"@openzeppelin/contracts/access/Ownable.sol\":2912:3099  function _transferOwnership(address newOwner) internal virtual {... */\ntag_11:\n    /* \"@openzeppelin/contracts/access/Ownable.sol\":2985:3001  address oldOwner */\n  0x00\n    /* \"@openzeppelin/contracts/access/Ownable.sol\":3004:3010  _owner */\n  0x00\n  0x00\n  swap1\n  sload\n  swap1\n  0x0100\n  exp\n  swap1\n  div\n  0xffffffffffffffffffffffffffffffffffffffff\n  and\n    /* \"@openzeppelin/contracts/access/Ownable.sol\":2985:3010  address oldOwner = _owner */\n  swap1\n  pop\n    /* \"@openzeppelin/contracts/access/Ownable.sol\":3029:3037  newOwner */\n  dup2\n    /* \"@openzeppelin/contracts/access/Ownable.sol\":3020:3026  _owner */\n  0x00\n  0x00\n    /* \"@openzeppelin/contracts/access/Ownable.sol\":3020:3037  _owner = newOwner */\n  0x0100\n  exp\n  dup2\n  sload\n  dup2\n  0xffffffffffffffffffffffffffffffffffffffff\n  mul\n  not\n  and\n  swap1\n  dup4\n  0xffffffffffffffffffffffffffffffffffffffff\n  and\n  mul\n  or\n  swap1\n  sstore\n  pop\n    /* \"@openzeppelin/contracts/access/Ownable.sol\":3083:3091  newOwner */\n  dup2\n    /* \"@openzeppelin/contracts/access/Ownable.sol\":3052:3092  OwnershipTransferred(oldOwner, newOwner) */\n  0xffffffffffffffffffffffffffffffffffffffff\n  and\n    /* \"@openzeppelin/contracts/access/Ownable.sol\":3073:3081  oldOwner */\n  dup2\n    /* \"@openzeppelin/contracts/access/Ownable.sol\":3052:3092  OwnershipTransferred(oldOwner, newOwner) */\n  0xffffffffffffffffffffffffffffffffffffffff\n  and\n  0x8be0079c531659141344cd1fd0a4f28419497f9722a3daafe3b4186f6b6457e0\n  mload(0x40)\n  mload(0x40)\n  dup1\n  swap2\n  sub\n  swap1\n  log3\n    /* \"@openzeppelin/contracts/access/Ownable.sol\":2975:3099  {... */\n  pop\n    /* \"@openzeppelin/contracts/access/Ownable.sol\":2912:3099  function _transferOwnership(address newOwner) internal virtual {... */\n  pop\n  jump\t// out\n    /* \"#utility.yul\":88:205   */\ntag_16:\n    /* \"#utility.yul\":197:198   */\n  0x00\n    /* \"#utility.yul\":194:195   */\n  0x00\n    /* \"#utility.yul\":187:199   */\n  revert\n    /* \"#utility.yul\":334:452   */\ntag_18:\n    /* \"#utility.yul\":371:378   */\n  0x00\n    /* \"#utility.yul\":411:445   */\n  0xffffffffffffffffffffffffffffffff\n    /* \"#utility.yul\":404:409   */\n  dup3\n    /* \"#utility.yul\":400:446   */\n  and\n    /* \"#utility.yul\":389:446   */\n  swap1\n  pop\n    /* \"#utility.yul\":334:452   */\n  swap2\n  swap1\n  pop\n  jump\t// out\n    /* \"#utility.yul\":458:580   */\ntag_19:\n    /* \"#utility.yul\":531:555   */\n  tag_32\n    /* \"#utility.yul\":549:554   */\n  dup2\n    /* \"#utility.yul\":531:555   */\n  tag_18\n  jump\t// in\ntag_32:\n    /* \"#utility.yul\":524:529   */\n  dup2\n    /* \"#utility.yul\":521:556   */\n  eq\n    /* \"#utility.yul\":511:574   */\n  tag_33\n  jumpi\n    /* \"#utility.yul\":570:571   */\n  0x00\n    /* \"#utility.yul\":567:568   */\n  0x00\n    /* \"#utility.yul\":560:572   */\n  revert\n    /* \"#utility.yul\":511:574   */\ntag_33:\n    /* \"#utility.yul\":458:580   */\n  pop\n  jump\t// out\n    /* \"#utility.yul\":586:729   */\ntag_20:\n    /* \"#utility.yul\":643:648   */\n  0x00\n    /* \"#utility.yul\":674:680   */\n  dup2\n    /* \"#utility.yul\":668:681   */\n  mload\n    /* \"#utility.yul\":659:681   */\n  swap1\n  pop\n    /* \"#utility.yul\":690:723   */\n  tag_35\n    /* \"#utility.yul\":717:722   */\n  dup2\n    /* \"#utility.yul\":690:723   */\n  tag_19\n  jump\t// in\ntag_35:\n    /* \"#utility.yul\":586:729   */\n  swap3\n  swap2\n  pop\n  pop\n  jump\t// out\n    /* \"#utility.yul\":735:861   */\ntag_21:\n    /* \"#utility.yul\":772:779   */\n  0x00\n    /* \"#utility.yul\":812:854   */\n  0xffffffffffffffffffffffffffffffffffffffff\n    /* \"#utility.yul\":805:810   */\n  dup3\n    /* \"#utility.yul\":801:855   */\n  and\n    /* \"#utility.yul\":790:855   */\n  swap1\n  pop\n    /* \"#utility.yul\":735:861   */\n  swap2\n  swap1\n  pop\n  jump\t// out\n    /* \"#utility.yul\":867:963   */\ntag_22:\n    /* \"#utility.yul\":904:911   */\n  0x00\n    /* \"#utility.yul\":933:957   */\n  tag_38\n    /* \"#utility.yul\":951:956   */\n  dup3\n    /* \"#utility.yul\":933:957   */\n  tag_21\n  jump\t// in\ntag_38:\n    /* \"#utility.yul\":922:957   */\n  swap1\n  pop\n    /* \"#utility.yul\":867:963   */\n  swap2\n  swap1\n  pop\n  jump\t// out\n    /* \"#utility.yul\":969:1091   */\ntag_23:\n    /* \"#utility.yul\":1042:1066   */\n  tag_40\n    /* \"#utility.yul\":1060:1065   */\n  dup2\n    /* \"#utility.yul\":1042:1066   */\n  tag_22\n  jump\t// in\ntag_40:\n    /* \"#utility.yul\":1035:1040   */\n  dup2\n    /* \"#utility.yul\":1032:1067   */\n  eq\n    /* \"#utility.yul\":1022:1085   */\n  tag_41\n  jumpi\n    /* \"#utility.yul\":1081:1082   */\n  0x00\n    /* \"#utility.yul\":1078:1079   */\n  0x00\n    /* \"#utility.yul\":1071:1083   */\n  revert\n    /* \"#utility.yul\":1022:1085   */\ntag_41:\n    /* \"#utility.yul\":969:1091   */\n  pop\n  jump\t// out\n    /* \"#utility.yul\":1097:1240   */\ntag_24:\n    /* \"#utility.yul\":1154:1159   */\n  0x00\n    /* \"#utility.yul\":1185:1191   */\n  dup2\n    /* \"#utility.yul\":1179:1192   */\n  mload\n    /* \"#utility.yul\":1170:1192   */\n  swap1\n  pop\n    /* \"#utility.yul\":1201:1234   */\n  tag_43\n    /* \"#utility.yul\":1228:1233   */\n  dup2\n    /* \"#utility.yul\":1201:1234   */\n  tag_23\n  jump\t// in\ntag_43:\n    /* \"#utility.yul\":1097:1240   */\n  swap3\n  swap2\n  pop\n  pop\n  jump\t// out\n    /* \"#utility.yul\":1246:1753   */\ntag_3:\n    /* \"#utility.yul\":1325:1331   */\n  0x00\n    /* \"#utility.yul\":1333:1339   */\n  0x00\n    /* \"#utility.yul\":1382:1384   */\n  0x40\n    /* \"#utility.yul\":1370:1379   */\n  dup4\n    /* \"#utility.yul\":1361:1368   */\n  dup6\n    /* \"#utility.yul\":1357:1380   */\n  sub\n    /* \"#utility.yul\":1353:1385   */\n  slt\n    /* \"#utility.yul\":1350:1469   */\n  iszero\n  tag_45\n  jumpi\n    /* \"#utility.yul\":1388:1467   */\n  tag_46\n  tag_16\n  jump\t// in\ntag_46:\n    /* \"#utility.yul\":1350:1469   */\ntag_45:\n    /* \"#utility.yul\":1508:1509   */\n  0x00\n    /* \"#utility.yul\":1533:1597   */\n  tag_47\n    /* \"#utility.yul\":1589:1596   */\n  dup6\n    /* \"#utility.yul\":1580:1586   */\n  dup3\n    /* \"#utility.yul\":1569:1578   */\n  dup7\n    /* \"#utility.yul\":1565:1587   */\n  add\n    /* \"#utility.yul\":1533:1597   */\n  tag_20\n  jump\t// in\ntag_47:\n    /* \"#utility.yul\":1523:1597   */\n  swap3\n  pop\n    /* \"#utility.yul\":1479:1607   */\n  pop\n    /* \"#utility.yul\":1646:1648   */\n  0x20\n    /* \"#utility.yul\":1672:1736   */\n  tag_48\n    /* \"#utility.yul\":1728:1735   */\n  dup6\n    /* \"#utility.yul\":1719:1725   */\n  dup3\n    /* \"#utility.yul\":1708:1717   */\n  dup7\n    /* \"#utility.yul\":1704:1726   */\n  add\n    /* \"#utility.yul\":1672:1736   */\n  tag_24\n  jump\t// in\ntag_48:\n    /* \"#utility.yul\":1662:1736   */\n  swap2\n  pop\n    /* \"#utility.yul\":1617:1746   */\n  pop\n    /* \"#utility.yul\":1246:1753   */\n  swap3\n  pop\n  swap3\n  swap1\n  pop\n  jump\t// out\n    /* \"#utility.yul\":1759:1877   */\ntag_25:\n    /* \"#utility.yul\":1846:1870   */\n  tag_50\n    /* \"#utility.yul\":1864:1869   */\n  dup2\n    /* \"#utility.yul\":1846:1870   */\n  tag_22\n  jump\t// in\ntag_50:\n    /* \"#utility.yul\":1841:1844   */\n  dup3\n    /* \"#utility.yul\":1834:1871   */\n  mstore\n    /* \"#utility.yul\":1759:1877   */\n  pop\n  pop\n  jump\t// out\n    /* \"#utility.yul\":1883:2105   */\ntag_9:\n    /* \"#utility.yul\":1976:1980   */\n  0x00\n    /* \"#utility.yul\":2014:2016   */\n  0x20\n    /* \"#utility.yul\":2003:2012   */\n  dup3\n    /* \"#utility.yul\":1999:2017   */\n  add\n    /* \"#utility.yul\":1991:2017   */\n  swap1\n  pop\n    /* \"#utility.yul\":2027:2098   */\n  tag_52\n    /* \"#utility.yul\":2095:2096   */\n  0x00\n    /* \"#utility.yul\":2084:2093   */\n  dup4\n    /* \"#utility.yul\":2080:2097   */\n  add\n    /* \"#utility.yul\":2071:2077   */\n  dup5\n    /* \"#utility.yul\":2027:2098   */\n  tag_25\n  jump\t// in\ntag_52:\n    /* \"#utility.yul\":1883:2105   */\n  swap3\n  swap2\n  pop\n  pop\n  jump\t// out\n    /* \"contracts/KipuBankV3.sol\":919:15589  contract KipuBankV3 is Ownable{... */\ntag_13:\n  mload(0x80)\n  mload(0xa0)\n  codecopy(0x00, dataOffset(sub_0), dataSize(sub_0))\n  0x00\n  assignImmutable(\"0xc428c6907bdb089a99d3f8e2fb15559324b37df012d4d9c6f20b91e1c28c612e\")\n  0x00\n  assignImmutable(\"0x795dcf830090319074c4e36a23e7ad6013124a9e4afc765f3f324f667dfac3a5\")\n  return(0x00, dataSize(sub_0))\nstop\n\nsub_0: assembly {\n        /* \"contracts/KipuBankV3.sol\":919:15589  contract KipuBankV3 is Ownable{... */\n      mstore(0x40, 0x80)\n      jumpi(tag_1, lt(calldatasize, 0x04))\n      shr(0xe0, calldataload(0x00))\n      dup1\n      0x94f649dd\n      gt\n      tag_28\n      jumpi\n      dup1\n      0xc311d049\n      gt\n      tag_29\n      jumpi\n      dup1\n      0xd2706c91\n      gt\n      tag_30\n      jumpi\n      dup1\n      0xd2706c91\n      eq\n      tag_24\n      jumpi\n      dup1\n      0xef649249\n      eq\n      tag_25\n      jumpi\n      dup1\n      0xf2fde38b\n      eq\n      tag_26\n      jumpi\n      dup1\n      0xf8b2cb4f\n      eq\n      tag_27\n      jumpi\n      jump(tag_2)\n    tag_30:\n      dup1\n      0xc311d049\n      eq\n      tag_21\n      jumpi\n      dup1\n      0xc3a8962c\n      eq\n      tag_22\n      jumpi\n      dup1\n      0xc77e551b\n      eq\n      tag_23\n      jumpi\n      jump(tag_2)\n    tag_29:\n      dup1\n      0x94f649dd\n      eq\n      tag_15\n      jumpi\n      dup1\n      0x962b9bcc\n      eq\n      tag_16\n      jumpi\n      dup1\n      0x97feb926\n      eq\n      tag_17\n      jumpi\n      dup1\n      0xa1db9782\n      eq\n      tag_18\n      jumpi\n      dup1\n      0xa2abecd3\n      eq\n      tag_19\n      jumpi\n      dup1\n      0xb588d225\n      eq\n      tag_20\n      jumpi\n      jump(tag_2)\n    tag_28:\n      dup1\n      0x6b149d87\n      gt\n      tag_31\n      jumpi\n      dup1\n      0x6b149d87\n      eq\n      tag_9\n      jumpi\n      dup1\n      0x715018a6\n      eq\n      tag_10\n      jumpi\n      dup1\n      0x7dc532c5\n      eq\n      tag_11\n      jumpi\n      dup1\n      0x7f86ee43\n      eq\n      tag_12\n      jumpi\n      dup1\n      0x80ef10ed\n      eq\n      tag_13\n      jumpi\n      dup1\n      0x8da5cb5b\n      eq\n      tag_14\n      jumpi\n      jump(tag_2)\n    tag_31:\n      dup1\n      0x12065fe0\n      eq\n      tag_3\n      jumpi\n      dup1\n      0x21d60805\n      eq\n      tag_4\n      jumpi\n      dup1\n      0x297beb3c\n      eq\n      tag_5\n      jumpi\n      dup1\n      0x3a2b643a\n      eq\n      tag_6\n      jumpi\n      dup1\n      0x439370b1\n      eq\n      tag_7\n      jumpi\n      dup1\n      0x50d6c1e8\n      eq\n      tag_8\n      jumpi\n      jump(tag_2)\n    tag_1:\n      jumpi(tag_2, calldatasize)\n        /* \"contracts/KipuBankV3.sol\":4971:4983  depositEth() */\n      tag_34\n        /* \"contracts/KipuBankV3.sol\":4971:4981  depositEth */\n      tag_35\n        /* \"contracts/KipuBankV3.sol\":4971:4983  depositEth() */\n      jump\t// in\n    tag_34:\n        /* \"contracts/KipuBankV3.sol\":919:15589  contract KipuBankV3 is Ownable{... */\n      stop\n    tag_2:\n      revert(0x00, 0x00)\n        /* \"contracts/KipuBankV3.sol\":6394:6517  function getBalance() external view returns(uint balance_) {... */\n    tag_3:\n      callvalue\n      dup1\n      iszero\n      tag_36\n      jumpi\n      revert(0x00, 0x00)\n    tag_36:\n      pop\n      tag_37\n      tag_38\n      jump\t// in\n    tag_37:\n      mload(0x40)\n      tag_39\n      swap2\n      swap1\n      tag_40\n      jump\t// in\n    tag_39:\n      mload(0x40)\n      dup1\n      swap2\n      sub\n      swap1\n      return\n        /* \"contracts/KipuBankV3.sol\":9107:9260  function getBalanceInUSD(address user_) external view returns(uint balance_) {... */\n    tag_4:\n      callvalue\n      dup1\n      iszero\n      tag_41\n      jumpi\n      revert(0x00, 0x00)\n    tag_41:\n      pop\n      tag_42\n      0x04\n      dup1\n      calldatasize\n      sub\n      dup2\n      add\n      swap1\n      tag_43\n      swap2\n      swap1\n      tag_44\n      jump\t// in\n    tag_43:\n      tag_45\n      jump\t// in\n    tag_42:\n      mload(0x40)\n      tag_46\n      swap2\n      swap1\n      tag_40\n      jump\t// in\n    tag_46:\n      mload(0x40)\n      dup1\n      swap2\n      sub\n      swap1\n      return\n        /* \"contracts/KipuBankV3.sol\":10910:11085  function getERC20Deposits(address user_, address _tokenAddress) external onlyOwner view returns(uint deposits_) {... */\n    tag_5:\n      callvalue\n      dup1\n      iszero\n      tag_47\n      jumpi\n      revert(0x00, 0x00)\n    tag_47:\n      pop\n      tag_48\n      0x04\n      dup1\n      calldatasize\n      sub\n      dup2\n      add\n      swap1\n      tag_49\n      swap2\n      swap1\n      tag_50\n      jump\t// in\n    tag_49:\n      tag_51\n      jump\t// in\n    tag_48:\n      mload(0x40)\n      tag_52\n      swap2\n      swap1\n      tag_40\n      jump\t// in\n    tag_52:\n      mload(0x40)\n      dup1\n      swap2\n      sub\n      swap1\n      return\n        /* \"contracts/KipuBankV3.sol\":9906:10062  function getWithdrawals(address user_) external onlyOwner view returns(uint withdrawals_) {... */\n    tag_6:\n      callvalue\n      dup1\n      iszero\n      tag_53\n      jumpi\n      revert(0x00, 0x00)\n    tag_53:\n      pop\n      tag_54\n      0x04\n      dup1\n      calldatasize\n      sub\n      dup2\n      add\n      swap1\n      tag_55\n      swap2\n      swap1\n      tag_44\n      jump\t// in\n    tag_55:\n      tag_56\n      jump\t// in\n    tag_54:\n      mload(0x40)\n      tag_57\n      swap2\n      swap1\n      tag_40\n      jump\t// in\n    tag_57:\n      mload(0x40)\n      dup1\n      swap2\n      sub\n      swap1\n      return\n        /* \"contracts/KipuBankV3.sol\":5160:5562  function depositEth() public payable {... */\n    tag_7:\n      tag_58\n      tag_35\n      jump\t// in\n    tag_58:\n      stop\n        /* \"contracts/KipuBankV3.sol\":7131:7269  function getWithdrawals() external view returns(uint withdrawals_) {... */\n    tag_8:\n      callvalue\n      dup1\n      iszero\n      tag_59\n      jumpi\n      revert(0x00, 0x00)\n    tag_59:\n      pop\n      tag_60\n      tag_61\n      jump\t// in\n    tag_60:\n      mload(0x40)\n      tag_62\n      swap2\n      swap1\n      tag_40\n      jump\t// in\n    tag_62:\n      mload(0x40)\n      dup1\n      swap2\n      sub\n      swap1\n      return\n        /* \"contracts/KipuBankV3.sol\":6889:7015  function getDeposits() external view returns(uint deposits_) {... */\n    tag_9:\n      callvalue\n      dup1\n      iszero\n      tag_63\n      jumpi\n      revert(0x00, 0x00)\n    tag_63:\n      pop\n      tag_64\n      tag_65\n      jump\t// in\n    tag_64:\n      mload(0x40)\n      tag_66\n      swap2\n      swap1\n      tag_40\n      jump\t// in\n    tag_66:\n      mload(0x40)\n      dup1\n      swap2\n      sub\n      swap1\n      return\n        /* \"@openzeppelin/contracts/access/Ownable.sol\":2293:2394  function renounceOwnership() public virtual onlyOwner {... */\n    tag_10:\n      callvalue\n      dup1\n      iszero\n      tag_67\n      jumpi\n      revert(0x00, 0x00)\n    tag_67:\n      pop\n      tag_68\n      tag_69\n      jump\t// in\n    tag_68:\n      stop\n        /* \"contracts/KipuBankV3.sol\":11833:12023  function setFeeds(address _feed) external onlyOwner {... */\n    tag_11:\n      callvalue\n      dup1\n      iszero\n      tag_70\n      jumpi\n      revert(0x00, 0x00)\n    tag_70:\n      pop\n      tag_71\n      0x04\n      dup1\n      calldatasize\n      sub\n      dup2\n      add\n      swap1\n      tag_72\n      swap2\n      swap1\n      tag_44\n      jump\t// in\n    tag_72:\n      tag_73\n      jump\t// in\n    tag_71:\n      stop\n        /* \"contracts/KipuBankV3.sol\":2384:2433  uint128 public immutable s_withdrawLimit = 10**18 */\n    tag_12:\n      callvalue\n      dup1\n      iszero\n      tag_74\n      jumpi\n      revert(0x00, 0x00)\n    tag_74:\n      pop\n      tag_75\n      tag_76\n      jump\t// in\n    tag_75:\n      mload(0x40)\n      tag_77\n      swap2\n      swap1\n      tag_78\n      jump\t// in\n    tag_77:\n      mload(0x40)\n      dup1\n      swap2\n      sub\n      swap1\n      return\n        /* \"contracts/KipuBankV3.sol\":2293:2327  uint128 public immutable s_bankCap */\n    tag_13:\n      callvalue\n      dup1\n      iszero\n      tag_79\n      jumpi\n      revert(0x00, 0x00)\n    tag_79:\n      pop\n      tag_80\n      tag_81\n      jump\t// in\n    tag_80:\n      mload(0x40)\n      tag_82\n      swap2\n      swap1\n      tag_78\n      jump\t// in\n    tag_82:\n      mload(0x40)\n      dup1\n      swap2\n      sub\n      swap1\n      return\n        /* \"@openzeppelin/contracts/access/Ownable.sol\":1638:1723  function owner() public view virtual returns (address) {... */\n    tag_14:\n      callvalue\n      dup1\n      iszero\n      tag_83\n      jumpi\n      revert(0x00, 0x00)\n    tag_83:\n      pop\n      tag_84\n      tag_85\n      jump\t// in\n    tag_84:\n      mload(0x40)\n      tag_86\n      swap2\n      swap1\n      tag_87\n      jump\t// in\n    tag_86:\n      mload(0x40)\n      dup1\n      swap2\n      sub\n      swap1\n      return\n        /* \"contracts/KipuBankV3.sol\":9510:9654  function getDeposits(address user_) external onlyOwner view returns(uint deposits_) {... */\n    tag_15:\n      callvalue\n      dup1\n      iszero\n      tag_88\n      jumpi\n      revert(0x00, 0x00)\n    tag_88:\n      pop\n      tag_89\n      0x04\n      dup1\n      calldatasize\n      sub\n      dup2\n      add\n      swap1\n      tag_90\n      swap2\n      swap1\n      tag_44\n      jump\t// in\n    tag_90:\n      tag_91\n      jump\t// in\n    tag_89:\n      mload(0x40)\n      tag_92\n      swap2\n      swap1\n      tag_40\n      jump\t// in\n    tag_92:\n      mload(0x40)\n      dup1\n      swap2\n      sub\n      swap1\n      return\n        /* \"contracts/KipuBankV3.sol\":11432:11619  function getERC20Withdrawals(address user_, address _tokenAddress) external onlyOwner view returns(uint withdrawals_) {... */\n    tag_16:\n      callvalue\n      dup1\n      iszero\n      tag_93\n      jumpi\n      revert(0x00, 0x00)\n    tag_93:\n      pop\n      tag_94\n      0x04\n      dup1\n      calldatasize\n      sub\n      dup2\n      add\n      swap1\n      tag_95\n      swap2\n      swap1\n      tag_50\n      jump\t// in\n    tag_95:\n      tag_96\n      jump\t// in\n    tag_94:\n      mload(0x40)\n      tag_97\n      swap2\n      swap1\n      tag_40\n      jump\t// in\n    tag_97:\n      mload(0x40)\n      dup1\n      swap2\n      sub\n      swap1\n      return\n        /* \"contracts/KipuBankV3.sol\":5873:6286  function depositERC20(address _tokenAddress, uint256 _amount) external {... */\n    tag_17:\n      callvalue\n      dup1\n      iszero\n      tag_98\n      jumpi\n      revert(0x00, 0x00)\n    tag_98:\n      pop\n      tag_99\n      0x04\n      dup1\n      calldatasize\n      sub\n      dup2\n      add\n      swap1\n      tag_100\n      swap2\n      swap1\n      tag_101\n      jump\t// in\n    tag_100:\n      tag_102\n      jump\t// in\n    tag_99:\n      stop\n        /* \"contracts/KipuBankV3.sol\":13183:13739  function withdrawERC20(address _tokenAddress, uint _amount) public {... */\n    tag_18:\n      callvalue\n      dup1\n      iszero\n      tag_103\n      jumpi\n      revert(0x00, 0x00)\n    tag_103:\n      pop\n      tag_104\n      0x04\n      dup1\n      calldatasize\n      sub\n      dup2\n      add\n      swap1\n      tag_105\n      swap2\n      swap1\n      tag_101\n      jump\t// in\n    tag_105:\n      tag_106\n      jump\t// in\n    tag_104:\n      stop\n        /* \"contracts/KipuBankV3.sol\":7847:8002  function getERC20Deposits(address _tokenAddress) external view returns(uint deposits_) {... */\n    tag_19:\n      callvalue\n      dup1\n      iszero\n      tag_107\n      jumpi\n      revert(0x00, 0x00)\n    tag_107:\n      pop\n      tag_108\n      0x04\n      dup1\n      calldatasize\n      sub\n      dup2\n      add\n      swap1\n      tag_109\n      swap2\n      swap1\n      tag_44\n      jump\t// in\n    tag_109:\n      tag_110\n      jump\t// in\n    tag_108:\n      mload(0x40)\n      tag_111\n      swap2\n      swap1\n      tag_40\n      jump\t// in\n    tag_111:\n      mload(0x40)\n      dup1\n      swap2\n      sub\n      swap1\n      return\n        /* \"contracts/KipuBankV3.sol\":7478:7630  function getERC20Balance(address _tokenAddress) external view returns(uint balance_) {... */\n    tag_20:\n      callvalue\n      dup1\n      iszero\n      tag_112\n      jumpi\n      revert(0x00, 0x00)\n    tag_112:\n      pop\n      tag_113\n      0x04\n      dup1\n      calldatasize\n      sub\n      dup2\n      add\n      swap1\n      tag_114\n      swap2\n      swap1\n      tag_44\n      jump\t// in\n    tag_114:\n      tag_115\n      jump\t// in\n    tag_113:\n      mload(0x40)\n      tag_116\n      swap2\n      swap1\n      tag_40\n      jump\t// in\n    tag_116:\n      mload(0x40)\n      dup1\n      swap2\n      sub\n      swap1\n      return\n        /* \"contracts/KipuBankV3.sol\":12297:12831  function withdrawEth(uint _amount) public {... */\n    tag_21:\n      callvalue\n      dup1\n      iszero\n      tag_117\n      jumpi\n      revert(0x00, 0x00)\n    tag_117:\n      pop\n      tag_118\n      0x04\n      dup1\n      calldatasize\n      sub\n      dup2\n      add\n      swap1\n      tag_119\n      swap2\n      swap1\n      tag_120\n      jump\t// in\n    tag_119:\n      tag_121\n      jump\t// in\n    tag_118:\n      stop\n        /* \"contracts/KipuBankV3.sol\":10393:10565  function getERC20Balance(address user_, address _tokenAddress) external onlyOwner view returns(uint balance_) {... */\n    tag_22:\n      callvalue\n      dup1\n      iszero\n      tag_122\n      jumpi\n      revert(0x00, 0x00)\n    tag_122:\n      pop\n      tag_123\n      0x04\n      dup1\n      calldatasize\n      sub\n      dup2\n      add\n      swap1\n      tag_124\n      swap2\n      swap1\n      tag_50\n      jump\t// in\n    tag_124:\n      tag_125\n      jump\t// in\n    tag_123:\n      mload(0x40)\n      tag_126\n      swap2\n      swap1\n      tag_40\n      jump\t// in\n    tag_126:\n      mload(0x40)\n      dup1\n      swap2\n      sub\n      swap1\n      return\n        /* \"contracts/KipuBankV3.sol\":1490:1526  AggregatorV3Interface public s_feeds */\n    tag_23:\n      callvalue\n      dup1\n      iszero\n      tag_127\n      jumpi\n      revert(0x00, 0x00)\n    tag_127:\n      pop\n      tag_128\n      tag_129\n      jump\t// in\n    tag_128:\n      mload(0x40)\n      tag_130\n      swap2\n      swap1\n      tag_131\n      jump\t// in\n    tag_130:\n      mload(0x40)\n      dup1\n      swap2\n      sub\n      swap1\n      return\n        /* \"contracts/KipuBankV3.sol\":8221:8388  function getERC20Withdrawals(address _tokenAddress) external view returns(uint withdrawals_) {... */\n    tag_24:\n      callvalue\n      dup1\n      iszero\n      tag_132\n      jumpi\n      revert(0x00, 0x00)\n    tag_132:\n      pop\n      tag_133\n      0x04\n      dup1\n      calldatasize\n      sub\n      dup2\n      add\n      swap1\n      tag_134\n      swap2\n      swap1\n      tag_44\n      jump\t// in\n    tag_134:\n      tag_135\n      jump\t// in\n    tag_133:\n      mload(0x40)\n      tag_136\n      swap2\n      swap1\n      tag_40\n      jump\t// in\n    tag_136:\n      mload(0x40)\n      dup1\n      swap2\n      sub\n      swap1\n      return\n        /* \"contracts/KipuBankV3.sol\":6630:6775  function getBalanceInUSD() external view returns(uint balance_) {... */\n    tag_25:\n      callvalue\n      dup1\n      iszero\n      tag_137\n      jumpi\n      revert(0x00, 0x00)\n    tag_137:\n      pop\n      tag_138\n      tag_139\n      jump\t// in\n    tag_138:\n      mload(0x40)\n      tag_140\n      swap2\n      swap1\n      tag_40\n      jump\t// in\n    tag_140:\n      mload(0x40)\n      dup1\n      swap2\n      sub\n      swap1\n      return\n        /* \"@openzeppelin/contracts/access/Ownable.sol\":2543:2758  function transferOwnership(address newOwner) public virtual onlyOwner {... */\n    tag_26:\n      callvalue\n      dup1\n      iszero\n      tag_141\n      jumpi\n      revert(0x00, 0x00)\n    tag_141:\n      pop\n      tag_142\n      0x04\n      dup1\n      calldatasize\n      sub\n      dup2\n      add\n      swap1\n      tag_143\n      swap2\n      swap1\n      tag_44\n      jump\t// in\n    tag_143:\n      tag_144\n      jump\t// in\n    tag_142:\n      stop\n        /* \"contracts/KipuBankV3.sol\":8729:8870  function getBalance(address user_) external onlyOwner view returns(uint balance_) {... */\n    tag_27:\n      callvalue\n      dup1\n      iszero\n      tag_145\n      jumpi\n      revert(0x00, 0x00)\n    tag_145:\n      pop\n      tag_146\n      0x04\n      dup1\n      calldatasize\n      sub\n      dup2\n      add\n      swap1\n      tag_147\n      swap2\n      swap1\n      tag_44\n      jump\t// in\n    tag_147:\n      tag_148\n      jump\t// in\n    tag_146:\n      mload(0x40)\n      tag_149\n      swap2\n      swap1\n      tag_40\n      jump\t// in\n    tag_149:\n      mload(0x40)\n      dup1\n      swap2\n      sub\n      swap1\n      return\n        /* \"contracts/KipuBankV3.sol\":5160:5562  function depositEth() public payable {... */\n    tag_35:\n        /* \"contracts/KipuBankV3.sol\":5228:5229  0 */\n      0x00\n        /* \"contracts/KipuBankV3.sol\":5216:5225  msg.value */\n      callvalue\n        /* \"contracts/KipuBankV3.sol\":5216:5229  msg.value > 0 */\n      gt\n        /* \"contracts/KipuBankV3.sol\":5249:5259  msg.sender */\n      caller\n        /* \"contracts/KipuBankV3.sol\":5260:5269  msg.value */\n      callvalue\n        /* \"contracts/KipuBankV3.sol\":5208:5271  require(msg.value > 0, DepositNotAllowed(msg.sender,msg.value)) */\n      swap1\n      swap2\n      tag_151\n      jumpi\n      mload(0x40)\n      0xacb26d8e00000000000000000000000000000000000000000000000000000000\n      dup2\n      mstore\n      0x04\n      add\n      tag_152\n      swap3\n      swap2\n      swap1\n      tag_153\n      jump\t// in\n    tag_152:\n      mload(0x40)\n      dup1\n      swap2\n      sub\n      swap1\n      revert\n    tag_151:\n      pop\n      pop\n        /* \"contracts/KipuBankV3.sol\":5338:5347  s_bankCap */\n      immutable(\"0x795dcf830090319074c4e36a23e7ad6013124a9e4afc765f3f324f667dfac3a5\")\n        /* \"contracts/KipuBankV3.sol\":5290:5347  msg.value+s_balances[msg.sender][address(0)] <= s_bankCap */\n      0xffffffffffffffffffffffffffffffff\n      and\n        /* \"contracts/KipuBankV3.sol\":5300:5310  s_balances */\n      0x02\n        /* \"contracts/KipuBankV3.sol\":5300:5322  s_balances[msg.sender] */\n      0x00\n        /* \"contracts/KipuBankV3.sol\":5311:5321  msg.sender */\n      caller\n        /* \"contracts/KipuBankV3.sol\":5300:5322  s_balances[msg.sender] */\n      0xffffffffffffffffffffffffffffffffffffffff\n      and\n      0xffffffffffffffffffffffffffffffffffffffff\n      and\n      dup2\n      mstore\n      0x20\n      add\n      swap1\n      dup2\n      mstore\n      0x20\n      add\n      0x00\n      keccak256\n        /* \"contracts/KipuBankV3.sol\":5300:5334  s_balances[msg.sender][address(0)] */\n      0x00\n        /* \"contracts/KipuBankV3.sol\":5331:5332  0 */\n      0x00\n        /* \"contracts/KipuBankV3.sol\":5300:5334  s_balances[msg.sender][address(0)] */\n      0xffffffffffffffffffffffffffffffffffffffff\n      and\n      0xffffffffffffffffffffffffffffffffffffffff\n      and\n      dup2\n      mstore\n      0x20\n      add\n      swap1\n      dup2\n      mstore\n      0x20\n      add\n      0x00\n      keccak256\n      sload\n        /* \"contracts/KipuBankV3.sol\":5290:5299  msg.value */\n      callvalue\n        /* \"contracts/KipuBankV3.sol\":5290:5334  msg.value+s_balances[msg.sender][address(0)] */\n      tag_154\n      swap2\n      swap1\n      tag_155\n      jump\t// in\n    tag_154:\n        /* \"contracts/KipuBankV3.sol\":5290:5347  msg.value+s_balances[msg.sender][address(0)] <= s_bankCap */\n      gt\n      iszero\n        /* \"contracts/KipuBankV3.sol\":5367:5377  msg.sender */\n      caller\n        /* \"contracts/KipuBankV3.sol\":5378:5387  msg.value */\n      callvalue\n        /* \"contracts/KipuBankV3.sol\":5282:5389  require(msg.value+s_balances[msg.sender][address(0)] <= s_bankCap, DepositNotAllowed(msg.sender,msg.value)) */\n      swap1\n      swap2\n      tag_156\n      jumpi\n      mload(0x40)\n      0xacb26d8e00000000000000000000000000000000000000000000000000000000\n      dup2\n      mstore\n      0x04\n      add\n      tag_157\n      swap3\n      swap2\n      swap1\n      tag_153\n      jump\t// in\n    tag_157:\n      mload(0x40)\n      dup1\n      swap2\n      sub\n      swap1\n      revert\n    tag_156:\n      pop\n      pop\n        /* \"contracts/KipuBankV3.sol\":5440:5449  msg.value */\n      callvalue\n        /* \"contracts/KipuBankV3.sol\":5402:5412  s_balances */\n      0x02\n        /* \"contracts/KipuBankV3.sol\":5402:5424  s_balances[msg.sender] */\n      0x00\n        /* \"contracts/KipuBankV3.sol\":5413:5423  msg.sender */\n      caller\n        /* \"contracts/KipuBankV3.sol\":5402:5424  s_balances[msg.sender] */\n      0xffffffffffffffffffffffffffffffffffffffff\n      and\n      0xffffffffffffffffffffffffffffffffffffffff\n      and\n      dup2\n      mstore\n      0x20\n      add\n      swap1\n      dup2\n      mstore\n      0x20\n      add\n      0x00\n      keccak256\n        /* \"contracts/KipuBankV3.sol\":5402:5436  s_balances[msg.sender][address(0)] */\n      0x00\n        /* \"contracts/KipuBankV3.sol\":5433:5434  0 */\n      0x00\n        /* \"contracts/KipuBankV3.sol\":5402:5436  s_balances[msg.sender][address(0)] */\n      0xffffffffffffffffffffffffffffffffffffffff\n      and\n      0xffffffffffffffffffffffffffffffffffffffff\n      and\n      dup2\n      mstore\n      0x20\n      add\n      swap1\n      dup2\n      mstore\n      0x20\n      add\n      0x00\n      keccak256\n      0x00\n        /* \"contracts/KipuBankV3.sol\":5402:5449  s_balances[msg.sender][address(0)] += msg.value */\n      dup3\n      dup3\n      sload\n      tag_158\n      swap2\n      swap1\n      tag_155\n      jump\t// in\n    tag_158:\n      swap3\n      pop\n      pop\n      dup2\n      swap1\n      sstore\n      pop\n        /* \"contracts/KipuBankV3.sol\":5460:5470  s_deposits */\n      0x03\n        /* \"contracts/KipuBankV3.sol\":5460:5482  s_deposits[msg.sender] */\n      0x00\n        /* \"contracts/KipuBankV3.sol\":5471:5481  msg.sender */\n      caller\n        /* \"contracts/KipuBankV3.sol\":5460:5482  s_deposits[msg.sender] */\n      0xffffffffffffffffffffffffffffffffffffffff\n      and\n      0xffffffffffffffffffffffffffffffffffffffff\n      and\n      dup2\n      mstore\n      0x20\n      add\n      swap1\n      dup2\n      mstore\n      0x20\n      add\n      0x00\n      keccak256\n        /* \"contracts/KipuBankV3.sol\":5460:5494  s_deposits[msg.sender][address(0)] */\n      0x00\n        /* \"contracts/KipuBankV3.sol\":5491:5492  0 */\n      0x00\n        /* \"contracts/KipuBankV3.sol\":5460:5494  s_deposits[msg.sender][address(0)] */\n      0xffffffffffffffffffffffffffffffffffffffff\n      and\n      0xffffffffffffffffffffffffffffffffffffffff\n      and\n      dup2\n      mstore\n      0x20\n      add\n      swap1\n      dup2\n      mstore\n      0x20\n      add\n      0x00\n      keccak256\n      0x00\n        /* \"contracts/KipuBankV3.sol\":5460:5496  s_deposits[msg.sender][address(0)]++ */\n      dup2\n      dup2\n      swap1\n      sload\n      swap1\n      0x0100\n      exp\n      swap1\n      div\n      0xffffffff\n      and\n      dup1\n      swap3\n      swap2\n      swap1\n      tag_159\n      swap1\n      tag_160\n      jump\t// in\n    tag_159:\n      swap2\n      swap1\n      0x0100\n      exp\n      dup2\n      sload\n      dup2\n      0xffffffff\n      mul\n      not\n      and\n      swap1\n      dup4\n      0xffffffff\n      and\n      mul\n      or\n      swap1\n      sstore\n      pop\n      pop\n        /* \"contracts/KipuBankV3.sol\":5522:5554  Deposited(msg.sender, msg.value) */\n      0x2da466a7b24304f47e87fa2e1e5a81b9831ce54fec19055ce277ca2f39ba42c4\n        /* \"contracts/KipuBankV3.sol\":5532:5542  msg.sender */\n      caller\n        /* \"contracts/KipuBankV3.sol\":5544:5553  msg.value */\n      callvalue\n        /* \"contracts/KipuBankV3.sol\":5522:5554  Deposited(msg.sender, msg.value) */\n      mload(0x40)\n      tag_161\n      swap3\n      swap2\n      swap1\n      tag_153\n      jump\t// in\n    tag_161:\n      mload(0x40)\n      dup1\n      swap2\n      sub\n      swap1\n      log1\n        /* \"contracts/KipuBankV3.sol\":5160:5562  function depositEth() public payable {... */\n      jump\t// out\n        /* \"contracts/KipuBankV3.sol\":6394:6517  function getBalance() external view returns(uint balance_) {... */\n    tag_38:\n        /* \"contracts/KipuBankV3.sol\":6438:6451  uint balance_ */\n      0x00\n        /* \"contracts/KipuBankV3.sol\":6475:6485  s_balances */\n      0x02\n        /* \"contracts/KipuBankV3.sol\":6475:6497  s_balances[msg.sender] */\n      0x00\n        /* \"contracts/KipuBankV3.sol\":6486:6496  msg.sender */\n      caller\n        /* \"contracts/KipuBankV3.sol\":6475:6497  s_balances[msg.sender] */\n      0xffffffffffffffffffffffffffffffffffffffff\n      and\n      0xffffffffffffffffffffffffffffffffffffffff\n      and\n      dup2\n      mstore\n      0x20\n      add\n      swap1\n      dup2\n      mstore\n      0x20\n      add\n      0x00\n      keccak256\n        /* \"contracts/KipuBankV3.sol\":6475:6509  s_balances[msg.sender][address(0)] */\n      0x00\n        /* \"contracts/KipuBankV3.sol\":6506:6507  0 */\n      0x00\n        /* \"contracts/KipuBankV3.sol\":6475:6509  s_balances[msg.sender][address(0)] */\n      0xffffffffffffffffffffffffffffffffffffffff\n      and\n      0xffffffffffffffffffffffffffffffffffffffff\n      and\n      dup2\n      mstore\n      0x20\n      add\n      swap1\n      dup2\n      mstore\n      0x20\n      add\n      0x00\n      keccak256\n      sload\n        /* \"contracts/KipuBankV3.sol\":6464:6509  balance_ = s_balances[msg.sender][address(0)] */\n      swap1\n      pop\n        /* \"contracts/KipuBankV3.sol\":6394:6517  function getBalance() external view returns(uint balance_) {... */\n      swap1\n      jump\t// out\n        /* \"contracts/KipuBankV3.sol\":9107:9260  function getBalanceInUSD(address user_) external view returns(uint balance_) {... */\n    tag_45:\n        /* \"contracts/KipuBankV3.sol\":9169:9182  uint balance_ */\n      0x00\n        /* \"contracts/KipuBankV3.sol\":9206:9252  convertEthInUSD(s_balances[user_][address(0)]) */\n      tag_164\n        /* \"contracts/KipuBankV3.sol\":9222:9232  s_balances */\n      0x02\n        /* \"contracts/KipuBankV3.sol\":9222:9239  s_balances[user_] */\n      0x00\n        /* \"contracts/KipuBankV3.sol\":9233:9238  user_ */\n      dup5\n        /* \"contracts/KipuBankV3.sol\":9222:9239  s_balances[user_] */\n      0xffffffffffffffffffffffffffffffffffffffff\n      and\n      0xffffffffffffffffffffffffffffffffffffffff\n      and\n      dup2\n      mstore\n      0x20\n      add\n      swap1\n      dup2\n      mstore\n      0x20\n      add\n      0x00\n      keccak256\n        /* \"contracts/KipuBankV3.sol\":9222:9251  s_balances[user_][address(0)] */\n      0x00\n        /* \"contracts/KipuBankV3.sol\":9248:9249  0 */\n      0x00\n        /* \"contracts/KipuBankV3.sol\":9222:9251  s_balances[user_][address(0)] */\n      0xffffffffffffffffffffffffffffffffffffffff\n      and\n      0xffffffffffffffffffffffffffffffffffffffff\n      and\n      dup2\n      mstore\n      0x20\n      add\n      swap1\n      dup2\n      mstore\n      0x20\n      add\n      0x00\n      keccak256\n      sload\n        /* \"contracts/KipuBankV3.sol\":9206:9221  convertEthInUSD */\n      tag_165\n        /* \"contracts/KipuBankV3.sol\":9206:9252  convertEthInUSD(s_balances[user_][address(0)]) */\n      jump\t// in\n    tag_164:\n        /* \"contracts/KipuBankV3.sol\":9195:9252  balance_ = convertEthInUSD(s_balances[user_][address(0)]) */\n      swap1\n      pop\n        /* \"contracts/KipuBankV3.sol\":9107:9260  function getBalanceInUSD(address user_) external view returns(uint balance_) {... */\n      swap2\n      swap1\n      pop\n      jump\t// out\n        /* \"contracts/KipuBankV3.sol\":10910:11085  function getERC20Deposits(address user_, address _tokenAddress) external onlyOwner view returns(uint deposits_) {... */\n    tag_51:\n        /* \"contracts/KipuBankV3.sol\":11006:11020  uint deposits_ */\n      0x00\n        /* \"@openzeppelin/contracts/access/Ownable.sol\":1531:1544  _checkOwner() */\n      tag_167\n        /* \"@openzeppelin/contracts/access/Ownable.sol\":1531:1542  _checkOwner */\n      tag_168\n        /* \"@openzeppelin/contracts/access/Ownable.sol\":1531:1544  _checkOwner() */\n      jump\t// in\n    tag_167:\n        /* \"contracts/KipuBankV3.sol\":11045:11055  s_deposits */\n      0x03\n        /* \"contracts/KipuBankV3.sol\":11045:11062  s_deposits[user_] */\n      0x00\n        /* \"contracts/KipuBankV3.sol\":11056:11061  user_ */\n      dup5\n        /* \"contracts/KipuBankV3.sol\":11045:11062  s_deposits[user_] */\n      0xffffffffffffffffffffffffffffffffffffffff\n      and\n      0xffffffffffffffffffffffffffffffffffffffff\n      and\n      dup2\n      mstore\n      0x20\n      add\n      swap1\n      dup2\n      mstore\n      0x20\n      add\n      0x00\n      keccak256\n        /* \"contracts/KipuBankV3.sol\":11045:11077  s_deposits[user_][_tokenAddress] */\n      0x00\n        /* \"contracts/KipuBankV3.sol\":11063:11076  _tokenAddress */\n      dup4\n        /* \"contracts/KipuBankV3.sol\":11045:11077  s_deposits[user_][_tokenAddress] */\n      0xffffffffffffffffffffffffffffffffffffffff\n      and\n      0xffffffffffffffffffffffffffffffffffffffff\n      and\n      dup2\n      mstore\n      0x20\n      add\n      swap1\n      dup2\n      mstore\n      0x20\n      add\n      0x00\n      keccak256\n      0x00\n      swap1\n      sload\n      swap1\n      0x0100\n      exp\n      swap1\n      div\n      0xffffffff\n      and\n        /* \"contracts/KipuBankV3.sol\":11033:11077  deposits_ = s_deposits[user_][_tokenAddress] */\n      0xffffffff\n      and\n      swap1\n      pop\n        /* \"contracts/KipuBankV3.sol\":10910:11085  function getERC20Deposits(address user_, address _tokenAddress) external onlyOwner view returns(uint deposits_) {... */\n      swap3\n      swap2\n      pop\n      pop\n      jump\t// out\n        /* \"contracts/KipuBankV3.sol\":9906:10062  function getWithdrawals(address user_) external onlyOwner view returns(uint withdrawals_) {... */\n    tag_56:\n        /* \"contracts/KipuBankV3.sol\":9977:9994  uint withdrawals_ */\n      0x00\n        /* \"@openzeppelin/contracts/access/Ownable.sol\":1531:1544  _checkOwner() */\n      tag_171\n        /* \"@openzeppelin/contracts/access/Ownable.sol\":1531:1542  _checkOwner */\n      tag_168\n        /* \"@openzeppelin/contracts/access/Ownable.sol\":1531:1544  _checkOwner() */\n      jump\t// in\n    tag_171:\n        /* \"contracts/KipuBankV3.sol\":10022:10035  s_withdrawals */\n      0x04\n        /* \"contracts/KipuBankV3.sol\":10022:10042  s_withdrawals[user_] */\n      0x00\n        /* \"contracts/KipuBankV3.sol\":10036:10041  user_ */\n      dup4\n        /* \"contracts/KipuBankV3.sol\":10022:10042  s_withdrawals[user_] */\n      0xffffffffffffffffffffffffffffffffffffffff\n      and\n      0xffffffffffffffffffffffffffffffffffffffff\n      and\n      dup2\n      mstore\n      0x20\n      add\n      swap1\n      dup2\n      mstore\n      0x20\n      add\n      0x00\n      keccak256\n        /* \"contracts/KipuBankV3.sol\":10022:10054  s_withdrawals[user_][address(0)] */\n      0x00\n        /* \"contracts/KipuBankV3.sol\":10051:10052  0 */\n      0x00\n        /* \"contracts/KipuBankV3.sol\":10022:10054  s_withdrawals[user_][address(0)] */\n      0xffffffffffffffffffffffffffffffffffffffff\n      and\n      0xffffffffffffffffffffffffffffffffffffffff\n      and\n      dup2\n      mstore\n      0x20\n      add\n      swap1\n      dup2\n      mstore\n      0x20\n      add\n      0x00\n      keccak256\n      0x00\n      swap1\n      sload\n      swap1\n      0x0100\n      exp\n      swap1\n      div\n      0xffffffff\n      and\n        /* \"contracts/KipuBankV3.sol\":10007:10054  withdrawals_ = s_withdrawals[user_][address(0)] */\n      0xffffffff\n      and\n      swap1\n      pop\n        /* \"contracts/KipuBankV3.sol\":9906:10062  function getWithdrawals(address user_) external onlyOwner view returns(uint withdrawals_) {... */\n      swap2\n      swap1\n      pop\n      jump\t// out\n        /* \"contracts/KipuBankV3.sol\":7131:7269  function getWithdrawals() external view returns(uint withdrawals_) {... */\n    tag_61:\n        /* \"contracts/KipuBankV3.sol\":7179:7196  uint withdrawals_ */\n      0x00\n        /* \"contracts/KipuBankV3.sol\":7224:7237  s_withdrawals */\n      0x04\n        /* \"contracts/KipuBankV3.sol\":7224:7249  s_withdrawals[msg.sender] */\n      0x00\n        /* \"contracts/KipuBankV3.sol\":7238:7248  msg.sender */\n      caller\n        /* \"contracts/KipuBankV3.sol\":7224:7249  s_withdrawals[msg.sender] */\n      0xffffffffffffffffffffffffffffffffffffffff\n      and\n      0xffffffffffffffffffffffffffffffffffffffff\n      and\n      dup2\n      mstore\n      0x20\n      add\n      swap1\n      dup2\n      mstore\n      0x20\n      add\n      0x00\n      keccak256\n        /* \"contracts/KipuBankV3.sol\":7224:7261  s_withdrawals[msg.sender][address(0)] */\n      0x00\n        /* \"contracts/KipuBankV3.sol\":7258:7259  0 */\n      0x00\n        /* \"contracts/KipuBankV3.sol\":7224:7261  s_withdrawals[msg.sender][address(0)] */\n      0xffffffffffffffffffffffffffffffffffffffff\n      and\n      0xffffffffffffffffffffffffffffffffffffffff\n      and\n      dup2\n      mstore\n      0x20\n      add\n      swap1\n      dup2\n      mstore\n      0x20\n      add\n      0x00\n      keccak256\n      0x00\n      swap1\n      sload\n      swap1\n      0x0100\n      exp\n      swap1\n      div\n      0xffffffff\n      and\n        /* \"contracts/KipuBankV3.sol\":7209:7261  withdrawals_ = s_withdrawals[msg.sender][address(0)] */\n      0xffffffff\n      and\n      swap1\n      pop\n        /* \"contracts/KipuBankV3.sol\":7131:7269  function getWithdrawals() external view returns(uint withdrawals_) {... */\n      swap1\n      jump\t// out\n        /* \"contracts/KipuBankV3.sol\":6889:7015  function getDeposits() external view returns(uint deposits_) {... */\n    tag_65:\n        /* \"contracts/KipuBankV3.sol\":6934:6948  uint deposits_ */\n      0x00\n        /* \"contracts/KipuBankV3.sol\":6973:6983  s_deposits */\n      0x03\n        /* \"contracts/KipuBankV3.sol\":6973:6995  s_deposits[msg.sender] */\n      0x00\n        /* \"contracts/KipuBankV3.sol\":6984:6994  msg.sender */\n      caller\n        /* \"contracts/KipuBankV3.sol\":6973:6995  s_deposits[msg.sender] */\n      0xffffffffffffffffffffffffffffffffffffffff\n      and\n      0xffffffffffffffffffffffffffffffffffffffff\n      and\n      dup2\n      mstore\n      0x20\n      add\n      swap1\n      dup2\n      mstore\n      0x20\n      add\n      0x00\n      keccak256\n        /* \"contracts/KipuBankV3.sol\":6973:7007  s_deposits[msg.sender][address(0)] */\n      0x00\n        /* \"contracts/KipuBankV3.sol\":7004:7005  0 */\n      0x00\n        /* \"contracts/KipuBankV3.sol\":6973:7007  s_deposits[msg.sender][address(0)] */\n      0xffffffffffffffffffffffffffffffffffffffff\n      and\n      0xffffffffffffffffffffffffffffffffffffffff\n      and\n      dup2\n      mstore\n      0x20\n      add\n      swap1\n      dup2\n      mstore\n      0x20\n      add\n      0x00\n      keccak256\n      0x00\n      swap1\n      sload\n      swap1\n      0x0100\n      exp\n      swap1\n      div\n      0xffffffff\n      and\n        /* \"contracts/KipuBankV3.sol\":6961:7007  deposits_ = s_deposits[msg.sender][address(0)] */\n      0xffffffff\n      and\n      swap1\n      pop\n        /* \"contracts/KipuBankV3.sol\":6889:7015  function getDeposits() external view returns(uint deposits_) {... */\n      swap1\n      jump\t// out\n        /* \"@openzeppelin/contracts/access/Ownable.sol\":2293:2394  function renounceOwnership() public virtual onlyOwner {... */\n    tag_69:\n        /* \"@openzeppelin/contracts/access/Ownable.sol\":1531:1544  _checkOwner() */\n      tag_176\n        /* \"@openzeppelin/contracts/access/Ownable.sol\":1531:1542  _checkOwner */\n      tag_168\n        /* \"@openzeppelin/contracts/access/Ownable.sol\":1531:1544  _checkOwner() */\n      jump\t// in\n    tag_176:\n        /* \"@openzeppelin/contracts/access/Ownable.sol\":2357:2387  _transferOwnership(address(0)) */\n      tag_178\n        /* \"@openzeppelin/contracts/access/Ownable.sol\":2384:2385  0 */\n      0x00\n        /* \"@openzeppelin/contracts/access/Ownable.sol\":2357:2375  _transferOwnership */\n      tag_179\n        /* \"@openzeppelin/contracts/access/Ownable.sol\":2357:2387  _transferOwnership(address(0)) */\n      jump\t// in\n    tag_178:\n        /* \"@openzeppelin/contracts/access/Ownable.sol\":2293:2394  function renounceOwnership() public virtual onlyOwner {... */\n      jump\t// out\n        /* \"contracts/KipuBankV3.sol\":11833:12023  function setFeeds(address _feed) external onlyOwner {... */\n    tag_73:\n        /* \"@openzeppelin/contracts/access/Ownable.sol\":1531:1544  _checkOwner() */\n      tag_181\n        /* \"@openzeppelin/contracts/access/Ownable.sol\":1531:1542  _checkOwner */\n      tag_168\n        /* \"@openzeppelin/contracts/access/Ownable.sol\":1531:1544  _checkOwner() */\n      jump\t// in\n    tag_181:\n        /* \"contracts/KipuBankV3.sol\":11903:11962  ChainlinkFeedUpdated(s_feeds, AggregatorV3Interface(_feed)) */\n      0x3be680563c528780d5a9cd763a27b4a48ab5f9dc10e4083a2fa55b6fc5ff33e6\n        /* \"contracts/KipuBankV3.sol\":11924:11931  s_feeds */\n      0x01\n      0x00\n      swap1\n      sload\n      swap1\n      0x0100\n      exp\n      swap1\n      div\n      0xffffffffffffffffffffffffffffffffffffffff\n      and\n        /* \"contracts/KipuBankV3.sol\":11955:11960  _feed */\n      dup3\n        /* \"contracts/KipuBankV3.sol\":11903:11962  ChainlinkFeedUpdated(s_feeds, AggregatorV3Interface(_feed)) */\n      mload(0x40)\n      tag_183\n      swap3\n      swap2\n      swap1\n      tag_184\n      jump\t// in\n    tag_183:\n      mload(0x40)\n      dup1\n      swap2\n      sub\n      swap1\n      log1\n        /* \"contracts/KipuBankV3.sol\":12007:12012  _feed */\n      dup1\n        /* \"contracts/KipuBankV3.sol\":11975:11982  s_feeds */\n      0x01\n      0x00\n        /* \"contracts/KipuBankV3.sol\":11975:12013  s_feeds = AggregatorV3Interface(_feed) */\n      0x0100\n      exp\n      dup2\n      sload\n      dup2\n      0xffffffffffffffffffffffffffffffffffffffff\n      mul\n      not\n      and\n      swap1\n      dup4\n      0xffffffffffffffffffffffffffffffffffffffff\n      and\n      mul\n      or\n      swap1\n      sstore\n      pop\n        /* \"contracts/KipuBankV3.sol\":11833:12023  function setFeeds(address _feed) external onlyOwner {... */\n      pop\n      jump\t// out\n        /* \"contracts/KipuBankV3.sol\":2384:2433  uint128 public immutable s_withdrawLimit = 10**18 */\n    tag_76:\n      immutable(\"0xc428c6907bdb089a99d3f8e2fb15559324b37df012d4d9c6f20b91e1c28c612e\")\n      dup2\n      jump\t// out\n        /* \"contracts/KipuBankV3.sol\":2293:2327  uint128 public immutable s_bankCap */\n    tag_81:\n      immutable(\"0x795dcf830090319074c4e36a23e7ad6013124a9e4afc765f3f324f667dfac3a5\")\n      dup2\n      jump\t// out\n        /* \"@openzeppelin/contracts/access/Ownable.sol\":1638:1723  function owner() public view virtual returns (address) {... */\n    tag_85:\n        /* \"@openzeppelin/contracts/access/Ownable.sol\":1684:1691  address */\n      0x00\n        /* \"@openzeppelin/contracts/access/Ownable.sol\":1710:1716  _owner */\n      0x00\n      0x00\n      swap1\n      sload\n      swap1\n      0x0100\n      exp\n      swap1\n      div\n      0xffffffffffffffffffffffffffffffffffffffff\n      and\n        /* \"@openzeppelin/contracts/access/Ownable.sol\":1703:1716  return _owner */\n      swap1\n      pop\n        /* \"@openzeppelin/contracts/access/Ownable.sol\":1638:1723  function owner() public view virtual returns (address) {... */\n      swap1\n      jump\t// out\n        /* \"contracts/KipuBankV3.sol\":9510:9654  function getDeposits(address user_) external onlyOwner view returns(uint deposits_) {... */\n    tag_91:\n        /* \"contracts/KipuBankV3.sol\":9578:9592  uint deposits_ */\n      0x00\n        /* \"@openzeppelin/contracts/access/Ownable.sol\":1531:1544  _checkOwner() */\n      tag_187\n        /* \"@openzeppelin/contracts/access/Ownable.sol\":1531:1542  _checkOwner */\n      tag_168\n        /* \"@openzeppelin/contracts/access/Ownable.sol\":1531:1544  _checkOwner() */\n      jump\t// in\n    tag_187:\n        /* \"contracts/KipuBankV3.sol\":9617:9627  s_deposits */\n      0x03\n        /* \"contracts/KipuBankV3.sol\":9617:9634  s_deposits[user_] */\n      0x00\n        /* \"contracts/KipuBankV3.sol\":9628:9633  user_ */\n      dup4\n        /* \"contracts/KipuBankV3.sol\":9617:9634  s_deposits[user_] */\n      0xffffffffffffffffffffffffffffffffffffffff\n      and\n      0xffffffffffffffffffffffffffffffffffffffff\n      and\n      dup2\n      mstore\n      0x20\n      add\n      swap1\n      dup2\n      mstore\n      0x20\n      add\n      0x00\n      keccak256\n        /* \"contracts/KipuBankV3.sol\":9617:9646  s_deposits[user_][address(0)] */\n      0x00\n        /* \"contracts/KipuBankV3.sol\":9643:9644  0 */\n      0x00\n        /* \"contracts/KipuBankV3.sol\":9617:9646  s_deposits[user_][address(0)] */\n      0xffffffffffffffffffffffffffffffffffffffff\n      and\n      0xffffffffffffffffffffffffffffffffffffffff\n      and\n      dup2\n      mstore\n      0x20\n      add\n      swap1\n      dup2\n      mstore\n      0x20\n      add\n      0x00\n      keccak256\n      0x00\n      swap1\n      sload\n      swap1\n      0x0100\n      exp\n      swap1\n      div\n      0xffffffff\n      and\n        /* \"contracts/KipuBankV3.sol\":9605:9646  deposits_ = s_deposits[user_][address(0)] */\n      0xffffffff\n      and\n      swap1\n      pop\n        /* \"contracts/KipuBankV3.sol\":9510:9654  function getDeposits(address user_) external onlyOwner view returns(uint deposits_) {... */\n      swap2\n      swap1\n      pop\n      jump\t// out\n        /* \"contracts/KipuBankV3.sol\":11432:11619  function getERC20Withdrawals(address user_, address _tokenAddress) external onlyOwner view returns(uint withdrawals_) {... */\n    tag_96:\n        /* \"contracts/KipuBankV3.sol\":11531:11548  uint withdrawals_ */\n      0x00\n        /* \"@openzeppelin/contracts/access/Ownable.sol\":1531:1544  _checkOwner() */\n      tag_190\n        /* \"@openzeppelin/contracts/access/Ownable.sol\":1531:1542  _checkOwner */\n      tag_168\n        /* \"@openzeppelin/contracts/access/Ownable.sol\":1531:1544  _checkOwner() */\n      jump\t// in\n    tag_190:\n        /* \"contracts/KipuBankV3.sol\":11576:11589  s_withdrawals */\n      0x04\n        /* \"contracts/KipuBankV3.sol\":11576:11596  s_withdrawals[user_] */\n      0x00\n        /* \"contracts/KipuBankV3.sol\":11590:11595  user_ */\n      dup5\n        /* \"contracts/KipuBankV3.sol\":11576:11596  s_withdrawals[user_] */\n      0xffffffffffffffffffffffffffffffffffffffff\n      and\n      0xffffffffffffffffffffffffffffffffffffffff\n      and\n      dup2\n      mstore\n      0x20\n      add\n      swap1\n      dup2\n      mstore\n      0x20\n      add\n      0x00\n      keccak256\n        /* \"contracts/KipuBankV3.sol\":11576:11611  s_withdrawals[user_][_tokenAddress] */\n      0x00\n        /* \"contracts/KipuBankV3.sol\":11597:11610  _tokenAddress */\n      dup4\n        /* \"contracts/KipuBankV3.sol\":11576:11611  s_withdrawals[user_][_tokenAddress] */\n      0xffffffffffffffffffffffffffffffffffffffff\n      and\n      0xffffffffffffffffffffffffffffffffffffffff\n      and\n      dup2\n      mstore\n      0x20\n      add\n      swap1\n      dup2\n      mstore\n      0x20\n      add\n      0x00\n      keccak256\n      0x00\n      swap1\n      sload\n      swap1\n      0x0100\n      exp\n      swap1\n      div\n      0xffffffff\n      and\n        /* \"contracts/KipuBankV3.sol\":11561:11611  withdrawals_ = s_withdrawals[user_][_tokenAddress] */\n      0xffffffff\n      and\n      swap1\n      pop\n        /* \"contracts/KipuBankV3.sol\":11432:11619  function getERC20Withdrawals(address user_, address _tokenAddress) external onlyOwner view returns(uint withdrawals_) {... */\n      swap3\n      swap2\n      pop\n      pop\n      jump\t// out\n        /* \"contracts/KipuBankV3.sol\":5873:6286  function depositERC20(address _tokenAddress, uint256 _amount) external {... */\n    tag_102:\n        /* \"contracts/KipuBankV3.sol\":5973:5974  0 */\n      0x00\n        /* \"contracts/KipuBankV3.sol\":5963:5970  _amount */\n      dup2\n        /* \"contracts/KipuBankV3.sol\":5963:5974  _amount > 0 */\n      gt\n        /* \"contracts/KipuBankV3.sol\":5994:6004  msg.sender */\n      caller\n        /* \"contracts/KipuBankV3.sol\":6005:6012  _amount */\n      dup3\n        /* \"contracts/KipuBankV3.sol\":5955:6014  require(_amount > 0, DepositNotAllowed(msg.sender,_amount)) */\n      swap1\n      swap2\n      tag_193\n      jumpi\n      mload(0x40)\n      0xacb26d8e00000000000000000000000000000000000000000000000000000000\n      dup2\n      mstore\n      0x04\n      add\n      tag_194\n      swap3\n      swap2\n      swap1\n      tag_153\n      jump\t// in\n    tag_194:\n      mload(0x40)\n      dup1\n      swap2\n      sub\n      swap1\n      revert\n    tag_193:\n      pop\n      pop\n        /* \"contracts/KipuBankV3.sol\":6066:6073  _amount */\n      dup1\n        /* \"contracts/KipuBankV3.sol\":6025:6035  s_balances */\n      0x02\n        /* \"contracts/KipuBankV3.sol\":6025:6047  s_balances[msg.sender] */\n      0x00\n        /* \"contracts/KipuBankV3.sol\":6036:6046  msg.sender */\n      caller\n        /* \"contracts/KipuBankV3.sol\":6025:6047  s_balances[msg.sender] */\n      0xffffffffffffffffffffffffffffffffffffffff\n      and\n      0xffffffffffffffffffffffffffffffffffffffff\n      and\n      dup2\n      mstore\n      0x20\n      add\n      swap1\n      dup2\n      mstore\n      0x20\n      add\n      0x00\n      keccak256\n        /* \"contracts/KipuBankV3.sol\":6025:6062  s_balances[msg.sender][_tokenAddress] */\n      0x00\n        /* \"contracts/KipuBankV3.sol\":6048:6061  _tokenAddress */\n      dup5\n        /* \"contracts/KipuBankV3.sol\":6025:6062  s_balances[msg.sender][_tokenAddress] */\n      0xffffffffffffffffffffffffffffffffffffffff\n      and\n      0xffffffffffffffffffffffffffffffffffffffff\n      and\n      dup2\n      mstore\n      0x20\n      add\n      swap1\n      dup2\n      mstore\n      0x20\n      add\n      0x00\n      keccak256\n      0x00\n        /* \"contracts/KipuBankV3.sol\":6025:6073  s_balances[msg.sender][_tokenAddress] += _amount */\n      dup3\n      dup3\n      sload\n      tag_195\n      swap2\n      swap1\n      tag_155\n      jump\t// in\n    tag_195:\n      swap3\n      pop\n      pop\n      dup2\n      swap1\n      sstore\n      pop\n        /* \"contracts/KipuBankV3.sol\":6084:6094  s_deposits */\n      0x03\n        /* \"contracts/KipuBankV3.sol\":6084:6106  s_deposits[msg.sender] */\n      0x00\n        /* \"contracts/KipuBankV3.sol\":6095:6105  msg.sender */\n      caller\n        /* \"contracts/KipuBankV3.sol\":6084:6106  s_deposits[msg.sender] */\n      0xffffffffffffffffffffffffffffffffffffffff\n      and\n      0xffffffffffffffffffffffffffffffffffffffff\n      and\n      dup2\n      mstore\n      0x20\n      add\n      swap1\n      dup2\n      mstore\n      0x20\n      add\n      0x00\n      keccak256\n        /* \"contracts/KipuBankV3.sol\":6084:6121  s_deposits[msg.sender][_tokenAddress] */\n      0x00\n        /* \"contracts/KipuBankV3.sol\":6107:6120  _tokenAddress */\n      dup4\n        /* \"contracts/KipuBankV3.sol\":6084:6121  s_deposits[msg.sender][_tokenAddress] */\n      0xffffffffffffffffffffffffffffffffffffffff\n      and\n      0xffffffffffffffffffffffffffffffffffffffff\n      and\n      dup2\n      mstore\n      0x20\n      add\n      swap1\n      dup2\n      mstore\n      0x20\n      add\n      0x00\n      keccak256\n      0x00\n        /* \"contracts/KipuBankV3.sol\":6084:6123  s_deposits[msg.sender][_tokenAddress]++ */\n      dup2\n      dup2\n      swap1\n      sload\n      swap1\n      0x0100\n      exp\n      swap1\n      div\n      0xffffffff\n      and\n      dup1\n      swap3\n      swap2\n      swap1\n      tag_196\n      swap1\n      tag_160\n      jump\t// in\n    tag_196:\n      swap2\n      swap1\n      0x0100\n      exp\n      dup2\n      sload\n      dup2\n      0xffffffff\n      mul\n      not\n      and\n      swap1\n      dup4\n      0xffffffff\n      and\n      mul\n      or\n      swap1\n      sstore\n      pop\n      pop\n        /* \"contracts/KipuBankV3.sol\":6141:6191  ERC20Deposited(msg.sender, _tokenAddress, _amount) */\n      0xe33e9822e3317b004d587136bab2627ea1ecfbba4eb79abddd0a56cfdd09c0e1\n        /* \"contracts/KipuBankV3.sol\":6156:6166  msg.sender */\n      caller\n        /* \"contracts/KipuBankV3.sol\":6168:6181  _tokenAddress */\n      dup4\n        /* \"contracts/KipuBankV3.sol\":6183:6190  _amount */\n      dup4\n        /* \"contracts/KipuBankV3.sol\":6141:6191  ERC20Deposited(msg.sender, _tokenAddress, _amount) */\n      mload(0x40)\n      tag_197\n      swap4\n      swap3\n      swap2\n      swap1\n      tag_198\n      jump\t// in\n    tag_197:\n      mload(0x40)\n      dup1\n      swap2\n      sub\n      swap1\n      log1\n        /* \"contracts/KipuBankV3.sol\":6204:6278  IERC20(_tokenAddress).safeTransferFrom(msg.sender, address(this), _amount) */\n      tag_199\n        /* \"contracts/KipuBankV3.sol\":6243:6253  msg.sender */\n      caller\n        /* \"contracts/KipuBankV3.sol\":6263:6267  this */\n      address\n        /* \"contracts/KipuBankV3.sol\":6270:6277  _amount */\n      dup4\n        /* \"contracts/KipuBankV3.sol\":6211:6224  _tokenAddress */\n      dup6\n        /* \"contracts/KipuBankV3.sol\":6204:6242  IERC20(_tokenAddress).safeTransferFrom */\n      0xffffffffffffffffffffffffffffffffffffffff\n      and\n      tag_200\n      swap1\n        /* \"contracts/KipuBankV3.sol\":6204:6278  IERC20(_tokenAddress).safeTransferFrom(msg.sender, address(this), _amount) */\n      swap4\n      swap3\n      swap2\n      swap1\n      0xffffffff\n      and\n      jump\t// in\n    tag_199:\n        /* \"contracts/KipuBankV3.sol\":5873:6286  function depositERC20(address _tokenAddress, uint256 _amount) external {... */\n      pop\n      pop\n      jump\t// out\n        /* \"contracts/KipuBankV3.sol\":13183:13739  function withdrawERC20(address _tokenAddress, uint _amount) public {... */\n    tag_106:\n        /* \"contracts/KipuBankV3.sol\":13279:13280  0 */\n      0x00\n        /* \"contracts/KipuBankV3.sol\":13269:13276  _amount */\n      dup2\n        /* \"contracts/KipuBankV3.sol\":13269:13280  _amount > 0 */\n      gt\n        /* \"contracts/KipuBankV3.sol\":13308:13318  msg.sender */\n      caller\n        /* \"contracts/KipuBankV3.sol\":13320:13333  _tokenAddress */\n      dup4\n        /* \"contracts/KipuBankV3.sol\":13335:13342  _amount */\n      dup4\n        /* \"contracts/KipuBankV3.sol\":13261:13344  require(_amount > 0, ERC20ExtractionNotAllowed(msg.sender, _tokenAddress, _amount)) */\n      swap1\n      swap2\n      swap3\n      tag_202\n      jumpi\n      mload(0x40)\n      0xb4e4601d00000000000000000000000000000000000000000000000000000000\n      dup2\n      mstore\n      0x04\n      add\n      tag_203\n      swap4\n      swap3\n      swap2\n      swap1\n      tag_198\n      jump\t// in\n    tag_203:\n      mload(0x40)\n      dup1\n      swap2\n      sub\n      swap1\n      revert\n    tag_202:\n      pop\n      pop\n      pop\n        /* \"contracts/KipuBankV3.sol\":13374:13384  s_balances */\n      0x02\n        /* \"contracts/KipuBankV3.sol\":13374:13396  s_balances[msg.sender] */\n      0x00\n        /* \"contracts/KipuBankV3.sol\":13385:13395  msg.sender */\n      caller\n        /* \"contracts/KipuBankV3.sol\":13374:13396  s_balances[msg.sender] */\n      0xffffffffffffffffffffffffffffffffffffffff\n      and\n      0xffffffffffffffffffffffffffffffffffffffff\n      and\n      dup2\n      mstore\n      0x20\n      add\n      swap1\n      dup2\n      mstore\n      0x20\n      add\n      0x00\n      keccak256\n        /* \"contracts/KipuBankV3.sol\":13374:13411  s_balances[msg.sender][_tokenAddress] */\n      0x00\n        /* \"contracts/KipuBankV3.sol\":13397:13410  _tokenAddress */\n      dup4\n        /* \"contracts/KipuBankV3.sol\":13374:13411  s_balances[msg.sender][_tokenAddress] */\n      0xffffffffffffffffffffffffffffffffffffffff\n      and\n      0xffffffffffffffffffffffffffffffffffffffff\n      and\n      dup2\n      mstore\n      0x20\n      add\n      swap1\n      dup2\n      mstore\n      0x20\n      add\n      0x00\n      keccak256\n      sload\n        /* \"contracts/KipuBankV3.sol\":13363:13370  _amount */\n      dup2\n        /* \"contracts/KipuBankV3.sol\":13363:13411  _amount <= s_balances[msg.sender][_tokenAddress] */\n      gt\n      iszero\n        /* \"contracts/KipuBankV3.sol\":13439:13449  msg.sender */\n      caller\n        /* \"contracts/KipuBankV3.sol\":13451:13464  _tokenAddress */\n      dup4\n        /* \"contracts/KipuBankV3.sol\":13466:13473  _amount */\n      dup4\n        /* \"contracts/KipuBankV3.sol\":13355:13475  require(_amount <= s_balances[msg.sender][_tokenAddress], ERC20ExtractionNotAllowed(msg.sender, _tokenAddress, _amount)) */\n      swap1\n      swap2\n      swap3\n      tag_204\n      jumpi\n      mload(0x40)\n      0xb4e4601d00000000000000000000000000000000000000000000000000000000\n      dup2\n      mstore\n      0x04\n      add\n      tag_205\n      swap4\n      swap3\n      swap2\n      swap1\n      tag_198\n      jump\t// in\n    tag_205:\n      mload(0x40)\n      dup1\n      swap2\n      sub\n      swap1\n      revert\n    tag_204:\n      pop\n      pop\n      pop\n        /* \"contracts/KipuBankV3.sol\":13529:13536  _amount */\n      dup1\n        /* \"contracts/KipuBankV3.sol\":13488:13498  s_balances */\n      0x02\n        /* \"contracts/KipuBankV3.sol\":13488:13510  s_balances[msg.sender] */\n      0x00\n        /* \"contracts/KipuBankV3.sol\":13499:13509  msg.sender */\n      caller\n        /* \"contracts/KipuBankV3.sol\":13488:13510  s_balances[msg.sender] */\n      0xffffffffffffffffffffffffffffffffffffffff\n      and\n      0xffffffffffffffffffffffffffffffffffffffff\n      and\n      dup2\n      mstore\n      0x20\n      add\n      swap1\n      dup2\n      mstore\n      0x20\n      add\n      0x00\n      keccak256\n        /* \"contracts/KipuBankV3.sol\":13488:13525  s_balances[msg.sender][_tokenAddress] */\n      0x00\n        /* \"contracts/KipuBankV3.sol\":13511:13524  _tokenAddress */\n      dup5\n        /* \"contracts/KipuBankV3.sol\":13488:13525  s_balances[msg.sender][_tokenAddress] */\n      0xffffffffffffffffffffffffffffffffffffffff\n      and\n      0xffffffffffffffffffffffffffffffffffffffff\n      and\n      dup2\n      mstore\n      0x20\n      add\n      swap1\n      dup2\n      mstore\n      0x20\n      add\n      0x00\n      keccak256\n      0x00\n        /* \"contracts/KipuBankV3.sol\":13488:13536  s_balances[msg.sender][_tokenAddress] -= _amount */\n      dup3\n      dup3\n      sload\n      tag_206\n      swap2\n      swap1\n      tag_207\n      jump\t// in\n    tag_206:\n      swap3\n      pop\n      pop\n      dup2\n      swap1\n      sstore\n      pop\n        /* \"contracts/KipuBankV3.sol\":13547:13560  s_withdrawals */\n      0x04\n        /* \"contracts/KipuBankV3.sol\":13547:13572  s_withdrawals[msg.sender] */\n      0x00\n        /* \"contracts/KipuBankV3.sol\":13561:13571  msg.sender */\n      caller\n        /* \"contracts/KipuBankV3.sol\":13547:13572  s_withdrawals[msg.sender] */\n      0xffffffffffffffffffffffffffffffffffffffff\n      and\n      0xffffffffffffffffffffffffffffffffffffffff\n      and\n      dup2\n      mstore\n      0x20\n      add\n      swap1\n      dup2\n      mstore\n      0x20\n      add\n      0x00\n      keccak256\n        /* \"contracts/KipuBankV3.sol\":13547:13587  s_withdrawals[msg.sender][_tokenAddress] */\n      0x00\n        /* \"contracts/KipuBankV3.sol\":13573:13586  _tokenAddress */\n      dup4\n        /* \"contracts/KipuBankV3.sol\":13547:13587  s_withdrawals[msg.sender][_tokenAddress] */\n      0xffffffffffffffffffffffffffffffffffffffff\n      and\n      0xffffffffffffffffffffffffffffffffffffffff\n      and\n      dup2\n      mstore\n      0x20\n      add\n      swap1\n      dup2\n      mstore\n      0x20\n      add\n      0x00\n      keccak256\n      0x00\n        /* \"contracts/KipuBankV3.sol\":13547:13589  s_withdrawals[msg.sender][_tokenAddress]++ */\n      dup2\n      dup2\n      swap1\n      sload\n      swap1\n      0x0100\n      exp\n      swap1\n      div\n      0xffffffff\n      and\n      dup1\n      swap3\n      swap2\n      swap1\n      tag_208\n      swap1\n      tag_160\n      jump\t// in\n    tag_208:\n      swap2\n      swap1\n      0x0100\n      exp\n      dup2\n      sload\n      dup2\n      0xffffffff\n      mul\n      not\n      and\n      swap1\n      dup4\n      0xffffffff\n      and\n      mul\n      or\n      swap1\n      sstore\n      pop\n      pop\n        /* \"contracts/KipuBankV3.sol\":13610:13647  transferERC20(_tokenAddress, _amount) */\n      tag_209\n        /* \"contracts/KipuBankV3.sol\":13624:13637  _tokenAddress */\n      dup3\n        /* \"contracts/KipuBankV3.sol\":13639:13646  _amount */\n      dup3\n        /* \"contracts/KipuBankV3.sol\":13610:13623  transferERC20 */\n      tag_210\n        /* \"contracts/KipuBankV3.sol\":13610:13647  transferERC20(_tokenAddress, _amount) */\n      jump\t// in\n    tag_209:\n        /* \"contracts/KipuBankV3.sol\":13673:13723  ERC20Extracted(msg.sender, _tokenAddress, _amount) */\n      0xd0164496e26f9675acaea59fb065313e45d71d1d3e09d3681765773cd4aa1918\n        /* \"contracts/KipuBankV3.sol\":13688:13698  msg.sender */\n      caller\n        /* \"contracts/KipuBankV3.sol\":13700:13713  _tokenAddress */\n      dup4\n        /* \"contracts/KipuBankV3.sol\":13715:13722  _amount */\n      dup4\n        /* \"contracts/KipuBankV3.sol\":13673:13723  ERC20Extracted(msg.sender, _tokenAddress, _amount) */\n      mload(0x40)\n      tag_211\n      swap4\n      swap3\n      swap2\n      swap1\n      tag_198\n      jump\t// in\n    tag_211:\n      mload(0x40)\n      dup1\n      swap2\n      sub\n      swap1\n      log1\n        /* \"contracts/KipuBankV3.sol\":13183:13739  function withdrawERC20(address _tokenAddress, uint _amount) public {... */\n      pop\n      pop\n      jump\t// out\n        /* \"contracts/KipuBankV3.sol\":7847:8002  function getERC20Deposits(address _tokenAddress) external view returns(uint deposits_) {... */\n    tag_110:\n        /* \"contracts/KipuBankV3.sol\":7918:7932  uint deposits_ */\n      0x00\n        /* \"contracts/KipuBankV3.sol\":7957:7967  s_deposits */\n      0x03\n        /* \"contracts/KipuBankV3.sol\":7957:7979  s_deposits[msg.sender] */\n      0x00\n        /* \"contracts/KipuBankV3.sol\":7968:7978  msg.sender */\n      caller\n        /* \"contracts/KipuBankV3.sol\":7957:7979  s_deposits[msg.sender] */\n      0xffffffffffffffffffffffffffffffffffffffff\n      and\n      0xffffffffffffffffffffffffffffffffffffffff\n      and\n      dup2\n      mstore\n      0x20\n      add\n      swap1\n      dup2\n      mstore\n      0x20\n      add\n      0x00\n      keccak256\n        /* \"contracts/KipuBankV3.sol\":7957:7994  s_deposits[msg.sender][_tokenAddress] */\n      0x00\n        /* \"contracts/KipuBankV3.sol\":7980:7993  _tokenAddress */\n      dup4\n        /* \"contracts/KipuBankV3.sol\":7957:7994  s_deposits[msg.sender][_tokenAddress] */\n      0xffffffffffffffffffffffffffffffffffffffff\n      and\n      0xffffffffffffffffffffffffffffffffffffffff\n      and\n      dup2\n      mstore\n      0x20\n      add\n      swap1\n      dup2\n      mstore\n      0x20\n      add\n      0x00\n      keccak256\n      0x00\n      swap1\n      sload\n      swap1\n      0x0100\n      exp\n      swap1\n      div\n      0xffffffff\n      and\n        /* \"contracts/KipuBankV3.sol\":7945:7994  deposits_ = s_deposits[msg.sender][_tokenAddress] */\n      0xffffffff\n      and\n      swap1\n      pop\n        /* \"contracts/KipuBankV3.sol\":7847:8002  function getERC20Deposits(address _tokenAddress) external view returns(uint deposits_) {... */\n      swap2\n      swap1\n      pop\n      jump\t// out\n        /* \"contracts/KipuBankV3.sol\":7478:7630  function getERC20Balance(address _tokenAddress) external view returns(uint balance_) {... */\n    tag_115:\n        /* \"contracts/KipuBankV3.sol\":7548:7561  uint balance_ */\n      0x00\n        /* \"contracts/KipuBankV3.sol\":7585:7595  s_balances */\n      0x02\n        /* \"contracts/KipuBankV3.sol\":7585:7607  s_balances[msg.sender] */\n      0x00\n        /* \"contracts/KipuBankV3.sol\":7596:7606  msg.sender */\n      caller\n        /* \"contracts/KipuBankV3.sol\":7585:7607  s_balances[msg.sender] */\n      0xffffffffffffffffffffffffffffffffffffffff\n      and\n      0xffffffffffffffffffffffffffffffffffffffff\n      and\n      dup2\n      mstore\n      0x20\n      add\n      swap1\n      dup2\n      mstore\n      0x20\n      add\n      0x00\n      keccak256\n        /* \"contracts/KipuBankV3.sol\":7585:7622  s_balances[msg.sender][_tokenAddress] */\n      0x00\n        /* \"contracts/KipuBankV3.sol\":7608:7621  _tokenAddress */\n      dup4\n        /* \"contracts/KipuBankV3.sol\":7585:7622  s_balances[msg.sender][_tokenAddress] */\n      0xffffffffffffffffffffffffffffffffffffffff\n      and\n      0xffffffffffffffffffffffffffffffffffffffff\n      and\n      dup2\n      mstore\n      0x20\n      add\n      swap1\n      dup2\n      mstore\n      0x20\n      add\n      0x00\n      keccak256\n      sload\n        /* \"contracts/KipuBankV3.sol\":7574:7622  balance_ = s_balances[msg.sender][_tokenAddress] */\n      swap1\n      pop\n        /* \"contracts/KipuBankV3.sol\":7478:7630  function getERC20Balance(address _tokenAddress) external view returns(uint balance_) {... */\n      swap2\n      swap1\n      pop\n      jump\t// out\n        /* \"contracts/KipuBankV3.sol\":12297:12831  function withdrawEth(uint _amount) public {... */\n    tag_121:\n        /* \"contracts/KipuBankV3.sol\":12368:12369  0 */\n      0x00\n        /* \"contracts/KipuBankV3.sol\":12358:12365  _amount */\n      dup2\n        /* \"contracts/KipuBankV3.sol\":12358:12369  _amount > 0 */\n      gt\n        /* \"contracts/KipuBankV3.sol\":12392:12402  msg.sender */\n      caller\n        /* \"contracts/KipuBankV3.sol\":12404:12411  _amount */\n      dup3\n        /* \"contracts/KipuBankV3.sol\":12350:12413  require(_amount > 0, ExtractionNotAllowed(msg.sender, _amount)) */\n      swap1\n      swap2\n      tag_215\n      jumpi\n      mload(0x40)\n      0xf607410700000000000000000000000000000000000000000000000000000000\n      dup2\n      mstore\n      0x04\n      add\n      tag_216\n      swap3\n      swap2\n      swap1\n      tag_153\n      jump\t// in\n    tag_216:\n      mload(0x40)\n      dup1\n      swap2\n      sub\n      swap1\n      revert\n    tag_215:\n      pop\n      pop\n        /* \"contracts/KipuBankV3.sol\":12443:12453  s_balances */\n      0x02\n        /* \"contracts/KipuBankV3.sol\":12443:12465  s_balances[msg.sender] */\n      0x00\n        /* \"contracts/KipuBankV3.sol\":12454:12464  msg.sender */\n      caller\n        /* \"contracts/KipuBankV3.sol\":12443:12465  s_balances[msg.sender] */\n      0xffffffffffffffffffffffffffffffffffffffff\n      and\n      0xffffffffffffffffffffffffffffffffffffffff\n      and\n      dup2\n      mstore\n      0x20\n      add\n      swap1\n      dup2\n      mstore\n      0x20\n      add\n      0x00\n      keccak256\n        /* \"contracts/KipuBankV3.sol\":12443:12477  s_balances[msg.sender][address(0)] */\n      0x00\n        /* \"contracts/KipuBankV3.sol\":12474:12475  0 */\n      0x00\n        /* \"contracts/KipuBankV3.sol\":12443:12477  s_balances[msg.sender][address(0)] */\n      0xffffffffffffffffffffffffffffffffffffffff\n      and\n      0xffffffffffffffffffffffffffffffffffffffff\n      and\n      dup2\n      mstore\n      0x20\n      add\n      swap1\n      dup2\n      mstore\n      0x20\n      add\n      0x00\n      keccak256\n      sload\n        /* \"contracts/KipuBankV3.sol\":12432:12439  _amount */\n      dup2\n        /* \"contracts/KipuBankV3.sol\":12432:12477  _amount <= s_balances[msg.sender][address(0)] */\n      gt\n      iszero\n        /* \"contracts/KipuBankV3.sol\":12500:12510  msg.sender */\n      caller\n        /* \"contracts/KipuBankV3.sol\":12512:12519  _amount */\n      dup3\n        /* \"contracts/KipuBankV3.sol\":12424:12521  require(_amount <= s_balances[msg.sender][address(0)], ExtractionNotAllowed(msg.sender, _amount)) */\n      swap1\n      swap2\n      tag_217\n      jumpi\n      mload(0x40)\n      0xf607410700000000000000000000000000000000000000000000000000000000\n      dup2\n      mstore\n      0x04\n      add\n      tag_218\n      swap3\n      swap2\n      swap1\n      tag_153\n      jump\t// in\n    tag_218:\n      mload(0x40)\n      dup1\n      swap2\n      sub\n      swap1\n      revert\n    tag_217:\n      pop\n      pop\n        /* \"contracts/KipuBankV3.sol\":12551:12566  s_withdrawLimit */\n      immutable(\"0xc428c6907bdb089a99d3f8e2fb15559324b37df012d4d9c6f20b91e1c28c612e\")\n        /* \"contracts/KipuBankV3.sol\":12540:12566  _amount <= s_withdrawLimit */\n      0xffffffffffffffffffffffffffffffff\n      and\n        /* \"contracts/KipuBankV3.sol\":12540:12547  _amount */\n      dup2\n        /* \"contracts/KipuBankV3.sol\":12540:12566  _amount <= s_withdrawLimit */\n      gt\n      iszero\n        /* \"contracts/KipuBankV3.sol\":12589:12599  msg.sender */\n      caller\n        /* \"contracts/KipuBankV3.sol\":12601:12608  _amount */\n      dup3\n        /* \"contracts/KipuBankV3.sol\":12532:12610  require(_amount <= s_withdrawLimit, ExtractionNotAllowed(msg.sender, _amount)) */\n      swap1\n      swap2\n      tag_219\n      jumpi\n      mload(0x40)\n      0xf607410700000000000000000000000000000000000000000000000000000000\n      dup2\n      mstore\n      0x04\n      add\n      tag_220\n      swap3\n      swap2\n      swap1\n      tag_153\n      jump\t// in\n    tag_220:\n      mload(0x40)\n      dup1\n      swap2\n      sub\n      swap1\n      revert\n    tag_219:\n      pop\n      pop\n        /* \"contracts/KipuBankV3.sol\":12661:12668  _amount */\n      dup1\n        /* \"contracts/KipuBankV3.sol\":12623:12633  s_balances */\n      0x02\n        /* \"contracts/KipuBankV3.sol\":12623:12645  s_balances[msg.sender] */\n      0x00\n        /* \"contracts/KipuBankV3.sol\":12634:12644  msg.sender */\n      caller\n        /* \"contracts/KipuBankV3.sol\":12623:12645  s_balances[msg.sender] */\n      0xffffffffffffffffffffffffffffffffffffffff\n      and\n      0xffffffffffffffffffffffffffffffffffffffff\n      and\n      dup2\n      mstore\n      0x20\n      add\n      swap1\n      dup2\n      mstore\n      0x20\n      add\n      0x00\n      keccak256\n        /* \"contracts/KipuBankV3.sol\":12623:12657  s_balances[msg.sender][address(0)] */\n      0x00\n        /* \"contracts/KipuBankV3.sol\":12654:12655  0 */\n      0x00\n        /* \"contracts/KipuBankV3.sol\":12623:12657  s_balances[msg.sender][address(0)] */\n      0xffffffffffffffffffffffffffffffffffffffff\n      and\n      0xffffffffffffffffffffffffffffffffffffffff\n      and\n      dup2\n      mstore\n      0x20\n      add\n      swap1\n      dup2\n      mstore\n      0x20\n      add\n      0x00\n      keccak256\n      0x00\n        /* \"contracts/KipuBankV3.sol\":12623:12668  s_balances[msg.sender][address(0)] -= _amount */\n      dup3\n      dup3\n      sload\n      tag_221\n      swap2\n      swap1\n      tag_207\n      jump\t// in\n    tag_221:\n      swap3\n      pop\n      pop\n      dup2\n      swap1\n      sstore\n      pop\n        /* \"contracts/KipuBankV3.sol\":12679:12692  s_withdrawals */\n      0x04\n        /* \"contracts/KipuBankV3.sol\":12679:12704  s_withdrawals[msg.sender] */\n      0x00\n        /* \"contracts/KipuBankV3.sol\":12693:12703  msg.sender */\n      caller\n        /* \"contracts/KipuBankV3.sol\":12679:12704  s_withdrawals[msg.sender] */\n      0xffffffffffffffffffffffffffffffffffffffff\n      and\n      0xffffffffffffffffffffffffffffffffffffffff\n      and\n      dup2\n      mstore\n      0x20\n      add\n      swap1\n      dup2\n      mstore\n      0x20\n      add\n      0x00\n      keccak256\n        /* \"contracts/KipuBankV3.sol\":12679:12716  s_withdrawals[msg.sender][address(0)] */\n      0x00\n        /* \"contracts/KipuBankV3.sol\":12713:12714  0 */\n      0x00\n        /* \"contracts/KipuBankV3.sol\":12679:12716  s_withdrawals[msg.sender][address(0)] */\n      0xffffffffffffffffffffffffffffffffffffffff\n      and\n      0xffffffffffffffffffffffffffffffffffffffff\n      and\n      dup2\n      mstore\n      0x20\n      add\n      swap1\n      dup2\n      mstore\n      0x20\n      add\n      0x00\n      keccak256\n      0x00\n        /* \"contracts/KipuBankV3.sol\":12679:12718  s_withdrawals[msg.sender][address(0)]++ */\n      dup2\n      dup2\n      swap1\n      sload\n      swap1\n      0x0100\n      exp\n      swap1\n      div\n      0xffffffff\n      and\n      dup1\n      swap3\n      swap2\n      swap1\n      tag_222\n      swap1\n      tag_160\n      jump\t// in\n    tag_222:\n      swap2\n      swap1\n      0x0100\n      exp\n      dup2\n      sload\n      dup2\n      0xffffffff\n      mul\n      not\n      and\n      swap1\n      dup4\n      0xffffffff\n      and\n      mul\n      or\n      swap1\n      sstore\n      pop\n      pop\n        /* \"contracts/KipuBankV3.sol\":12739:12759  transferEth(_amount) */\n      tag_223\n        /* \"contracts/KipuBankV3.sol\":12751:12758  _amount */\n      dup2\n        /* \"contracts/KipuBankV3.sol\":12739:12750  transferEth */\n      tag_224\n        /* \"contracts/KipuBankV3.sol\":12739:12759  transferEth(_amount) */\n      jump\t// in\n    tag_223:\n        /* \"contracts/KipuBankV3.sol\":12785:12815  Extracted(msg.sender, _amount) */\n      0x69c169e5c85af54e1ca7e16608ccc812437821387924fb3353a7d053264ddaa0\n        /* \"contracts/KipuBankV3.sol\":12795:12805  msg.sender */\n      caller\n        /* \"contracts/KipuBankV3.sol\":12807:12814  _amount */\n      dup3\n        /* \"contracts/KipuBankV3.sol\":12785:12815  Extracted(msg.sender, _amount) */\n      mload(0x40)\n      tag_225\n      swap3\n      swap2\n      swap1\n      tag_153\n      jump\t// in\n    tag_225:\n      mload(0x40)\n      dup1\n      swap2\n      sub\n      swap1\n      log1\n        /* \"contracts/KipuBankV3.sol\":12297:12831  function withdrawEth(uint _amount) public {... */\n      pop\n      jump\t// out\n        /* \"contracts/KipuBankV3.sol\":10393:10565  function getERC20Balance(address user_, address _tokenAddress) external onlyOwner view returns(uint balance_) {... */\n    tag_125:\n        /* \"contracts/KipuBankV3.sol\":10488:10501  uint balance_ */\n      0x00\n        /* \"@openzeppelin/contracts/access/Ownable.sol\":1531:1544  _checkOwner() */\n      tag_227\n        /* \"@openzeppelin/contracts/access/Ownable.sol\":1531:1542  _checkOwner */\n      tag_168\n        /* \"@openzeppelin/contracts/access/Ownable.sol\":1531:1544  _checkOwner() */\n      jump\t// in\n    tag_227:\n        /* \"contracts/KipuBankV3.sol\":10525:10535  s_balances */\n      0x02\n        /* \"contracts/KipuBankV3.sol\":10525:10542  s_balances[user_] */\n      0x00\n        /* \"contracts/KipuBankV3.sol\":10536:10541  user_ */\n      dup5\n        /* \"contracts/KipuBankV3.sol\":10525:10542  s_balances[user_] */\n      0xffffffffffffffffffffffffffffffffffffffff\n      and\n      0xffffffffffffffffffffffffffffffffffffffff\n      and\n      dup2\n      mstore\n      0x20\n      add\n      swap1\n      dup2\n      mstore\n      0x20\n      add\n      0x00\n      keccak256\n        /* \"contracts/KipuBankV3.sol\":10525:10557  s_balances[user_][_tokenAddress] */\n      0x00\n        /* \"contracts/KipuBankV3.sol\":10543:10556  _tokenAddress */\n      dup4\n        /* \"contracts/KipuBankV3.sol\":10525:10557  s_balances[user_][_tokenAddress] */\n      0xffffffffffffffffffffffffffffffffffffffff\n      and\n      0xffffffffffffffffffffffffffffffffffffffff\n      and\n      dup2\n      mstore\n      0x20\n      add\n      swap1\n      dup2\n      mstore\n      0x20\n      add\n      0x00\n      keccak256\n      sload\n        /* \"contracts/KipuBankV3.sol\":10514:10557  balance_ = s_balances[user_][_tokenAddress] */\n      swap1\n      pop\n        /* \"contracts/KipuBankV3.sol\":10393:10565  function getERC20Balance(address user_, address _tokenAddress) external onlyOwner view returns(uint balance_) {... */\n      swap3\n      swap2\n      pop\n      pop\n      jump\t// out\n        /* \"contracts/KipuBankV3.sol\":1490:1526  AggregatorV3Interface public s_feeds */\n    tag_129:\n      0x01\n      0x00\n      swap1\n      sload\n      swap1\n      0x0100\n      exp\n      swap1\n      div\n      0xffffffffffffffffffffffffffffffffffffffff\n      and\n      dup2\n      jump\t// out\n        /* \"contracts/KipuBankV3.sol\":8221:8388  function getERC20Withdrawals(address _tokenAddress) external view returns(uint withdrawals_) {... */\n    tag_135:\n        /* \"contracts/KipuBankV3.sol\":8295:8312  uint withdrawals_ */\n      0x00\n        /* \"contracts/KipuBankV3.sol\":8340:8353  s_withdrawals */\n      0x04\n        /* \"contracts/KipuBankV3.sol\":8340:8365  s_withdrawals[msg.sender] */\n      0x00\n        /* \"contracts/KipuBankV3.sol\":8354:8364  msg.sender */\n      caller\n        /* \"contracts/KipuBankV3.sol\":8340:8365  s_withdrawals[msg.sender] */\n      0xffffffffffffffffffffffffffffffffffffffff\n      and\n      0xffffffffffffffffffffffffffffffffffffffff\n      and\n      dup2\n      mstore\n      0x20\n      add\n      swap1\n      dup2\n      mstore\n      0x20\n      add\n      0x00\n      keccak256\n        /* \"contracts/KipuBankV3.sol\":8340:8380  s_withdrawals[msg.sender][_tokenAddress] */\n      0x00\n        /* \"contracts/KipuBankV3.sol\":8366:8379  _tokenAddress */\n      dup4\n        /* \"contracts/KipuBankV3.sol\":8340:8380  s_withdrawals[msg.sender][_tokenAddress] */\n      0xffffffffffffffffffffffffffffffffffffffff\n      and\n      0xffffffffffffffffffffffffffffffffffffffff\n      and\n      dup2\n      mstore\n      0x20\n      add\n      swap1\n      dup2\n      mstore\n      0x20\n      add\n      0x00\n      keccak256\n      0x00\n      swap1\n      sload\n      swap1\n      0x0100\n      exp\n      swap1\n      div\n      0xffffffff\n      and\n        /* \"contracts/KipuBankV3.sol\":8325:8380  withdrawals_ = s_withdrawals[msg.sender][_tokenAddress] */\n      0xffffffff\n      and\n      swap1\n      pop\n        /* \"contracts/KipuBankV3.sol\":8221:8388  function getERC20Withdrawals(address _tokenAddress) external view returns(uint withdrawals_) {... */\n      swap2\n      swap1\n      pop\n      jump\t// out\n        /* \"contracts/KipuBankV3.sol\":6630:6775  function getBalanceInUSD() external view returns(uint balance_) {... */\n    tag_139:\n        /* \"contracts/KipuBankV3.sol\":6679:6692  uint balance_ */\n      0x00\n        /* \"contracts/KipuBankV3.sol\":6716:6767  convertEthInUSD(s_balances[msg.sender][address(0)]) */\n      tag_231\n        /* \"contracts/KipuBankV3.sol\":6732:6742  s_balances */\n      0x02\n        /* \"contracts/KipuBankV3.sol\":6732:6754  s_balances[msg.sender] */\n      0x00\n        /* \"contracts/KipuBankV3.sol\":6743:6753  msg.sender */\n      caller\n        /* \"contracts/KipuBankV3.sol\":6732:6754  s_balances[msg.sender] */\n      0xffffffffffffffffffffffffffffffffffffffff\n      and\n      0xffffffffffffffffffffffffffffffffffffffff\n      and\n      dup2\n      mstore\n      0x20\n      add\n      swap1\n      dup2\n      mstore\n      0x20\n      add\n      0x00\n      keccak256\n        /* \"contracts/KipuBankV3.sol\":6732:6766  s_balances[msg.sender][address(0)] */\n      0x00\n        /* \"contracts/KipuBankV3.sol\":6763:6764  0 */\n      0x00\n        /* \"contracts/KipuBankV3.sol\":6732:6766  s_balances[msg.sender][address(0)] */\n      0xffffffffffffffffffffffffffffffffffffffff\n      and\n      0xffffffffffffffffffffffffffffffffffffffff\n      and\n      dup2\n      mstore\n      0x20\n      add\n      swap1\n      dup2\n      mstore\n      0x20\n      add\n      0x00\n      keccak256\n      sload\n        /* \"contracts/KipuBankV3.sol\":6716:6731  convertEthInUSD */\n      tag_165\n        /* \"contracts/KipuBankV3.sol\":6716:6767  convertEthInUSD(s_balances[msg.sender][address(0)]) */\n      jump\t// in\n    tag_231:\n        /* \"contracts/KipuBankV3.sol\":6705:6767  balance_ = convertEthInUSD(s_balances[msg.sender][address(0)]) */\n      swap1\n      pop\n        /* \"contracts/KipuBankV3.sol\":6630:6775  function getBalanceInUSD() external view returns(uint balance_) {... */\n      swap1\n      jump\t// out\n        /* \"@openzeppelin/contracts/access/Ownable.sol\":2543:2758  function transferOwnership(address newOwner) public virtual onlyOwner {... */\n    tag_144:\n        /* \"@openzeppelin/contracts/access/Ownable.sol\":1531:1544  _checkOwner() */\n      tag_233\n        /* \"@openzeppelin/contracts/access/Ownable.sol\":1531:1542  _checkOwner */\n      tag_168\n        /* \"@openzeppelin/contracts/access/Ownable.sol\":1531:1544  _checkOwner() */\n      jump\t// in\n    tag_233:\n        /* \"@openzeppelin/contracts/access/Ownable.sol\":2647:2648  0 */\n      0x00\n        /* \"@openzeppelin/contracts/access/Ownable.sol\":2627:2649  newOwner == address(0) */\n      0xffffffffffffffffffffffffffffffffffffffff\n      and\n        /* \"@openzeppelin/contracts/access/Ownable.sol\":2627:2635  newOwner */\n      dup2\n        /* \"@openzeppelin/contracts/access/Ownable.sol\":2627:2649  newOwner == address(0) */\n      0xffffffffffffffffffffffffffffffffffffffff\n      and\n      sub\n        /* \"@openzeppelin/contracts/access/Ownable.sol\":2623:2714  if (newOwner == address(0)) {... */\n      tag_235\n      jumpi\n        /* \"@openzeppelin/contracts/access/Ownable.sol\":2700:2701  0 */\n      0x00\n        /* \"@openzeppelin/contracts/access/Ownable.sol\":2672:2703  OwnableInvalidOwner(address(0)) */\n      mload(0x40)\n      0x1e4fbdf700000000000000000000000000000000000000000000000000000000\n      dup2\n      mstore\n      0x04\n      add\n      tag_236\n      swap2\n      swap1\n      tag_87\n      jump\t// in\n    tag_236:\n      mload(0x40)\n      dup1\n      swap2\n      sub\n      swap1\n      revert\n        /* \"@openzeppelin/contracts/access/Ownable.sol\":2623:2714  if (newOwner == address(0)) {... */\n    tag_235:\n        /* \"@openzeppelin/contracts/access/Ownable.sol\":2723:2751  _transferOwnership(newOwner) */\n      tag_237\n        /* \"@openzeppelin/contracts/access/Ownable.sol\":2742:2750  newOwner */\n      dup2\n        /* \"@openzeppelin/contracts/access/Ownable.sol\":2723:2741  _transferOwnership */\n      tag_179\n        /* \"@openzeppelin/contracts/access/Ownable.sol\":2723:2751  _transferOwnership(newOwner) */\n      jump\t// in\n    tag_237:\n        /* \"@openzeppelin/contracts/access/Ownable.sol\":2543:2758  function transferOwnership(address newOwner) public virtual onlyOwner {... */\n      pop\n      jump\t// out\n        /* \"contracts/KipuBankV3.sol\":8729:8870  function getBalance(address user_) external onlyOwner view returns(uint balance_) {... */\n    tag_148:\n        /* \"contracts/KipuBankV3.sol\":8796:8809  uint balance_ */\n      0x00\n        /* \"@openzeppelin/contracts/access/Ownable.sol\":1531:1544  _checkOwner() */\n      tag_239\n        /* \"@openzeppelin/contracts/access/Ownable.sol\":1531:1542  _checkOwner */\n      tag_168\n        /* \"@openzeppelin/contracts/access/Ownable.sol\":1531:1544  _checkOwner() */\n      jump\t// in\n    tag_239:\n        /* \"contracts/KipuBankV3.sol\":8833:8843  s_balances */\n      0x02\n        /* \"contracts/KipuBankV3.sol\":8833:8850  s_balances[user_] */\n      0x00\n        /* \"contracts/KipuBankV3.sol\":8844:8849  user_ */\n      dup4\n        /* \"contracts/KipuBankV3.sol\":8833:8850  s_balances[user_] */\n      0xffffffffffffffffffffffffffffffffffffffff\n      and\n      0xffffffffffffffffffffffffffffffffffffffff\n      and\n      dup2\n      mstore\n      0x20\n      add\n      swap1\n      dup2\n      mstore\n      0x20\n      add\n      0x00\n      keccak256\n        /* \"contracts/KipuBankV3.sol\":8833:8862  s_balances[user_][address(0)] */\n      0x00\n        /* \"contracts/KipuBankV3.sol\":8859:8860  0 */\n      0x00\n        /* \"contracts/KipuBankV3.sol\":8833:8862  s_balances[user_][address(0)] */\n      0xffffffffffffffffffffffffffffffffffffffff\n      and\n      0xffffffffffffffffffffffffffffffffffffffff\n      and\n      dup2\n      mstore\n      0x20\n      add\n      swap1\n      dup2\n      mstore\n      0x20\n      add\n      0x00\n      keccak256\n      sload\n        /* \"contracts/KipuBankV3.sol\":8822:8862  balance_ = s_balances[user_][address(0)] */\n      swap1\n      pop\n        /* \"contracts/KipuBankV3.sol\":8729:8870  function getBalance(address user_) external onlyOwner view returns(uint balance_) {... */\n      swap2\n      swap1\n      pop\n      jump\t// out\n        /* \"contracts/KipuBankV3.sol\":13980:14159  function convertEthInUSD(uint256 _ethAmount) internal view returns (uint256 convertedAmount_) {... */\n    tag_165:\n        /* \"contracts/KipuBankV3.sol\":14048:14072  uint256 convertedAmount_ */\n      0x00\n        /* \"contracts/KipuBankV3.sol\":1396:1408  1 * 10 ** 20 */\n      0x056bc75e2d63100000\n        /* \"contracts/KipuBankV3.sol\":14118:14133  chainlinkFeed() */\n      tag_242\n        /* \"contracts/KipuBankV3.sol\":14118:14131  chainlinkFeed */\n      tag_243\n        /* \"contracts/KipuBankV3.sol\":14118:14133  chainlinkFeed() */\n      jump\t// in\n    tag_242:\n        /* \"contracts/KipuBankV3.sol\":14105:14115  _ethAmount */\n      dup4\n        /* \"contracts/KipuBankV3.sol\":14105:14133  _ethAmount * chainlinkFeed() */\n      tag_244\n      swap2\n      swap1\n      tag_245\n      jump\t// in\n    tag_244:\n        /* \"contracts/KipuBankV3.sol\":14104:14151  (_ethAmount * chainlinkFeed()) / DECIMAL_FACTOR */\n      tag_246\n      swap2\n      swap1\n      tag_247\n      jump\t// in\n    tag_246:\n        /* \"contracts/KipuBankV3.sol\":14085:14151  convertedAmount_ = (_ethAmount * chainlinkFeed()) / DECIMAL_FACTOR */\n      swap1\n      pop\n        /* \"contracts/KipuBankV3.sol\":13980:14159  function convertEthInUSD(uint256 _ethAmount) internal view returns (uint256 convertedAmount_) {... */\n      swap2\n      swap1\n      pop\n      jump\t// out\n        /* \"@openzeppelin/contracts/access/Ownable.sol\":1796:1958  function _checkOwner() internal view virtual {... */\n    tag_168:\n        /* \"@openzeppelin/contracts/access/Ownable.sol\":1866:1878  _msgSender() */\n      tag_249\n        /* \"@openzeppelin/contracts/access/Ownable.sol\":1866:1876  _msgSender */\n      tag_250\n        /* \"@openzeppelin/contracts/access/Ownable.sol\":1866:1878  _msgSender() */\n      jump\t// in\n    tag_249:\n        /* \"@openzeppelin/contracts/access/Ownable.sol\":1855:1878  owner() != _msgSender() */\n      0xffffffffffffffffffffffffffffffffffffffff\n      and\n        /* \"@openzeppelin/contracts/access/Ownable.sol\":1855:1862  owner() */\n      tag_251\n        /* \"@openzeppelin/contracts/access/Ownable.sol\":1855:1860  owner */\n      tag_85\n        /* \"@openzeppelin/contracts/access/Ownable.sol\":1855:1862  owner() */\n      jump\t// in\n    tag_251:\n        /* \"@openzeppelin/contracts/access/Ownable.sol\":1855:1878  owner() != _msgSender() */\n      0xffffffffffffffffffffffffffffffffffffffff\n      and\n      eq\n        /* \"@openzeppelin/contracts/access/Ownable.sol\":1851:1952  if (owner() != _msgSender()) {... */\n      tag_252\n      jumpi\n        /* \"@openzeppelin/contracts/access/Ownable.sol\":1928:1940  _msgSender() */\n      tag_253\n        /* \"@openzeppelin/contracts/access/Ownable.sol\":1928:1938  _msgSender */\n      tag_250\n        /* \"@openzeppelin/contracts/access/Ownable.sol\":1928:1940  _msgSender() */\n      jump\t// in\n    tag_253:\n        /* \"@openzeppelin/contracts/access/Ownable.sol\":1901:1941  OwnableUnauthorizedAccount(_msgSender()) */\n      mload(0x40)\n      0x118cdaa700000000000000000000000000000000000000000000000000000000\n      dup2\n      mstore\n      0x04\n      add\n      tag_254\n      swap2\n      swap1\n      tag_87\n      jump\t// in\n    tag_254:\n      mload(0x40)\n      dup1\n      swap2\n      sub\n      swap1\n      revert\n        /* \"@openzeppelin/contracts/access/Ownable.sol\":1851:1952  if (owner() != _msgSender()) {... */\n    tag_252:\n        /* \"@openzeppelin/contracts/access/Ownable.sol\":1796:1958  function _checkOwner() internal view virtual {... */\n      jump\t// out\n        /* \"@openzeppelin/contracts/access/Ownable.sol\":2912:3099  function _transferOwnership(address newOwner) internal virtual {... */\n    tag_179:\n        /* \"@openzeppelin/contracts/access/Ownable.sol\":2985:3001  address oldOwner */\n      0x00\n        /* \"@openzeppelin/contracts/access/Ownable.sol\":3004:3010  _owner */\n      0x00\n      0x00\n      swap1\n      sload\n      swap1\n      0x0100\n      exp\n      swap1\n      div\n      0xffffffffffffffffffffffffffffffffffffffff\n      and\n        /* \"@openzeppelin/contracts/access/Ownable.sol\":2985:3010  address oldOwner = _owner */\n      swap1\n      pop\n        /* \"@openzeppelin/contracts/access/Ownable.sol\":3029:3037  newOwner */\n      dup2\n        /* \"@openzeppelin/contracts/access/Ownable.sol\":3020:3026  _owner */\n      0x00\n      0x00\n        /* \"@openzeppelin/contracts/access/Ownable.sol\":3020:3037  _owner = newOwner */\n      0x0100\n      exp\n      dup2\n      sload\n      dup2\n      0xffffffffffffffffffffffffffffffffffffffff\n      mul\n      not\n      and\n      swap1\n      dup4\n      0xffffffffffffffffffffffffffffffffffffffff\n      and\n      mul\n      or\n      swap1\n      sstore\n      pop\n        /* \"@openzeppelin/contracts/access/Ownable.sol\":3083:3091  newOwner */\n      dup2\n        /* \"@openzeppelin/contracts/access/Ownable.sol\":3052:3092  OwnershipTransferred(oldOwner, newOwner) */\n      0xffffffffffffffffffffffffffffffffffffffff\n      and\n        /* \"@openzeppelin/contracts/access/Ownable.sol\":3073:3081  oldOwner */\n      dup2\n        /* \"@openzeppelin/contracts/access/Ownable.sol\":3052:3092  OwnershipTransferred(oldOwner, newOwner) */\n      0xffffffffffffffffffffffffffffffffffffffff\n      and\n      0x8be0079c531659141344cd1fd0a4f28419497f9722a3daafe3b4186f6b6457e0\n      mload(0x40)\n      mload(0x40)\n      dup1\n      swap2\n      sub\n      swap1\n      log3\n        /* \"@openzeppelin/contracts/access/Ownable.sol\":2975:3099  {... */\n      pop\n        /* \"@openzeppelin/contracts/access/Ownable.sol\":2912:3099  function _transferOwnership(address newOwner) internal virtual {... */\n      pop\n      jump\t// out\n        /* \"@openzeppelin/contracts/token/ERC20/utils/SafeERC20.sol\":1618:1806  function safeTransferFrom(IERC20 token, address from, address to, uint256 value) internal {... */\n    tag_200:\n        /* \"@openzeppelin/contracts/token/ERC20/utils/SafeERC20.sol\":1718:1799  _callOptionalReturn(token, abi.encodeCall(token.transferFrom, (from, to, value))) */\n      tag_257\n        /* \"@openzeppelin/contracts/token/ERC20/utils/SafeERC20.sol\":1738:1743  token */\n      dup5\n        /* \"@openzeppelin/contracts/token/ERC20/utils/SafeERC20.sol\":1760:1765  token */\n      dup6\n        /* \"@openzeppelin/contracts/token/ERC20/utils/SafeERC20.sol\":1760:1778  token.transferFrom */\n      0xffffffffffffffffffffffffffffffffffffffff\n      and\n      0x23b872dd\n        /* \"@openzeppelin/contracts/token/ERC20/utils/SafeERC20.sol\":1781:1785  from */\n      dup7\n        /* \"@openzeppelin/contracts/token/ERC20/utils/SafeERC20.sol\":1787:1789  to */\n      dup7\n        /* \"@openzeppelin/contracts/token/ERC20/utils/SafeERC20.sol\":1791:1796  value */\n      dup7\n        /* \"@openzeppelin/contracts/token/ERC20/utils/SafeERC20.sol\":1745:1798  abi.encodeCall(token.transferFrom, (from, to, value)) */\n      add(0x24, mload(0x40))\n      tag_258\n      swap4\n      swap3\n      swap2\n      swap1\n      tag_198\n      jump\t// in\n    tag_258:\n      mload(0x40)\n      0x20\n      dup2\n      dup4\n      sub\n      sub\n      dup2\n      mstore\n      swap1\n      0x40\n      mstore\n      swap2\n      pop\n      0xe0\n      shl\n      0x20\n      dup3\n      add\n      dup1\n      mload\n      0xffffffffffffffffffffffffffffffffffffffffffffffffffffffff\n      dup4\n      dup2\n      dup4\n      and\n      or\n      dup4\n      mstore\n      pop\n      pop\n      pop\n      pop\n        /* \"@openzeppelin/contracts/token/ERC20/utils/SafeERC20.sol\":1718:1737  _callOptionalReturn */\n      tag_259\n        /* \"@openzeppelin/contracts/token/ERC20/utils/SafeERC20.sol\":1718:1799  _callOptionalReturn(token, abi.encodeCall(token.transferFrom, (from, to, value))) */\n      jump\t// in\n    tag_257:\n        /* \"@openzeppelin/contracts/token/ERC20/utils/SafeERC20.sol\":1618:1806  function safeTransferFrom(IERC20 token, address from, address to, uint256 value) internal {... */\n      pop\n      pop\n      pop\n      pop\n      jump\t// out\n        /* \"contracts/KipuBankV3.sol\":15417:15578  function transferERC20(address _tokenAddress, uint _amount) private {... */\n    tag_210:\n        /* \"contracts/KipuBankV3.sol\":15496:15570  IERC20(_tokenAddress).safeTransferFrom(address(this), msg.sender, _amount) */\n      tag_261\n        /* \"contracts/KipuBankV3.sol\":15543:15547  this */\n      address\n        /* \"contracts/KipuBankV3.sol\":15550:15560  msg.sender */\n      caller\n        /* \"contracts/KipuBankV3.sol\":15562:15569  _amount */\n      dup4\n        /* \"contracts/KipuBankV3.sol\":15503:15516  _tokenAddress */\n      dup6\n        /* \"contracts/KipuBankV3.sol\":15496:15534  IERC20(_tokenAddress).safeTransferFrom */\n      0xffffffffffffffffffffffffffffffffffffffff\n      and\n      tag_200\n      swap1\n        /* \"contracts/KipuBankV3.sol\":15496:15570  IERC20(_tokenAddress).safeTransferFrom(address(this), msg.sender, _amount) */\n      swap4\n      swap3\n      swap2\n      swap1\n      0xffffffff\n      and\n      jump\t// in\n    tag_261:\n        /* \"contracts/KipuBankV3.sol\":15417:15578  function transferERC20(address _tokenAddress, uint _amount) private {... */\n      pop\n      pop\n      jump\t// out\n        /* \"contracts/KipuBankV3.sol\":14894:15109  function transferEth(uint _amount) private {... */\n    tag_224:\n        /* \"contracts/KipuBankV3.sol\":14949:14961  bool success */\n      0x00\n        /* \"contracts/KipuBankV3.sol\":14963:14985  bytes memory errorData */\n      0x00\n        /* \"contracts/KipuBankV3.sol\":14989:14999  msg.sender */\n      caller\n        /* \"contracts/KipuBankV3.sol\":14989:15004  msg.sender.call */\n      0xffffffffffffffffffffffffffffffffffffffff\n      and\n        /* \"contracts/KipuBankV3.sol\":15012:15019  _amount */\n      dup4\n        /* \"contracts/KipuBankV3.sol\":14989:15024  msg.sender.call{value: _amount}(\"\") */\n      mload(0x40)\n      tag_263\n      swap1\n      tag_264\n      jump\t// in\n    tag_263:\n      0x00\n      mload(0x40)\n      dup1\n      dup4\n      sub\n      dup2\n      dup6\n      dup8\n      gas\n      call\n      swap3\n      pop\n      pop\n      pop\n      returndatasize\n      dup1\n      0x00\n      dup2\n      eq\n      tag_267\n      jumpi\n      mload(0x40)\n      swap2\n      pop\n      and(add(returndatasize, 0x3f), not(0x1f))\n      dup3\n      add\n      0x40\n      mstore\n      returndatasize\n      dup3\n      mstore\n      returndatasize\n      0x00\n      0x20\n      dup5\n      add\n      returndatacopy\n      jump(tag_266)\n    tag_267:\n      0x60\n      swap2\n      pop\n    tag_266:\n      pop\n        /* \"contracts/KipuBankV3.sol\":14948:15024  (bool success, bytes memory errorData) = msg.sender.call{value: _amount}(\"\") */\n      swap2\n      pop\n      swap2\n      pop\n        /* \"contracts/KipuBankV3.sol\":15043:15050  success */\n      dup2\n        /* \"contracts/KipuBankV3.sol\":15071:15081  msg.sender */\n      caller\n        /* \"contracts/KipuBankV3.sol\":15082:15089  _amount */\n      dup5\n        /* \"contracts/KipuBankV3.sol\":15090:15099  errorData */\n      dup4\n        /* \"contracts/KipuBankV3.sol\":15035:15101  require(success, ExtractionReverted(msg.sender,_amount,errorData)) */\n      swap1\n      swap2\n      swap3\n      tag_268\n      jumpi\n      mload(0x40)\n      0x3fd18b8500000000000000000000000000000000000000000000000000000000\n      dup2\n      mstore\n      0x04\n      add\n      tag_269\n      swap4\n      swap3\n      swap2\n      swap1\n      tag_270\n      jump\t// in\n    tag_269:\n      mload(0x40)\n      dup1\n      swap2\n      sub\n      swap1\n      revert\n    tag_268:\n      pop\n      pop\n      pop\n        /* \"contracts/KipuBankV3.sol\":14937:15109  {... */\n      pop\n      pop\n        /* \"contracts/KipuBankV3.sol\":14894:15109  function transferEth(uint _amount) private {... */\n      pop\n      jump\t// out\n        /* \"contracts/KipuBankV3.sol\":14318:14667  function chainlinkFeed() internal view returns (uint256 ethUSDPrice_) {... */\n    tag_243:\n        /* \"contracts/KipuBankV3.sol\":14366:14386  uint256 ethUSDPrice_ */\n      0x00\n        /* \"contracts/KipuBankV3.sol\":14402:14420  int256 ethUSDPrice */\n      0x00\n        /* \"contracts/KipuBankV3.sol\":14423:14440  uint256 updatedAt */\n      0x00\n        /* \"contracts/KipuBankV3.sol\":14445:14452  s_feeds */\n      0x01\n      0x00\n      swap1\n      sload\n      swap1\n      0x0100\n      exp\n      swap1\n      div\n      0xffffffffffffffffffffffffffffffffffffffff\n      and\n        /* \"contracts/KipuBankV3.sol\":14445:14468  s_feeds.latestRoundData */\n      0xffffffffffffffffffffffffffffffffffffffff\n      and\n      0xfeaf968c\n        /* \"contracts/KipuBankV3.sol\":14445:14470  s_feeds.latestRoundData() */\n      mload(0x40)\n      dup2\n      0xffffffff\n      and\n      0xe0\n      shl\n      dup2\n      mstore\n      0x04\n      add\n      0xa0\n      mload(0x40)\n      dup1\n      dup4\n      sub\n      dup2\n      dup7\n      gas\n      staticcall\n      iszero\n      dup1\n      iszero\n      tag_273\n      jumpi\n      returndatacopy(0x00, 0x00, returndatasize)\n      revert(0x00, returndatasize)\n    tag_273:\n      pop\n      pop\n      pop\n      pop\n      mload(0x40)\n      returndatasize\n      not(0x1f)\n      0x1f\n      dup3\n      add\n      and\n      dup3\n      add\n      dup1\n      0x40\n      mstore\n      pop\n      dup2\n      add\n      swap1\n      tag_274\n      swap2\n      swap1\n      tag_275\n      jump\t// in\n    tag_274:\n        /* \"contracts/KipuBankV3.sol\":14399:14470  (, int256 ethUSDPrice,, uint256 updatedAt,) = s_feeds.latestRoundData() */\n      pop\n      swap4\n      pop\n      pop\n      swap3\n      pop\n      pop\n        /* \"contracts/KipuBankV3.sol\":14506:14507  0 */\n      0x00\n        /* \"contracts/KipuBankV3.sol\":14491:14502  ethUSDPrice */\n      dup3\n        /* \"contracts/KipuBankV3.sol\":14491:14507  ethUSDPrice != 0 */\n      sub\n        /* \"contracts/KipuBankV3.sol\":14483:14529  require(ethUSDPrice != 0, OracleCompromised()) */\n      tag_276\n      jumpi\n      mload(0x40)\n      0x144c1d9500000000000000000000000000000000000000000000000000000000\n      dup2\n      mstore\n      0x04\n      add\n      mload(0x40)\n      dup1\n      swap2\n      sub\n      swap1\n      revert\n    tag_276:\n        /* \"contracts/KipuBankV3.sol\":1278:1282  3600 */\n      0x0e10\n        /* \"contracts/KipuBankV3.sol\":14548:14596  (block.timestamp - updatedAt) > ORACLE_HEARTBEAT */\n      0xffff\n      and\n        /* \"contracts/KipuBankV3.sol\":14567:14576  updatedAt */\n      dup2\n        /* \"contracts/KipuBankV3.sol\":14549:14564  block.timestamp */\n      timestamp\n        /* \"contracts/KipuBankV3.sol\":14549:14576  block.timestamp - updatedAt */\n      tag_277\n      swap2\n      swap1\n      tag_207\n      jump\t// in\n    tag_277:\n        /* \"contracts/KipuBankV3.sol\":14548:14596  (block.timestamp - updatedAt) > ORACLE_HEARTBEAT */\n      gt\n        /* \"contracts/KipuBankV3.sol\":14540:14611  require((block.timestamp - updatedAt) > ORACLE_HEARTBEAT, StalePrice()) */\n      tag_278\n      jumpi\n      mload(0x40)\n      0x19abf40e00000000000000000000000000000000000000000000000000000000\n      dup2\n      mstore\n      0x04\n      add\n      mload(0x40)\n      dup1\n      swap2\n      sub\n      swap1\n      revert\n    tag_278:\n        /* \"contracts/KipuBankV3.sol\":14647:14658  ethUSDPrice */\n      dup2\n        /* \"contracts/KipuBankV3.sol\":14624:14659  ethUSDPrice_ = uint256(ethUSDPrice) */\n      swap3\n      pop\n        /* \"contracts/KipuBankV3.sol\":14388:14667  {... */\n      pop\n      pop\n        /* \"contracts/KipuBankV3.sol\":14318:14667  function chainlinkFeed() internal view returns (uint256 ethUSDPrice_) {... */\n      swap1\n      jump\t// out\n        /* \"@openzeppelin/contracts/utils/Context.sol\":656:752  function _msgSender() internal view virtual returns (address) {... */\n    tag_250:\n        /* \"@openzeppelin/contracts/utils/Context.sol\":709:716  address */\n      0x00\n        /* \"@openzeppelin/contracts/utils/Context.sol\":735:745  msg.sender */\n      caller\n        /* \"@openzeppelin/contracts/utils/Context.sol\":728:745  return msg.sender */\n      swap1\n      pop\n        /* \"@openzeppelin/contracts/utils/Context.sol\":656:752  function _msgSender() internal view virtual returns (address) {... */\n      swap1\n      jump\t// out\n        /* \"@openzeppelin/contracts/token/ERC20/utils/SafeERC20.sol\":8370:9090  function _callOptionalReturn(IERC20 token, bytes memory data) private {... */\n    tag_259:\n        /* \"@openzeppelin/contracts/token/ERC20/utils/SafeERC20.sol\":8450:8468  uint256 returnSize */\n      0x00\n        /* \"@openzeppelin/contracts/token/ERC20/utils/SafeERC20.sol\":8478:8497  uint256 returnValue */\n      0x00\n        /* \"@openzeppelin/contracts/token/ERC20/utils/SafeERC20.sol\":8616:8620  0x20 */\n      0x20\n        /* \"@openzeppelin/contracts/token/ERC20/utils/SafeERC20.sol\":8613:8614  0 */\n      0x00\n        /* \"@openzeppelin/contracts/token/ERC20/utils/SafeERC20.sol\":8606:8610  data */\n      dup5\n        /* \"@openzeppelin/contracts/token/ERC20/utils/SafeERC20.sol\":8600:8611  mload(data) */\n      mload\n        /* \"@openzeppelin/contracts/token/ERC20/utils/SafeERC20.sol\":8593:8597  0x20 */\n      0x20\n        /* \"@openzeppelin/contracts/token/ERC20/utils/SafeERC20.sol\":8587:8591  data */\n      dup7\n        /* \"@openzeppelin/contracts/token/ERC20/utils/SafeERC20.sol\":8583:8598  add(data, 0x20) */\n      add\n        /* \"@openzeppelin/contracts/token/ERC20/utils/SafeERC20.sol\":8580:8581  0 */\n      0x00\n        /* \"@openzeppelin/contracts/token/ERC20/utils/SafeERC20.sol\":8573:8578  token */\n      dup9\n        /* \"@openzeppelin/contracts/token/ERC20/utils/SafeERC20.sol\":8566:8571  gas() */\n      gas\n        /* \"@openzeppelin/contracts/token/ERC20/utils/SafeERC20.sol\":8561:8621  call(gas(), token, 0, add(data, 0x20), mload(data), 0, 0x20) */\n      call\n        /* \"@openzeppelin/contracts/token/ERC20/utils/SafeERC20.sol\":8673:8680  success */\n      dup1\n        /* \"@openzeppelin/contracts/token/ERC20/utils/SafeERC20.sol\":8663:8839  if iszero(success) {... */\n      tag_281\n      jumpi\n        /* \"@openzeppelin/contracts/token/ERC20/utils/SafeERC20.sol\":8717:8721  0x40 */\n      0x40\n        /* \"@openzeppelin/contracts/token/ERC20/utils/SafeERC20.sol\":8711:8722  mload(0x40) */\n      mload\n        /* \"@openzeppelin/contracts/token/ERC20/utils/SafeERC20.sol\":8762:8778  returndatasize() */\n      returndatasize\n        /* \"@openzeppelin/contracts/token/ERC20/utils/SafeERC20.sol\":8759:8760  0 */\n      0x00\n        /* \"@openzeppelin/contracts/token/ERC20/utils/SafeERC20.sol\":8754:8757  ptr */\n      dup3\n        /* \"@openzeppelin/contracts/token/ERC20/utils/SafeERC20.sol\":8739:8779  returndatacopy(ptr, 0, returndatasize()) */\n      returndatacopy\n        /* \"@openzeppelin/contracts/token/ERC20/utils/SafeERC20.sol\":8808:8824  returndatasize() */\n      returndatasize\n        /* \"@openzeppelin/contracts/token/ERC20/utils/SafeERC20.sol\":8803:8806  ptr */\n      dup2\n        /* \"@openzeppelin/contracts/token/ERC20/utils/SafeERC20.sol\":8796:8825  revert(ptr, returndatasize()) */\n      revert\n        /* \"@openzeppelin/contracts/token/ERC20/utils/SafeERC20.sol\":8663:8839  if iszero(success) {... */\n    tag_281:\n        /* \"@openzeppelin/contracts/token/ERC20/utils/SafeERC20.sol\":8866:8882  returndatasize() */\n      returndatasize\n        /* \"@openzeppelin/contracts/token/ERC20/utils/SafeERC20.sol\":8852:8882  returnSize := returndatasize() */\n      swap3\n      pop\n        /* \"@openzeppelin/contracts/token/ERC20/utils/SafeERC20.sol\":8916:8917  0 */\n      0x00\n        /* \"@openzeppelin/contracts/token/ERC20/utils/SafeERC20.sol\":8910:8918  mload(0) */\n      mload\n        /* \"@openzeppelin/contracts/token/ERC20/utils/SafeERC20.sol\":8895:8918  returnValue := mload(0) */\n      swap2\n      pop\n        /* \"@openzeppelin/contracts/token/ERC20/utils/SafeERC20.sol\":8532:8928  {... */\n      pop\n        /* \"@openzeppelin/contracts/token/ERC20/utils/SafeERC20.sol\":8956:8957  0 */\n      0x00\n        /* \"@openzeppelin/contracts/token/ERC20/utils/SafeERC20.sol\":8942:8952  returnSize */\n      dup3\n        /* \"@openzeppelin/contracts/token/ERC20/utils/SafeERC20.sol\":8942:8957  returnSize == 0 */\n      eq\n        /* \"@openzeppelin/contracts/token/ERC20/utils/SafeERC20.sol\":8942:9010  returnSize == 0 ? address(token).code.length == 0 : returnValue != 1 */\n      tag_282\n      jumpi\n        /* \"@openzeppelin/contracts/token/ERC20/utils/SafeERC20.sol\":9009:9010  1 */\n      0x01\n        /* \"@openzeppelin/contracts/token/ERC20/utils/SafeERC20.sol\":8994:9005  returnValue */\n      dup2\n        /* \"@openzeppelin/contracts/token/ERC20/utils/SafeERC20.sol\":8994:9010  returnValue != 1 */\n      eq\n      iszero\n        /* \"@openzeppelin/contracts/token/ERC20/utils/SafeERC20.sol\":8942:9010  returnSize == 0 ? address(token).code.length == 0 : returnValue != 1 */\n      jump(tag_283)\n    tag_282:\n        /* \"@openzeppelin/contracts/token/ERC20/utils/SafeERC20.sol\":8990:8991  0 */\n      0x00\n        /* \"@openzeppelin/contracts/token/ERC20/utils/SafeERC20.sol\":8968:8973  token */\n      dup5\n        /* \"@openzeppelin/contracts/token/ERC20/utils/SafeERC20.sol\":8960:8986  address(token).code.length */\n      0xffffffffffffffffffffffffffffffffffffffff\n      and\n      extcodesize\n        /* \"@openzeppelin/contracts/token/ERC20/utils/SafeERC20.sol\":8960:8991  address(token).code.length == 0 */\n      eq\n        /* \"@openzeppelin/contracts/token/ERC20/utils/SafeERC20.sol\":8942:9010  returnSize == 0 ? address(token).code.length == 0 : returnValue != 1 */\n    tag_283:\n        /* \"@openzeppelin/contracts/token/ERC20/utils/SafeERC20.sol\":8938:9084  if (returnSize == 0 ? address(token).code.length == 0 : returnValue != 1) {... */\n      iszero\n      tag_284\n      jumpi\n        /* \"@openzeppelin/contracts/token/ERC20/utils/SafeERC20.sol\":9066:9071  token */\n      dup4\n        /* \"@openzeppelin/contracts/token/ERC20/utils/SafeERC20.sol\":9033:9073  SafeERC20FailedOperation(address(token)) */\n      mload(0x40)\n      0x5274afe700000000000000000000000000000000000000000000000000000000\n      dup2\n      mstore\n      0x04\n      add\n      tag_285\n      swap2\n      swap1\n      tag_87\n      jump\t// in\n    tag_285:\n      mload(0x40)\n      dup1\n      swap2\n      sub\n      swap1\n      revert\n        /* \"@openzeppelin/contracts/token/ERC20/utils/SafeERC20.sol\":8938:9084  if (returnSize == 0 ? address(token).code.length == 0 : returnValue != 1) {... */\n    tag_284:\n        /* \"@openzeppelin/contracts/token/ERC20/utils/SafeERC20.sol\":8440:9090  {... */\n      pop\n      pop\n        /* \"@openzeppelin/contracts/token/ERC20/utils/SafeERC20.sol\":8370:9090  function _callOptionalReturn(IERC20 token, bytes memory data) private {... */\n      pop\n      pop\n      jump\t// out\n        /* \"#utility.yul\":7:84   */\n    tag_286:\n        /* \"#utility.yul\":44:51   */\n      0x00\n        /* \"#utility.yul\":73:78   */\n      dup2\n        /* \"#utility.yul\":62:78   */\n      swap1\n      pop\n        /* \"#utility.yul\":7:84   */\n      swap2\n      swap1\n      pop\n      jump\t// out\n        /* \"#utility.yul\":90:208   */\n    tag_287:\n        /* \"#utility.yul\":177:201   */\n      tag_326\n        /* \"#utility.yul\":195:200   */\n      dup2\n        /* \"#utility.yul\":177:201   */\n      tag_286\n      jump\t// in\n    tag_326:\n        /* \"#utility.yul\":172:175   */\n      dup3\n        /* \"#utility.yul\":165:202   */\n      mstore\n        /* \"#utility.yul\":90:208   */\n      pop\n      pop\n      jump\t// out\n        /* \"#utility.yul\":214:436   */\n    tag_40:\n        /* \"#utility.yul\":307:311   */\n      0x00\n        /* \"#utility.yul\":345:347   */\n      0x20\n        /* \"#utility.yul\":334:343   */\n      dup3\n        /* \"#utility.yul\":330:348   */\n      add\n        /* \"#utility.yul\":322:348   */\n      swap1\n      pop\n        /* \"#utility.yul\":358:429   */\n      tag_328\n        /* \"#utility.yul\":426:427   */\n      0x00\n        /* \"#utility.yul\":415:424   */\n      dup4\n        /* \"#utility.yul\":411:428   */\n      add\n        /* \"#utility.yul\":402:408   */\n      dup5\n        /* \"#utility.yul\":358:429   */\n      tag_287\n      jump\t// in\n    tag_328:\n        /* \"#utility.yul\":214:436   */\n      swap3\n      swap2\n      pop\n      pop\n      jump\t// out\n        /* \"#utility.yul\":523:640   */\n    tag_289:\n        /* \"#utility.yul\":632:633   */\n      0x00\n        /* \"#utility.yul\":629:630   */\n      0x00\n        /* \"#utility.yul\":622:634   */\n      revert\n        /* \"#utility.yul\":769:895   */\n    tag_291:\n        /* \"#utility.yul\":806:813   */\n      0x00\n        /* \"#utility.yul\":846:888   */\n      0xffffffffffffffffffffffffffffffffffffffff\n        /* \"#utility.yul\":839:844   */\n      dup3\n        /* \"#utility.yul\":835:889   */\n      and\n        /* \"#utility.yul\":824:889   */\n      swap1\n      pop\n        /* \"#utility.yul\":769:895   */\n      swap2\n      swap1\n      pop\n      jump\t// out\n        /* \"#utility.yul\":901:997   */\n    tag_292:\n        /* \"#utility.yul\":938:945   */\n      0x00\n        /* \"#utility.yul\":967:991   */\n      tag_334\n        /* \"#utility.yul\":985:990   */\n      dup3\n        /* \"#utility.yul\":967:991   */\n      tag_291\n      jump\t// in\n    tag_334:\n        /* \"#utility.yul\":956:991   */\n      swap1\n      pop\n        /* \"#utility.yul\":901:997   */\n      swap2\n      swap1\n      pop\n      jump\t// out\n        /* \"#utility.yul\":1003:1125   */\n    tag_293:\n        /* \"#utility.yul\":1076:1100   */\n      tag_336\n        /* \"#utility.yul\":1094:1099   */\n      dup2\n        /* \"#utility.yul\":1076:1100   */\n      tag_292\n      jump\t// in\n    tag_336:\n        /* \"#utility.yul\":1069:1074   */\n      dup2\n        /* \"#utility.yul\":1066:1101   */\n      eq\n        /* \"#utility.yul\":1056:1119   */\n      tag_337\n      jumpi\n        /* \"#utility.yul\":1115:1116   */\n      0x00\n        /* \"#utility.yul\":1112:1113   */\n      0x00\n        /* \"#utility.yul\":1105:1117   */\n      revert\n        /* \"#utility.yul\":1056:1119   */\n    tag_337:\n        /* \"#utility.yul\":1003:1125   */\n      pop\n      jump\t// out\n        /* \"#utility.yul\":1131:1270   */\n    tag_294:\n        /* \"#utility.yul\":1177:1182   */\n      0x00\n        /* \"#utility.yul\":1215:1221   */\n      dup2\n        /* \"#utility.yul\":1202:1222   */\n      calldataload\n        /* \"#utility.yul\":1193:1222   */\n      swap1\n      pop\n        /* \"#utility.yul\":1231:1264   */\n      tag_339\n        /* \"#utility.yul\":1258:1263   */\n      dup2\n        /* \"#utility.yul\":1231:1264   */\n      tag_293\n      jump\t// in\n    tag_339:\n        /* \"#utility.yul\":1131:1270   */\n      swap3\n      swap2\n      pop\n      pop\n      jump\t// out\n        /* \"#utility.yul\":1276:1605   */\n    tag_44:\n        /* \"#utility.yul\":1335:1341   */\n      0x00\n        /* \"#utility.yul\":1384:1386   */\n      0x20\n        /* \"#utility.yul\":1372:1381   */\n      dup3\n        /* \"#utility.yul\":1363:1370   */\n      dup5\n        /* \"#utility.yul\":1359:1382   */\n      sub\n        /* \"#utility.yul\":1355:1387   */\n      slt\n        /* \"#utility.yul\":1352:1471   */\n      iszero\n      tag_341\n      jumpi\n        /* \"#utility.yul\":1390:1469   */\n      tag_342\n      tag_289\n      jump\t// in\n    tag_342:\n        /* \"#utility.yul\":1352:1471   */\n    tag_341:\n        /* \"#utility.yul\":1510:1511   */\n      0x00\n        /* \"#utility.yul\":1535:1588   */\n      tag_343\n        /* \"#utility.yul\":1580:1587   */\n      dup5\n        /* \"#utility.yul\":1571:1577   */\n      dup3\n        /* \"#utility.yul\":1560:1569   */\n      dup6\n        /* \"#utility.yul\":1556:1578   */\n      add\n        /* \"#utility.yul\":1535:1588   */\n      tag_294\n      jump\t// in\n    tag_343:\n        /* \"#utility.yul\":1525:1588   */\n      swap2\n      pop\n        /* \"#utility.yul\":1481:1598   */\n      pop\n        /* \"#utility.yul\":1276:1605   */\n      swap3\n      swap2\n      pop\n      pop\n      jump\t// out\n        /* \"#utility.yul\":1611:2085   */\n    tag_50:\n        /* \"#utility.yul\":1679:1685   */\n      0x00\n        /* \"#utility.yul\":1687:1693   */\n      0x00\n        /* \"#utility.yul\":1736:1738   */\n      0x40\n        /* \"#utility.yul\":1724:1733   */\n      dup4\n        /* \"#utility.yul\":1715:1722   */\n      dup6\n        /* \"#utility.yul\":1711:1734   */\n      sub\n        /* \"#utility.yul\":1707:1739   */\n      slt\n        /* \"#utility.yul\":1704:1823   */\n      iszero\n      tag_345\n      jumpi\n        /* \"#utility.yul\":1742:1821   */\n      tag_346\n      tag_289\n      jump\t// in\n    tag_346:\n        /* \"#utility.yul\":1704:1823   */\n    tag_345:\n        /* \"#utility.yul\":1862:1863   */\n      0x00\n        /* \"#utility.yul\":1887:1940   */\n      tag_347\n        /* \"#utility.yul\":1932:1939   */\n      dup6\n        /* \"#utility.yul\":1923:1929   */\n      dup3\n        /* \"#utility.yul\":1912:1921   */\n      dup7\n        /* \"#utility.yul\":1908:1930   */\n      add\n        /* \"#utility.yul\":1887:1940   */\n      tag_294\n      jump\t// in\n    tag_347:\n        /* \"#utility.yul\":1877:1940   */\n      swap3\n      pop\n        /* \"#utility.yul\":1833:1950   */\n      pop\n        /* \"#utility.yul\":1989:1991   */\n      0x20\n        /* \"#utility.yul\":2015:2068   */\n      tag_348\n        /* \"#utility.yul\":2060:2067   */\n      dup6\n        /* \"#utility.yul\":2051:2057   */\n      dup3\n        /* \"#utility.yul\":2040:2049   */\n      dup7\n        /* \"#utility.yul\":2036:2058   */\n      add\n        /* \"#utility.yul\":2015:2068   */\n      tag_294\n      jump\t// in\n    tag_348:\n        /* \"#utility.yul\":2005:2068   */\n      swap2\n      pop\n        /* \"#utility.yul\":1960:2078   */\n      pop\n        /* \"#utility.yul\":1611:2085   */\n      swap3\n      pop\n      swap3\n      swap1\n      pop\n      jump\t// out\n        /* \"#utility.yul\":2091:2209   */\n    tag_295:\n        /* \"#utility.yul\":2128:2135   */\n      0x00\n        /* \"#utility.yul\":2168:2202   */\n      0xffffffffffffffffffffffffffffffff\n        /* \"#utility.yul\":2161:2166   */\n      dup3\n        /* \"#utility.yul\":2157:2203   */\n      and\n        /* \"#utility.yul\":2146:2203   */\n      swap1\n      pop\n        /* \"#utility.yul\":2091:2209   */\n      swap2\n      swap1\n      pop\n      jump\t// out\n        /* \"#utility.yul\":2215:2333   */\n    tag_296:\n        /* \"#utility.yul\":2302:2326   */\n      tag_351\n        /* \"#utility.yul\":2320:2325   */\n      dup2\n        /* \"#utility.yul\":2302:2326   */\n      tag_295\n      jump\t// in\n    tag_351:\n        /* \"#utility.yul\":2297:2300   */\n      dup3\n        /* \"#utility.yul\":2290:2327   */\n      mstore\n        /* \"#utility.yul\":2215:2333   */\n      pop\n      pop\n      jump\t// out\n        /* \"#utility.yul\":2339:2561   */\n    tag_78:\n        /* \"#utility.yul\":2432:2436   */\n      0x00\n        /* \"#utility.yul\":2470:2472   */\n      0x20\n        /* \"#utility.yul\":2459:2468   */\n      dup3\n        /* \"#utility.yul\":2455:2473   */\n      add\n        /* \"#utility.yul\":2447:2473   */\n      swap1\n      pop\n        /* \"#utility.yul\":2483:2554   */\n      tag_353\n        /* \"#utility.yul\":2551:2552   */\n      0x00\n        /* \"#utility.yul\":2540:2549   */\n      dup4\n        /* \"#utility.yul\":2536:2553   */\n      add\n        /* \"#utility.yul\":2527:2533   */\n      dup5\n        /* \"#utility.yul\":2483:2554   */\n      tag_296\n      jump\t// in\n    tag_353:\n        /* \"#utility.yul\":2339:2561   */\n      swap3\n      swap2\n      pop\n      pop\n      jump\t// out\n        /* \"#utility.yul\":2567:2685   */\n    tag_297:\n        /* \"#utility.yul\":2654:2678   */\n      tag_355\n        /* \"#utility.yul\":2672:2677   */\n      dup2\n        /* \"#utility.yul\":2654:2678   */\n      tag_292\n      jump\t// in\n    tag_355:\n        /* \"#utility.yul\":2649:2652   */\n      dup3\n        /* \"#utility.yul\":2642:2679   */\n      mstore\n        /* \"#utility.yul\":2567:2685   */\n      pop\n      pop\n      jump\t// out\n        /* \"#utility.yul\":2691:2913   */\n    tag_87:\n        /* \"#utility.yul\":2784:2788   */\n      0x00\n        /* \"#utility.yul\":2822:2824   */\n      0x20\n        /* \"#utility.yul\":2811:2820   */\n      dup3\n        /* \"#utility.yul\":2807:2825   */\n      add\n        /* \"#utility.yul\":2799:2825   */\n      swap1\n      pop\n        /* \"#utility.yul\":2835:2906   */\n      tag_357\n        /* \"#utility.yul\":2903:2904   */\n      0x00\n        /* \"#utility.yul\":2892:2901   */\n      dup4\n        /* \"#utility.yul\":2888:2905   */\n      add\n        /* \"#utility.yul\":2879:2885   */\n      dup5\n        /* \"#utility.yul\":2835:2906   */\n      tag_297\n      jump\t// in\n    tag_357:\n        /* \"#utility.yul\":2691:2913   */\n      swap3\n      swap2\n      pop\n      pop\n      jump\t// out\n        /* \"#utility.yul\":2919:3041   */\n    tag_298:\n        /* \"#utility.yul\":2992:3016   */\n      tag_359\n        /* \"#utility.yul\":3010:3015   */\n      dup2\n        /* \"#utility.yul\":2992:3016   */\n      tag_286\n      jump\t// in\n    tag_359:\n        /* \"#utility.yul\":2985:2990   */\n      dup2\n        /* \"#utility.yul\":2982:3017   */\n      eq\n        /* \"#utility.yul\":2972:3035   */\n      tag_360\n      jumpi\n        /* \"#utility.yul\":3031:3032   */\n      0x00\n        /* \"#utility.yul\":3028:3029   */\n      0x00\n        /* \"#utility.yul\":3021:3033   */\n      revert\n        /* \"#utility.yul\":2972:3035   */\n    tag_360:\n        /* \"#utility.yul\":2919:3041   */\n      pop\n      jump\t// out\n        /* \"#utility.yul\":3047:3186   */\n    tag_299:\n        /* \"#utility.yul\":3093:3098   */\n      0x00\n        /* \"#utility.yul\":3131:3137   */\n      dup2\n        /* \"#utility.yul\":3118:3138   */\n      calldataload\n        /* \"#utility.yul\":3109:3138   */\n      swap1\n      pop\n        /* \"#utility.yul\":3147:3180   */\n      tag_362\n        /* \"#utility.yul\":3174:3179   */\n      dup2\n        /* \"#utility.yul\":3147:3180   */\n      tag_298\n      jump\t// in\n    tag_362:\n        /* \"#utility.yul\":3047:3186   */\n      swap3\n      swap2\n      pop\n      pop\n      jump\t// out\n        /* \"#utility.yul\":3192:3666   */\n    tag_101:\n        /* \"#utility.yul\":3260:3266   */\n      0x00\n        /* \"#utility.yul\":3268:3274   */\n      0x00\n        /* \"#utility.yul\":3317:3319   */\n      0x40\n        /* \"#utility.yul\":3305:3314   */\n      dup4\n        /* \"#utility.yul\":3296:3303   */\n      dup6\n        /* \"#utility.yul\":3292:3315   */\n      sub\n        /* \"#utility.yul\":3288:3320   */\n      slt\n        /* \"#utility.yul\":3285:3404   */\n      iszero\n      tag_364\n      jumpi\n        /* \"#utility.yul\":3323:3402   */\n      tag_365\n      tag_289\n      jump\t// in\n    tag_365:\n        /* \"#utility.yul\":3285:3404   */\n    tag_364:\n        /* \"#utility.yul\":3443:3444   */\n      0x00\n        /* \"#utility.yul\":3468:3521   */\n      tag_366\n        /* \"#utility.yul\":3513:3520   */\n      dup6\n        /* \"#utility.yul\":3504:3510   */\n      dup3\n        /* \"#utility.yul\":3493:3502   */\n      dup7\n        /* \"#utility.yul\":3489:3511   */\n      add\n        /* \"#utility.yul\":3468:3521   */\n      tag_294\n      jump\t// in\n    tag_366:\n        /* \"#utility.yul\":3458:3521   */\n      swap3\n      pop\n        /* \"#utility.yul\":3414:3531   */\n      pop\n        /* \"#utility.yul\":3570:3572   */\n      0x20\n        /* \"#utility.yul\":3596:3649   */\n      tag_367\n        /* \"#utility.yul\":3641:3648   */\n      dup6\n        /* \"#utility.yul\":3632:3638   */\n      dup3\n        /* \"#utility.yul\":3621:3630   */\n      dup7\n        /* \"#utility.yul\":3617:3639   */\n      add\n        /* \"#utility.yul\":3596:3649   */\n      tag_299\n      jump\t// in\n    tag_367:\n        /* \"#utility.yul\":3586:3649   */\n      swap2\n      pop\n        /* \"#utility.yul\":3541:3659   */\n      pop\n        /* \"#utility.yul\":3192:3666   */\n      swap3\n      pop\n      swap3\n      swap1\n      pop\n      jump\t// out\n        /* \"#utility.yul\":3672:4001   */\n    tag_120:\n        /* \"#utility.yul\":3731:3737   */\n      0x00\n        /* \"#utility.yul\":3780:3782   */\n      0x20\n        /* \"#utility.yul\":3768:3777   */\n      dup3\n        /* \"#utility.yul\":3759:3766   */\n      dup5\n        /* \"#utility.yul\":3755:3778   */\n      sub\n        /* \"#utility.yul\":3751:3783   */\n      slt\n        /* \"#utility.yul\":3748:3867   */\n      iszero\n      tag_369\n      jumpi\n        /* \"#utility.yul\":3786:3865   */\n      tag_370\n      tag_289\n      jump\t// in\n    tag_370:\n        /* \"#utility.yul\":3748:3867   */\n    tag_369:\n        /* \"#utility.yul\":3906:3907   */\n      0x00\n        /* \"#utility.yul\":3931:3984   */\n      tag_371\n        /* \"#utility.yul\":3976:3983   */\n      dup5\n        /* \"#utility.yul\":3967:3973   */\n      dup3\n        /* \"#utility.yul\":3956:3965   */\n      dup6\n        /* \"#utility.yul\":3952:3974   */\n      add\n        /* \"#utility.yul\":3931:3984   */\n      tag_299\n      jump\t// in\n    tag_371:\n        /* \"#utility.yul\":3921:3984   */\n      swap2\n      pop\n        /* \"#utility.yul\":3877:3994   */\n      pop\n        /* \"#utility.yul\":3672:4001   */\n      swap3\n      swap2\n      pop\n      pop\n      jump\t// out\n        /* \"#utility.yul\":4007:4067   */\n    tag_300:\n        /* \"#utility.yul\":4035:4038   */\n      0x00\n        /* \"#utility.yul\":4056:4061   */\n      dup2\n        /* \"#utility.yul\":4049:4061   */\n      swap1\n      pop\n        /* \"#utility.yul\":4007:4067   */\n      swap2\n      swap1\n      pop\n      jump\t// out\n        /* \"#utility.yul\":4073:4215   */\n    tag_301:\n        /* \"#utility.yul\":4123:4132   */\n      0x00\n        /* \"#utility.yul\":4156:4209   */\n      tag_374\n        /* \"#utility.yul\":4174:4208   */\n      tag_375\n        /* \"#utility.yul\":4183:4207   */\n      tag_376\n        /* \"#utility.yul\":4201:4206   */\n      dup5\n        /* \"#utility.yul\":4183:4207   */\n      tag_291\n      jump\t// in\n    tag_376:\n        /* \"#utility.yul\":4174:4208   */\n      tag_300\n      jump\t// in\n    tag_375:\n        /* \"#utility.yul\":4156:4209   */\n      tag_291\n      jump\t// in\n    tag_374:\n        /* \"#utility.yul\":4143:4209   */\n      swap1\n      pop\n        /* \"#utility.yul\":4073:4215   */\n      swap2\n      swap1\n      pop\n      jump\t// out\n        /* \"#utility.yul\":4221:4347   */\n    tag_302:\n        /* \"#utility.yul\":4271:4280   */\n      0x00\n        /* \"#utility.yul\":4304:4341   */\n      tag_378\n        /* \"#utility.yul\":4335:4340   */\n      dup3\n        /* \"#utility.yul\":4304:4341   */\n      tag_301\n      jump\t// in\n    tag_378:\n        /* \"#utility.yul\":4291:4341   */\n      swap1\n      pop\n        /* \"#utility.yul\":4221:4347   */\n      swap2\n      swap1\n      pop\n      jump\t// out\n        /* \"#utility.yul\":4353:4507   */\n    tag_303:\n        /* \"#utility.yul\":4431:4440   */\n      0x00\n        /* \"#utility.yul\":4464:4501   */\n      tag_380\n        /* \"#utility.yul\":4495:4500   */\n      dup3\n        /* \"#utility.yul\":4464:4501   */\n      tag_302\n      jump\t// in\n    tag_380:\n        /* \"#utility.yul\":4451:4501   */\n      swap1\n      pop\n        /* \"#utility.yul\":4353:4507   */\n      swap2\n      swap1\n      pop\n      jump\t// out\n        /* \"#utility.yul\":4513:4700   */\n    tag_304:\n        /* \"#utility.yul\":4628:4693   */\n      tag_382\n        /* \"#utility.yul\":4687:4692   */\n      dup2\n        /* \"#utility.yul\":4628:4693   */\n      tag_303\n      jump\t// in\n    tag_382:\n        /* \"#utility.yul\":4623:4626   */\n      dup3\n        /* \"#utility.yul\":4616:4694   */\n      mstore\n        /* \"#utility.yul\":4513:4700   */\n      pop\n      pop\n      jump\t// out\n        /* \"#utility.yul\":4706:4984   */\n    tag_131:\n        /* \"#utility.yul\":4827:4831   */\n      0x00\n        /* \"#utility.yul\":4865:4867   */\n      0x20\n        /* \"#utility.yul\":4854:4863   */\n      dup3\n        /* \"#utility.yul\":4850:4868   */\n      add\n        /* \"#utility.yul\":4842:4868   */\n      swap1\n      pop\n        /* \"#utility.yul\":4878:4977   */\n      tag_384\n        /* \"#utility.yul\":4974:4975   */\n      0x00\n        /* \"#utility.yul\":4963:4972   */\n      dup4\n        /* \"#utility.yul\":4959:4976   */\n      add\n        /* \"#utility.yul\":4950:4956   */\n      dup5\n        /* \"#utility.yul\":4878:4977   */\n      tag_304\n      jump\t// in\n    tag_384:\n        /* \"#utility.yul\":4706:4984   */\n      swap3\n      swap2\n      pop\n      pop\n      jump\t// out\n        /* \"#utility.yul\":4990:5322   */\n    tag_153:\n        /* \"#utility.yul\":5111:5115   */\n      0x00\n        /* \"#utility.yul\":5149:5151   */\n      0x40\n        /* \"#utility.yul\":5138:5147   */\n      dup3\n        /* \"#utility.yul\":5134:5152   */\n      add\n        /* \"#utility.yul\":5126:5152   */\n      swap1\n      pop\n        /* \"#utility.yul\":5162:5233   */\n      tag_386\n        /* \"#utility.yul\":5230:5231   */\n      0x00\n        /* \"#utility.yul\":5219:5228   */\n      dup4\n        /* \"#utility.yul\":5215:5232   */\n      add\n        /* \"#utility.yul\":5206:5212   */\n      dup6\n        /* \"#utility.yul\":5162:5233   */\n      tag_297\n      jump\t// in\n    tag_386:\n        /* \"#utility.yul\":5243:5315   */\n      tag_387\n        /* \"#utility.yul\":5311:5313   */\n      0x20\n        /* \"#utility.yul\":5300:5309   */\n      dup4\n        /* \"#utility.yul\":5296:5314   */\n      add\n        /* \"#utility.yul\":5287:5293   */\n      dup5\n        /* \"#utility.yul\":5243:5315   */\n      tag_287\n      jump\t// in\n    tag_387:\n        /* \"#utility.yul\":4990:5322   */\n      swap4\n      swap3\n      pop\n      pop\n      pop\n      jump\t// out\n        /* \"#utility.yul\":5328:5508   */\n    tag_305:\n        /* \"#utility.yul\":5376:5453   */\n      0x4e487b7100000000000000000000000000000000000000000000000000000000\n        /* \"#utility.yul\":5373:5374   */\n      0x00\n        /* \"#utility.yul\":5366:5454   */\n      mstore\n        /* \"#utility.yul\":5473:5477   */\n      0x11\n        /* \"#utility.yul\":5470:5471   */\n      0x04\n        /* \"#utility.yul\":5463:5478   */\n      mstore\n        /* \"#utility.yul\":5497:5501   */\n      0x24\n        /* \"#utility.yul\":5494:5495   */\n      0x00\n        /* \"#utility.yul\":5487:5502   */\n      revert\n        /* \"#utility.yul\":5514:5705   */\n    tag_155:\n        /* \"#utility.yul\":5554:5557   */\n      0x00\n        /* \"#utility.yul\":5573:5593   */\n      tag_390\n        /* \"#utility.yul\":5591:5592   */\n      dup3\n        /* \"#utility.yul\":5573:5593   */\n      tag_286\n      jump\t// in\n    tag_390:\n        /* \"#utility.yul\":5568:5593   */\n      swap2\n      pop\n        /* \"#utility.yul\":5607:5627   */\n      tag_391\n        /* \"#utility.yul\":5625:5626   */\n      dup4\n        /* \"#utility.yul\":5607:5627   */\n      tag_286\n      jump\t// in\n    tag_391:\n        /* \"#utility.yul\":5602:5627   */\n      swap3\n      pop\n        /* \"#utility.yul\":5650:5651   */\n      dup3\n        /* \"#utility.yul\":5647:5648   */\n      dup3\n        /* \"#utility.yul\":5643:5652   */\n      add\n        /* \"#utility.yul\":5636:5652   */\n      swap1\n      pop\n        /* \"#utility.yul\":5671:5674   */\n      dup1\n        /* \"#utility.yul\":5668:5669   */\n      dup3\n        /* \"#utility.yul\":5665:5675   */\n      gt\n        /* \"#utility.yul\":5662:5698   */\n      iszero\n      tag_392\n      jumpi\n        /* \"#utility.yul\":5678:5696   */\n      tag_393\n      tag_305\n      jump\t// in\n    tag_393:\n        /* \"#utility.yul\":5662:5698   */\n    tag_392:\n        /* \"#utility.yul\":5514:5705   */\n      swap3\n      swap2\n      pop\n      pop\n      jump\t// out\n        /* \"#utility.yul\":5711:5804   */\n    tag_306:\n        /* \"#utility.yul\":5747:5754   */\n      0x00\n        /* \"#utility.yul\":5787:5797   */\n      0xffffffff\n        /* \"#utility.yul\":5780:5785   */\n      dup3\n        /* \"#utility.yul\":5776:5798   */\n      and\n        /* \"#utility.yul\":5765:5798   */\n      swap1\n      pop\n        /* \"#utility.yul\":5711:5804   */\n      swap2\n      swap1\n      pop\n      jump\t// out\n        /* \"#utility.yul\":5810:5985   */\n    tag_160:\n        /* \"#utility.yul\":5848:5851   */\n      0x00\n        /* \"#utility.yul\":5871:5894   */\n      tag_396\n        /* \"#utility.yul\":5888:5893   */\n      dup3\n        /* \"#utility.yul\":5871:5894   */\n      tag_306\n      jump\t// in\n    tag_396:\n        /* \"#utility.yul\":5862:5894   */\n      swap2\n      pop\n        /* \"#utility.yul\":5916:5926   */\n      0xffffffff\n        /* \"#utility.yul\":5909:5914   */\n      dup3\n        /* \"#utility.yul\":5906:5927   */\n      sub\n        /* \"#utility.yul\":5903:5950   */\n      tag_397\n      jumpi\n        /* \"#utility.yul\":5930:5948   */\n      tag_398\n      tag_305\n      jump\t// in\n    tag_398:\n        /* \"#utility.yul\":5903:5950   */\n    tag_397:\n        /* \"#utility.yul\":5977:5978   */\n      0x01\n        /* \"#utility.yul\":5970:5975   */\n      dup3\n        /* \"#utility.yul\":5966:5979   */\n      add\n        /* \"#utility.yul\":5959:5979   */\n      swap1\n      pop\n        /* \"#utility.yul\":5810:5985   */\n      swap2\n      swap1\n      pop\n      jump\t// out\n        /* \"#utility.yul\":5991:6435   */\n    tag_184:\n        /* \"#utility.yul\":6168:6172   */\n      0x00\n        /* \"#utility.yul\":6206:6208   */\n      0x40\n        /* \"#utility.yul\":6195:6204   */\n      dup3\n        /* \"#utility.yul\":6191:6209   */\n      add\n        /* \"#utility.yul\":6183:6209   */\n      swap1\n      pop\n        /* \"#utility.yul\":6219:6318   */\n      tag_400\n        /* \"#utility.yul\":6315:6316   */\n      0x00\n        /* \"#utility.yul\":6304:6313   */\n      dup4\n        /* \"#utility.yul\":6300:6317   */\n      add\n        /* \"#utility.yul\":6291:6297   */\n      dup6\n        /* \"#utility.yul\":6219:6318   */\n      tag_304\n      jump\t// in\n    tag_400:\n        /* \"#utility.yul\":6328:6428   */\n      tag_401\n        /* \"#utility.yul\":6424:6426   */\n      0x20\n        /* \"#utility.yul\":6413:6422   */\n      dup4\n        /* \"#utility.yul\":6409:6427   */\n      add\n        /* \"#utility.yul\":6400:6406   */\n      dup5\n        /* \"#utility.yul\":6328:6428   */\n      tag_304\n      jump\t// in\n    tag_401:\n        /* \"#utility.yul\":5991:6435   */\n      swap4\n      swap3\n      pop\n      pop\n      pop\n      jump\t// out\n        /* \"#utility.yul\":6441:6883   */\n    tag_198:\n        /* \"#utility.yul\":6590:6594   */\n      0x00\n        /* \"#utility.yul\":6628:6630   */\n      0x60\n        /* \"#utility.yul\":6617:6626   */\n      dup3\n        /* \"#utility.yul\":6613:6631   */\n      add\n        /* \"#utility.yul\":6605:6631   */\n      swap1\n      pop\n        /* \"#utility.yul\":6641:6712   */\n      tag_403\n        /* \"#utility.yul\":6709:6710   */\n      0x00\n        /* \"#utility.yul\":6698:6707   */\n      dup4\n        /* \"#utility.yul\":6694:6711   */\n      add\n        /* \"#utility.yul\":6685:6691   */\n      dup7\n        /* \"#utility.yul\":6641:6712   */\n      tag_297\n      jump\t// in\n    tag_403:\n        /* \"#utility.yul\":6722:6794   */\n      tag_404\n        /* \"#utility.yul\":6790:6792   */\n      0x20\n        /* \"#utility.yul\":6779:6788   */\n      dup4\n        /* \"#utility.yul\":6775:6793   */\n      add\n        /* \"#utility.yul\":6766:6772   */\n      dup6\n        /* \"#utility.yul\":6722:6794   */\n      tag_297\n      jump\t// in\n    tag_404:\n        /* \"#utility.yul\":6804:6876   */\n      tag_405\n        /* \"#utility.yul\":6872:6874   */\n      0x40\n        /* \"#utility.yul\":6861:6870   */\n      dup4\n        /* \"#utility.yul\":6857:6875   */\n      add\n        /* \"#utility.yul\":6848:6854   */\n      dup5\n        /* \"#utility.yul\":6804:6876   */\n      tag_287\n      jump\t// in\n    tag_405:\n        /* \"#utility.yul\":6441:6883   */\n      swap5\n      swap4\n      pop\n      pop\n      pop\n      pop\n      jump\t// out\n        /* \"#utility.yul\":6889:7083   */\n    tag_207:\n        /* \"#utility.yul\":6929:6933   */\n      0x00\n        /* \"#utility.yul\":6949:6969   */\n      tag_407\n        /* \"#utility.yul\":6967:6968   */\n      dup3\n        /* \"#utility.yul\":6949:6969   */\n      tag_286\n      jump\t// in\n    tag_407:\n        /* \"#utility.yul\":6944:6969   */\n      swap2\n      pop\n        /* \"#utility.yul\":6983:7003   */\n      tag_408\n        /* \"#utility.yul\":7001:7002   */\n      dup4\n        /* \"#utility.yul\":6983:7003   */\n      tag_286\n      jump\t// in\n    tag_408:\n        /* \"#utility.yul\":6978:7003   */\n      swap3\n      pop\n        /* \"#utility.yul\":7027:7028   */\n      dup3\n        /* \"#utility.yul\":7024:7025   */\n      dup3\n        /* \"#utility.yul\":7020:7029   */\n      sub\n        /* \"#utility.yul\":7012:7029   */\n      swap1\n      pop\n        /* \"#utility.yul\":7051:7052   */\n      dup2\n        /* \"#utility.yul\":7045:7049   */\n      dup2\n        /* \"#utility.yul\":7042:7053   */\n      gt\n        /* \"#utility.yul\":7039:7076   */\n      iszero\n      tag_409\n      jumpi\n        /* \"#utility.yul\":7056:7074   */\n      tag_410\n      tag_305\n      jump\t// in\n    tag_410:\n        /* \"#utility.yul\":7039:7076   */\n    tag_409:\n        /* \"#utility.yul\":6889:7083   */\n      swap3\n      swap2\n      pop\n      pop\n      jump\t// out\n        /* \"#utility.yul\":7089:7499   */\n    tag_245:\n        /* \"#utility.yul\":7129:7136   */\n      0x00\n        /* \"#utility.yul\":7152:7172   */\n      tag_412\n        /* \"#utility.yul\":7170:7171   */\n      dup3\n        /* \"#utility.yul\":7152:7172   */\n      tag_286\n      jump\t// in\n    tag_412:\n        /* \"#utility.yul\":7147:7172   */\n      swap2\n      pop\n        /* \"#utility.yul\":7186:7206   */\n      tag_413\n        /* \"#utility.yul\":7204:7205   */\n      dup4\n        /* \"#utility.yul\":7186:7206   */\n      tag_286\n      jump\t// in\n    tag_413:\n        /* \"#utility.yul\":7181:7206   */\n      swap3\n      pop\n        /* \"#utility.yul\":7241:7242   */\n      dup3\n        /* \"#utility.yul\":7238:7239   */\n      dup3\n        /* \"#utility.yul\":7234:7243   */\n      mul\n        /* \"#utility.yul\":7263:7293   */\n      tag_414\n        /* \"#utility.yul\":7281:7292   */\n      dup2\n        /* \"#utility.yul\":7263:7293   */\n      tag_286\n      jump\t// in\n    tag_414:\n        /* \"#utility.yul\":7252:7293   */\n      swap2\n      pop\n        /* \"#utility.yul\":7442:7443   */\n      dup3\n        /* \"#utility.yul\":7433:7440   */\n      dup3\n        /* \"#utility.yul\":7429:7444   */\n      div\n        /* \"#utility.yul\":7426:7427   */\n      dup5\n        /* \"#utility.yul\":7423:7445   */\n      eq\n        /* \"#utility.yul\":7403:7404   */\n      dup4\n        /* \"#utility.yul\":7396:7405   */\n      iszero\n        /* \"#utility.yul\":7376:7459   */\n      or\n        /* \"#utility.yul\":7353:7492   */\n      tag_415\n      jumpi\n        /* \"#utility.yul\":7472:7490   */\n      tag_416\n      tag_305\n      jump\t// in\n    tag_416:\n        /* \"#utility.yul\":7353:7492   */\n    tag_415:\n        /* \"#utility.yul\":7137:7499   */\n      pop\n        /* \"#utility.yul\":7089:7499   */\n      swap3\n      swap2\n      pop\n      pop\n      jump\t// out\n        /* \"#utility.yul\":7505:7685   */\n    tag_307:\n        /* \"#utility.yul\":7553:7630   */\n      0x4e487b7100000000000000000000000000000000000000000000000000000000\n        /* \"#utility.yul\":7550:7551   */\n      0x00\n        /* \"#utility.yul\":7543:7631   */\n      mstore\n        /* \"#utility.yul\":7650:7654   */\n      0x12\n        /* \"#utility.yul\":7647:7648   */\n      0x04\n        /* \"#utility.yul\":7640:7655   */\n      mstore\n        /* \"#utility.yul\":7674:7678   */\n      0x24\n        /* \"#utility.yul\":7671:7672   */\n      0x00\n        /* \"#utility.yul\":7664:7679   */\n      revert\n        /* \"#utility.yul\":7691:7876   */\n    tag_247:\n        /* \"#utility.yul\":7731:7732   */\n      0x00\n        /* \"#utility.yul\":7748:7768   */\n      tag_419\n        /* \"#utility.yul\":7766:7767   */\n      dup3\n        /* \"#utility.yul\":7748:7768   */\n      tag_286\n      jump\t// in\n    tag_419:\n        /* \"#utility.yul\":7743:7768   */\n      swap2\n      pop\n        /* \"#utility.yul\":7782:7802   */\n      tag_420\n        /* \"#utility.yul\":7800:7801   */\n      dup4\n        /* \"#utility.yul\":7782:7802   */\n      tag_286\n      jump\t// in\n    tag_420:\n        /* \"#utility.yul\":7777:7802   */\n      swap3\n      pop\n        /* \"#utility.yul\":7821:7822   */\n      dup3\n        /* \"#utility.yul\":7811:7846   */\n      tag_421\n      jumpi\n        /* \"#utility.yul\":7826:7844   */\n      tag_422\n      tag_307\n      jump\t// in\n    tag_422:\n        /* \"#utility.yul\":7811:7846   */\n    tag_421:\n        /* \"#utility.yul\":7868:7869   */\n      dup3\n        /* \"#utility.yul\":7865:7866   */\n      dup3\n        /* \"#utility.yul\":7861:7870   */\n      div\n        /* \"#utility.yul\":7856:7870   */\n      swap1\n      pop\n        /* \"#utility.yul\":7691:7876   */\n      swap3\n      swap2\n      pop\n      pop\n      jump\t// out\n        /* \"#utility.yul\":7882:8029   */\n    tag_308:\n        /* \"#utility.yul\":7983:7994   */\n      0x00\n        /* \"#utility.yul\":8020:8023   */\n      dup2\n        /* \"#utility.yul\":8005:8023   */\n      swap1\n      pop\n        /* \"#utility.yul\":7882:8029   */\n      swap3\n      swap2\n      pop\n      pop\n      jump\t// out\n        /* \"#utility.yul\":8035:8149   */\n    tag_309:\n      pop\n      jump\t// out\n        /* \"#utility.yul\":8155:8553   */\n    tag_310:\n        /* \"#utility.yul\":8314:8317   */\n      0x00\n        /* \"#utility.yul\":8335:8418   */\n      tag_426\n        /* \"#utility.yul\":8416:8417   */\n      0x00\n        /* \"#utility.yul\":8411:8414   */\n      dup4\n        /* \"#utility.yul\":8335:8418   */\n      tag_308\n      jump\t// in\n    tag_426:\n        /* \"#utility.yul\":8328:8418   */\n      swap2\n      pop\n        /* \"#utility.yul\":8427:8520   */\n      tag_427\n        /* \"#utility.yul\":8516:8519   */\n      dup3\n        /* \"#utility.yul\":8427:8520   */\n      tag_309\n      jump\t// in\n    tag_427:\n        /* \"#utility.yul\":8545:8546   */\n      0x00\n        /* \"#utility.yul\":8540:8543   */\n      dup3\n        /* \"#utility.yul\":8536:8547   */\n      add\n        /* \"#utility.yul\":8529:8547   */\n      swap1\n      pop\n        /* \"#utility.yul\":8155:8553   */\n      swap2\n      swap1\n      pop\n      jump\t// out\n        /* \"#utility.yul\":8559:8938   */\n    tag_264:\n        /* \"#utility.yul\":8743:8746   */\n      0x00\n        /* \"#utility.yul\":8765:8912   */\n      tag_429\n        /* \"#utility.yul\":8908:8911   */\n      dup3\n        /* \"#utility.yul\":8765:8912   */\n      tag_310\n      jump\t// in\n    tag_429:\n        /* \"#utility.yul\":8758:8912   */\n      swap2\n      pop\n        /* \"#utility.yul\":8929:8932   */\n      dup2\n        /* \"#utility.yul\":8922:8932   */\n      swap1\n      pop\n        /* \"#utility.yul\":8559:8938   */\n      swap2\n      swap1\n      pop\n      jump\t// out\n        /* \"#utility.yul\":8944:9042   */\n    tag_311:\n        /* \"#utility.yul\":8995:9001   */\n      0x00\n        /* \"#utility.yul\":9029:9034   */\n      dup2\n        /* \"#utility.yul\":9023:9035   */\n      mload\n        /* \"#utility.yul\":9013:9035   */\n      swap1\n      pop\n        /* \"#utility.yul\":8944:9042   */\n      swap2\n      swap1\n      pop\n      jump\t// out\n        /* \"#utility.yul\":9048:9216   */\n    tag_312:\n        /* \"#utility.yul\":9131:9142   */\n      0x00\n        /* \"#utility.yul\":9165:9171   */\n      dup3\n        /* \"#utility.yul\":9160:9163   */\n      dup3\n        /* \"#utility.yul\":9153:9172   */\n      mstore\n        /* \"#utility.yul\":9205:9209   */\n      0x20\n        /* \"#utility.yul\":9200:9203   */\n      dup3\n        /* \"#utility.yul\":9196:9210   */\n      add\n        /* \"#utility.yul\":9181:9210   */\n      swap1\n      pop\n        /* \"#utility.yul\":9048:9216   */\n      swap3\n      swap2\n      pop\n      pop\n      jump\t// out\n        /* \"#utility.yul\":9222:9361   */\n    tag_313:\n        /* \"#utility.yul\":9311:9317   */\n      dup3\n        /* \"#utility.yul\":9306:9309   */\n      dup2\n        /* \"#utility.yul\":9301:9304   */\n      dup4\n        /* \"#utility.yul\":9295:9318   */\n      mcopy\n        /* \"#utility.yul\":9352:9353   */\n      0x00\n        /* \"#utility.yul\":9343:9349   */\n      dup4\n        /* \"#utility.yul\":9338:9341   */\n      dup4\n        /* \"#utility.yul\":9334:9350   */\n      add\n        /* \"#utility.yul\":9327:9354   */\n      mstore\n        /* \"#utility.yul\":9222:9361   */\n      pop\n      pop\n      pop\n      jump\t// out\n        /* \"#utility.yul\":9367:9469   */\n    tag_314:\n        /* \"#utility.yul\":9408:9414   */\n      0x00\n        /* \"#utility.yul\":9459:9461   */\n      0x1f\n        /* \"#utility.yul\":9455:9462   */\n      not\n        /* \"#utility.yul\":9450:9452   */\n      0x1f\n        /* \"#utility.yul\":9443:9448   */\n      dup4\n        /* \"#utility.yul\":9439:9453   */\n      add\n        /* \"#utility.yul\":9435:9463   */\n      and\n        /* \"#utility.yul\":9425:9463   */\n      swap1\n      pop\n        /* \"#utility.yul\":9367:9469   */\n      swap2\n      swap1\n      pop\n      jump\t// out\n        /* \"#utility.yul\":9475:9848   */\n    tag_315:\n        /* \"#utility.yul\":9561:9564   */\n      0x00\n        /* \"#utility.yul\":9589:9627   */\n      tag_435\n        /* \"#utility.yul\":9621:9626   */\n      dup3\n        /* \"#utility.yul\":9589:9627   */\n      tag_311\n      jump\t// in\n    tag_435:\n        /* \"#utility.yul\":9643:9713   */\n      tag_436\n        /* \"#utility.yul\":9706:9712   */\n      dup2\n        /* \"#utility.yul\":9701:9704   */\n      dup6\n        /* \"#utility.yul\":9643:9713   */\n      tag_312\n      jump\t// in\n    tag_436:\n        /* \"#utility.yul\":9636:9713   */\n      swap4\n      pop\n        /* \"#utility.yul\":9722:9787   */\n      tag_437\n        /* \"#utility.yul\":9780:9786   */\n      dup2\n        /* \"#utility.yul\":9775:9778   */\n      dup6\n        /* \"#utility.yul\":9768:9772   */\n      0x20\n        /* \"#utility.yul\":9761:9766   */\n      dup7\n        /* \"#utility.yul\":9757:9773   */\n      add\n        /* \"#utility.yul\":9722:9787   */\n      tag_313\n      jump\t// in\n    tag_437:\n        /* \"#utility.yul\":9812:9841   */\n      tag_438\n        /* \"#utility.yul\":9834:9840   */\n      dup2\n        /* \"#utility.yul\":9812:9841   */\n      tag_314\n      jump\t// in\n    tag_438:\n        /* \"#utility.yul\":9807:9810   */\n      dup5\n        /* \"#utility.yul\":9803:9842   */\n      add\n        /* \"#utility.yul\":9796:9842   */\n      swap2\n      pop\n        /* \"#utility.yul\":9565:9848   */\n      pop\n        /* \"#utility.yul\":9475:9848   */\n      swap3\n      swap2\n      pop\n      pop\n      jump\t// out\n        /* \"#utility.yul\":9854:10383   */\n    tag_270:\n        /* \"#utility.yul\":10021:10025   */\n      0x00\n        /* \"#utility.yul\":10059:10061   */\n      0x60\n        /* \"#utility.yul\":10048:10057   */\n      dup3\n        /* \"#utility.yul\":10044:10062   */\n      add\n        /* \"#utility.yul\":10036:10062   */\n      swap1\n      pop\n        /* \"#utility.yul\":10072:10143   */\n      tag_440\n        /* \"#utility.yul\":10140:10141   */\n      0x00\n        /* \"#utility.yul\":10129:10138   */\n      dup4\n        /* \"#utility.yul\":10125:10142   */\n      add\n        /* \"#utility.yul\":10116:10122   */\n      dup7\n        /* \"#utility.yul\":10072:10143   */\n      tag_297\n      jump\t// in\n    tag_440:\n        /* \"#utility.yul\":10153:10225   */\n      tag_441\n        /* \"#utility.yul\":10221:10223   */\n      0x20\n        /* \"#utility.yul\":10210:10219   */\n      dup4\n        /* \"#utility.yul\":10206:10224   */\n      add\n        /* \"#utility.yul\":10197:10203   */\n      dup6\n        /* \"#utility.yul\":10153:10225   */\n      tag_287\n      jump\t// in\n    tag_441:\n        /* \"#utility.yul\":10272:10281   */\n      dup2\n        /* \"#utility.yul\":10266:10270   */\n      dup2\n        /* \"#utility.yul\":10262:10282   */\n      sub\n        /* \"#utility.yul\":10257:10259   */\n      0x40\n        /* \"#utility.yul\":10246:10255   */\n      dup4\n        /* \"#utility.yul\":10242:10260   */\n      add\n        /* \"#utility.yul\":10235:10283   */\n      mstore\n        /* \"#utility.yul\":10300:10376   */\n      tag_442\n        /* \"#utility.yul\":10371:10375   */\n      dup2\n        /* \"#utility.yul\":10362:10368   */\n      dup5\n        /* \"#utility.yul\":10300:10376   */\n      tag_315\n      jump\t// in\n    tag_442:\n        /* \"#utility.yul\":10292:10376   */\n      swap1\n      pop\n        /* \"#utility.yul\":9854:10383   */\n      swap5\n      swap4\n      pop\n      pop\n      pop\n      pop\n      jump\t// out\n        /* \"#utility.yul\":10389:10494   */\n    tag_316:\n        /* \"#utility.yul\":10425:10432   */\n      0x00\n        /* \"#utility.yul\":10465:10487   */\n      0xffffffffffffffffffff\n        /* \"#utility.yul\":10458:10463   */\n      dup3\n        /* \"#utility.yul\":10454:10488   */\n      and\n        /* \"#utility.yul\":10443:10488   */\n      swap1\n      pop\n        /* \"#utility.yul\":10389:10494   */\n      swap2\n      swap1\n      pop\n      jump\t// out\n        /* \"#utility.yul\":10500:10620   */\n    tag_317:\n        /* \"#utility.yul\":10572:10595   */\n      tag_445\n        /* \"#utility.yul\":10589:10594   */\n      dup2\n        /* \"#utility.yul\":10572:10595   */\n      tag_316\n      jump\t// in\n    tag_445:\n        /* \"#utility.yul\":10565:10570   */\n      dup2\n        /* \"#utility.yul\":10562:10596   */\n      eq\n        /* \"#utility.yul\":10552:10614   */\n      tag_446\n      jumpi\n        /* \"#utility.yul\":10610:10611   */\n      0x00\n        /* \"#utility.yul\":10607:10608   */\n      0x00\n        /* \"#utility.yul\":10600:10612   */\n      revert\n        /* \"#utility.yul\":10552:10614   */\n    tag_446:\n        /* \"#utility.yul\":10500:10620   */\n      pop\n      jump\t// out\n        /* \"#utility.yul\":10626:10767   */\n    tag_318:\n        /* \"#utility.yul\":10682:10687   */\n      0x00\n        /* \"#utility.yul\":10713:10719   */\n      dup2\n        /* \"#utility.yul\":10707:10720   */\n      mload\n        /* \"#utility.yul\":10698:10720   */\n      swap1\n      pop\n        /* \"#utility.yul\":10729:10761   */\n      tag_448\n        /* \"#utility.yul\":10755:10760   */\n      dup2\n        /* \"#utility.yul\":10729:10761   */\n      tag_317\n      jump\t// in\n    tag_448:\n        /* \"#utility.yul\":10626:10767   */\n      swap3\n      swap2\n      pop\n      pop\n      jump\t// out\n        /* \"#utility.yul\":10773:10849   */\n    tag_319:\n        /* \"#utility.yul\":10809:10816   */\n      0x00\n        /* \"#utility.yul\":10838:10843   */\n      dup2\n        /* \"#utility.yul\":10827:10843   */\n      swap1\n      pop\n        /* \"#utility.yul\":10773:10849   */\n      swap2\n      swap1\n      pop\n      jump\t// out\n        /* \"#utility.yul\":10855:10975   */\n    tag_320:\n        /* \"#utility.yul\":10927:10950   */\n      tag_451\n        /* \"#utility.yul\":10944:10949   */\n      dup2\n        /* \"#utility.yul\":10927:10950   */\n      tag_319\n      jump\t// in\n    tag_451:\n        /* \"#utility.yul\":10920:10925   */\n      dup2\n        /* \"#utility.yul\":10917:10951   */\n      eq\n        /* \"#utility.yul\":10907:10969   */\n      tag_452\n      jumpi\n        /* \"#utility.yul\":10965:10966   */\n      0x00\n        /* \"#utility.yul\":10962:10963   */\n      0x00\n        /* \"#utility.yul\":10955:10967   */\n      revert\n        /* \"#utility.yul\":10907:10969   */\n    tag_452:\n        /* \"#utility.yul\":10855:10975   */\n      pop\n      jump\t// out\n        /* \"#utility.yul\":10981:11122   */\n    tag_321:\n        /* \"#utility.yul\":11037:11042   */\n      0x00\n        /* \"#utility.yul\":11068:11074   */\n      dup2\n        /* \"#utility.yul\":11062:11075   */\n      mload\n        /* \"#utility.yul\":11053:11075   */\n      swap1\n      pop\n        /* \"#utility.yul\":11084:11116   */\n      tag_454\n        /* \"#utility.yul\":11110:11115   */\n      dup2\n        /* \"#utility.yul\":11084:11116   */\n      tag_320\n      jump\t// in\n    tag_454:\n        /* \"#utility.yul\":10981:11122   */\n      swap3\n      swap2\n      pop\n      pop\n      jump\t// out\n        /* \"#utility.yul\":11128:11271   */\n    tag_322:\n        /* \"#utility.yul\":11185:11190   */\n      0x00\n        /* \"#utility.yul\":11216:11222   */\n      dup2\n        /* \"#utility.yul\":11210:11223   */\n      mload\n        /* \"#utility.yul\":11201:11223   */\n      swap1\n      pop\n        /* \"#utility.yul\":11232:11265   */\n      tag_456\n        /* \"#utility.yul\":11259:11264   */\n      dup2\n        /* \"#utility.yul\":11232:11265   */\n      tag_298\n      jump\t// in\n    tag_456:\n        /* \"#utility.yul\":11128:11271   */\n      swap3\n      swap2\n      pop\n      pop\n      jump\t// out\n        /* \"#utility.yul\":11277:12248   */\n    tag_275:\n        /* \"#utility.yul\":11380:11386   */\n      0x00\n        /* \"#utility.yul\":11388:11394   */\n      0x00\n        /* \"#utility.yul\":11396:11402   */\n      0x00\n        /* \"#utility.yul\":11404:11410   */\n      0x00\n        /* \"#utility.yul\":11412:11418   */\n      0x00\n        /* \"#utility.yul\":11461:11464   */\n      0xa0\n        /* \"#utility.yul\":11449:11458   */\n      dup7\n        /* \"#utility.yul\":11440:11447   */\n      dup9\n        /* \"#utility.yul\":11436:11459   */\n      sub\n        /* \"#utility.yul\":11432:11465   */\n      slt\n        /* \"#utility.yul\":11429:11549   */\n      iszero\n      tag_458\n      jumpi\n        /* \"#utility.yul\":11468:11547   */\n      tag_459\n      tag_289\n      jump\t// in\n    tag_459:\n        /* \"#utility.yul\":11429:11549   */\n    tag_458:\n        /* \"#utility.yul\":11588:11589   */\n      0x00\n        /* \"#utility.yul\":11613:11676   */\n      tag_460\n        /* \"#utility.yul\":11668:11675   */\n      dup9\n        /* \"#utility.yul\":11659:11665   */\n      dup3\n        /* \"#utility.yul\":11648:11657   */\n      dup10\n        /* \"#utility.yul\":11644:11666   */\n      add\n        /* \"#utility.yul\":11613:11676   */\n      tag_318\n      jump\t// in\n    tag_460:\n        /* \"#utility.yul\":11603:11676   */\n      swap6\n      pop\n        /* \"#utility.yul\":11559:11686   */\n      pop\n        /* \"#utility.yul\":11725:11727   */\n      0x20\n        /* \"#utility.yul\":11751:11814   */\n      tag_461\n        /* \"#utility.yul\":11806:11813   */\n      dup9\n        /* \"#utility.yul\":11797:11803   */\n      dup3\n        /* \"#utility.yul\":11786:11795   */\n      dup10\n        /* \"#utility.yul\":11782:11804   */\n      add\n        /* \"#utility.yul\":11751:11814   */\n      tag_321\n      jump\t// in\n    tag_461:\n        /* \"#utility.yul\":11741:11814   */\n      swap5\n      pop\n        /* \"#utility.yul\":11696:11824   */\n      pop\n        /* \"#utility.yul\":11863:11865   */\n      0x40\n        /* \"#utility.yul\":11889:11953   */\n      tag_462\n        /* \"#utility.yul\":11945:11952   */\n      dup9\n        /* \"#utility.yul\":11936:11942   */\n      dup3\n        /* \"#utility.yul\":11925:11934   */\n      dup10\n        /* \"#utility.yul\":11921:11943   */\n      add\n        /* \"#utility.yul\":11889:11953   */\n      tag_322\n      jump\t// in\n    tag_462:\n        /* \"#utility.yul\":11879:11953   */\n      swap4\n      pop\n        /* \"#utility.yul\":11834:11963   */\n      pop\n        /* \"#utility.yul\":12002:12004   */\n      0x60\n        /* \"#utility.yul\":12028:12092   */\n      tag_463\n        /* \"#utility.yul\":12084:12091   */\n      dup9\n        /* \"#utility.yul\":12075:12081   */\n      dup3\n        /* \"#utility.yul\":12064:12073   */\n      dup10\n        /* \"#utility.yul\":12060:12082   */\n      add\n        /* \"#utility.yul\":12028:12092   */\n      tag_322\n      jump\t// in\n    tag_463:\n        /* \"#utility.yul\":12018:12092   */\n      swap3\n      pop\n        /* \"#utility.yul\":11973:12102   */\n      pop\n        /* \"#utility.yul\":12141:12144   */\n      0x80\n        /* \"#utility.yul\":12168:12231   */\n      tag_464\n        /* \"#utility.yul\":12223:12230   */\n      dup9\n        /* \"#utility.yul\":12214:12220   */\n      dup3\n        /* \"#utility.yul\":12203:12212   */\n      dup10\n        /* \"#utility.yul\":12199:12221   */\n      add\n        /* \"#utility.yul\":12168:12231   */\n      tag_318\n      jump\t// in\n    tag_464:\n        /* \"#utility.yul\":12158:12231   */\n      swap2\n      pop\n        /* \"#utility.yul\":12112:12241   */\n      pop\n        /* \"#utility.yul\":11277:12248   */\n      swap3\n      swap6\n      pop\n      swap3\n      swap6\n      swap1\n      swap4\n      pop\n      jump\t// out\n\n    auxdata: 0xa2646970667358221220e90310a5100fe560d6810157cc1fac8d6dd38a1c005cccd98f3e99f8d1c944ff64736f6c634300081e0033\n}\n",
				"bytecode": {
					"linkReferences": {},
					"object": "60c0604052670de0b6b3a76400006fffffffffffffffffffffffffffffffff1660a0906fffffffffffffffffffffffffffffffff16815250348015610042575f5ffd5b506040516128b83803806128b8833981810160405281019061006491906102bc565b335f73ffffffffffffffffffffffffffffffffffffffff168173ffffffffffffffffffffffffffffffffffffffff16036100d5575f6040517f1e4fbdf70000000000000000000000000000000000000000000000000000000081526004016100cc9190610309565b60405180910390fd5b6100e48161015860201b60201c565b50816fffffffffffffffffffffffffffffffff166080816fffffffffffffffffffffffffffffffff16815250508060015f6101000a81548173ffffffffffffffffffffffffffffffffffffffff021916908373ffffffffffffffffffffffffffffffffffffffff1602179055505050610322565b5f5f5f9054906101000a900473ffffffffffffffffffffffffffffffffffffffff169050815f5f6101000a81548173ffffffffffffffffffffffffffffffffffffffff021916908373ffffffffffffffffffffffffffffffffffffffff1602179055508173ffffffffffffffffffffffffffffffffffffffff168173ffffffffffffffffffffffffffffffffffffffff167f8be0079c531659141344cd1fd0a4f28419497f9722a3daafe3b4186f6b6457e060405160405180910390a35050565b5f5ffd5b5f6fffffffffffffffffffffffffffffffff82169050919050565b6102418161021d565b811461024b575f5ffd5b50565b5f8151905061025c81610238565b92915050565b5f73ffffffffffffffffffffffffffffffffffffffff82169050919050565b5f61028b82610262565b9050919050565b61029b81610281565b81146102a5575f5ffd5b50565b5f815190506102b681610292565b92915050565b5f5f604083850312156102d2576102d1610219565b5b5f6102df8582860161024e565b92505060206102f0858286016102a8565b9150509250929050565b61030381610281565b82525050565b5f60208201905061031c5f8301846102fa565b92915050565b60805160a0516125676103515f395f8181610cfc015261156801525f81816106580152610d2001526125675ff3fe608060405260043610610169575f3560e01c806394f649dd116100d0578063c311d04911610089578063d2706c9111610063578063d2706c9114610542578063ef6492491461057e578063f2fde38b146105a8578063f8b2cb4f146105d057610178565b8063c311d049146104b4578063c3a8962c146104dc578063c77e551b1461051857610178565b806394f649dd14610374578063962b9bcc146103b057806397feb926146103ec578063a1db978214610414578063a2abecd31461043c578063b588d2251461047857610178565b80636b149d87116101225780636b149d871461028e578063715018a6146102b85780637dc532c5146102ce5780637f86ee43146102f657806380ef10ed146103205780638da5cb5b1461034a57610178565b806312065fe01461017c57806321d60805146101a6578063297beb3c146101e25780633a2b643a1461021e578063439370b11461025a57806350d6c1e81461026457610178565b366101785761017661060c565b005b5f5ffd5b348015610187575f5ffd5b506101906108d5565b60405161019d9190611f07565b60405180910390f35b3480156101b1575f5ffd5b506101cc60048036038101906101c79190611f7e565b610954565b6040516101d99190611f07565b60405180910390f35b3480156101ed575f5ffd5b5061020860048036038101906102039190611fa9565b6109dd565b6040516102159190611f07565b60405180910390f35b348015610229575f5ffd5b50610244600480360381019061023f9190611f7e565b610a7c565b6040516102519190611f07565b60405180910390f35b61026261060c565b005b34801561026f575f5ffd5b50610278610b1a565b6040516102859190611f07565b60405180910390f35b348015610299575f5ffd5b506102a2610bae565b6040516102af9190611f07565b60405180910390f35b3480156102c3575f5ffd5b506102cc610c42565b005b3480156102d9575f5ffd5b506102f460048036038101906102ef9190611f7e565b610c55565b005b348015610301575f5ffd5b5061030a610cfa565b6040516103179190612011565b60405180910390f35b34801561032b575f5ffd5b50610334610d1e565b6040516103419190612011565b60405180910390f35b348015610355575f5ffd5b5061035e610d42565b60405161036b9190612039565b60405180910390f35b34801561037f575f5ffd5b5061039a60048036038101906103959190611f7e565b610d69565b6040516103a79190611f07565b60405180910390f35b3480156103bb575f5ffd5b506103d660048036038101906103d19190611fa9565b610e07565b6040516103e39190611f07565b60405180910390f35b3480156103f7575f5ffd5b50610412600480360381019061040d919061207c565b610ea6565b005b34801561041f575f5ffd5b5061043a6004803603810190610435919061207c565b6110a0565b005b348015610447575f5ffd5b50610462600480360381019061045d9190611f7e565b611342565b60405161046f9190611f07565b60405180910390f35b348015610483575f5ffd5b5061049e60048036038101906104999190611f7e565b6113d8565b6040516104ab9190611f07565b60405180910390f35b3480156104bf575f5ffd5b506104da60048036038101906104d591906120ba565b611459565b005b3480156104e7575f5ffd5b5061050260048036038101906104fd9190611fa9565b61176c565b60405161050f9190611f07565b60405180910390f35b348015610523575f5ffd5b5061052c6117f6565b6040516105399190612140565b60405180910390f35b34801561054d575f5ffd5b5061056860048036038101906105639190611f7e565b61181b565b6040516105759190611f07565b60405180910390f35b348015610589575f5ffd5b506105926118b1565b60405161059f9190611f07565b60405180910390f35b3480156105b3575f5ffd5b506105ce60048036038101906105c99190611f7e565b611938565b005b3480156105db575f5ffd5b506105f660048036038101906105f19190611f7e565b6119bc565b6040516106039190611f07565b60405180910390f35b5f341133349091610654576040517facb26d8e00000000000000000000000000000000000000000000000000000000815260040161064b929190612159565b60405180910390fd5b50507f00000000000000000000000000000000000000000000000000000000000000006fffffffffffffffffffffffffffffffff1660025f3373ffffffffffffffffffffffffffffffffffffffff1673ffffffffffffffffffffffffffffffffffffffff1681526020019081526020015f205f5f73ffffffffffffffffffffffffffffffffffffffff1673ffffffffffffffffffffffffffffffffffffffff1681526020019081526020015f20543461070d91906121ad565b111533349091610754576040517facb26d8e00000000000000000000000000000000000000000000000000000000815260040161074b929190612159565b60405180910390fd5b50503460025f3373ffffffffffffffffffffffffffffffffffffffff1673ffffffffffffffffffffffffffffffffffffffff1681526020019081526020015f205f5f73ffffffffffffffffffffffffffffffffffffffff1673ffffffffffffffffffffffffffffffffffffffff1681526020019081526020015f205f8282546107dd91906121ad565b9250508190555060035f3373ffffffffffffffffffffffffffffffffffffffff1673ffffffffffffffffffffffffffffffffffffffff1681526020019081526020015f205f5f73ffffffffffffffffffffffffffffffffffffffff1673ffffffffffffffffffffffffffffffffffffffff1681526020019081526020015f205f81819054906101000a900463ffffffff168092919061087b906121ef565b91906101000a81548163ffffffff021916908363ffffffff160217905550507f2da466a7b24304f47e87fa2e1e5a81b9831ce54fec19055ce277ca2f39ba42c433346040516108cb929190612159565b60405180910390a1565b5f60025f3373ffffffffffffffffffffffffffffffffffffffff1673ffffffffffffffffffffffffffffffffffffffff1681526020019081526020015f205f5f73ffffffffffffffffffffffffffffffffffffffff1673ffffffffffffffffffffffffffffffffffffffff1681526020019081526020015f2054905090565b5f6109d660025f8473ffffffffffffffffffffffffffffffffffffffff1673ffffffffffffffffffffffffffffffffffffffff1681526020019081526020015f205f5f73ffffffffffffffffffffffffffffffffffffffff1673ffffffffffffffffffffffffffffffffffffffff1681526020019081526020015f2054611a45565b9050919050565b5f6109e6611a74565b60035f8473ffffffffffffffffffffffffffffffffffffffff1673ffffffffffffffffffffffffffffffffffffffff1681526020019081526020015f205f8373ffffffffffffffffffffffffffffffffffffffff1673ffffffffffffffffffffffffffffffffffffffff1681526020019081526020015f205f9054906101000a900463ffffffff1663ffffffff16905092915050565b5f610a85611a74565b60045f8373ffffffffffffffffffffffffffffffffffffffff1673ffffffffffffffffffffffffffffffffffffffff1681526020019081526020015f205f5f73ffffffffffffffffffffffffffffffffffffffff1673ffffffffffffffffffffffffffffffffffffffff1681526020019081526020015f205f9054906101000a900463ffffffff1663ffffffff169050919050565b5f60045f3373ffffffffffffffffffffffffffffffffffffffff1673ffffffffffffffffffffffffffffffffffffffff1681526020019081526020015f205f5f73ffffffffffffffffffffffffffffffffffffffff1673ffffffffffffffffffffffffffffffffffffffff1681526020019081526020015f205f9054906101000a900463ffffffff1663ffffffff16905090565b5f60035f3373ffffffffffffffffffffffffffffffffffffffff1673ffffffffffffffffffffffffffffffffffffffff1681526020019081526020015f205f5f73ffffffffffffffffffffffffffffffffffffffff1673ffffffffffffffffffffffffffffffffffffffff1681526020019081526020015f205f9054906101000a900463ffffffff1663ffffffff16905090565b610c4a611a74565b610c535f611afb565b565b610c5d611a74565b7f3be680563c528780d5a9cd763a27b4a48ab5f9dc10e4083a2fa55b6fc5ff33e660015f9054906101000a900473ffffffffffffffffffffffffffffffffffffffff1682604051610caf92919061221a565b60405180910390a18060015f6101000a81548173ffffffffffffffffffffffffffffffffffffffff021916908373ffffffffffffffffffffffffffffffffffffffff16021790555050565b7f000000000000000000000000000000000000000000000000000000000000000081565b7f000000000000000000000000000000000000000000000000000000000000000081565b5f5f5f9054906101000a900473ffffffffffffffffffffffffffffffffffffffff16905090565b5f610d72611a74565b60035f8373ffffffffffffffffffffffffffffffffffffffff1673ffffffffffffffffffffffffffffffffffffffff1681526020019081526020015f205f5f73ffffffffffffffffffffffffffffffffffffffff1673ffffffffffffffffffffffffffffffffffffffff1681526020019081526020015f205f9054906101000a900463ffffffff1663ffffffff169050919050565b5f610e10611a74565b60045f8473ffffffffffffffffffffffffffffffffffffffff1673ffffffffffffffffffffffffffffffffffffffff1681526020019081526020015f205f8373ffffffffffffffffffffffffffffffffffffffff1673ffffffffffffffffffffffffffffffffffffffff1681526020019081526020015f205f9054906101000a900463ffffffff1663ffffffff16905092915050565b5f811133829091610eee576040517facb26d8e000000000000000000000000000000000000000000000000000000008152600401610ee5929190612159565b60405180910390fd5b50508060025f3373ffffffffffffffffffffffffffffffffffffffff1673ffffffffffffffffffffffffffffffffffffffff1681526020019081526020015f205f8473ffffffffffffffffffffffffffffffffffffffff1673ffffffffffffffffffffffffffffffffffffffff1681526020019081526020015f205f828254610f7791906121ad565b9250508190555060035f3373ffffffffffffffffffffffffffffffffffffffff1673ffffffffffffffffffffffffffffffffffffffff1681526020019081526020015f205f8373ffffffffffffffffffffffffffffffffffffffff1673ffffffffffffffffffffffffffffffffffffffff1681526020019081526020015f205f81819054906101000a900463ffffffff1680929190611015906121ef565b91906101000a81548163ffffffff021916908363ffffffff160217905550507fe33e9822e3317b004d587136bab2627ea1ecfbba4eb79abddd0a56cfdd09c0e133838360405161106793929190612241565b60405180910390a161109c3330838573ffffffffffffffffffffffffffffffffffffffff16611bbc909392919063ffffffff16565b5050565b5f81113383839091926110eb576040517fb4e4601d0000000000000000000000000000000000000000000000000000000081526004016110e293929190612241565b60405180910390fd5b50505060025f3373ffffffffffffffffffffffffffffffffffffffff1673ffffffffffffffffffffffffffffffffffffffff1681526020019081526020015f205f8373ffffffffffffffffffffffffffffffffffffffff1673ffffffffffffffffffffffffffffffffffffffff1681526020019081526020015f20548111153383839091926111b2576040517fb4e4601d0000000000000000000000000000000000000000000000000000000081526004016111a993929190612241565b60405180910390fd5b5050508060025f3373ffffffffffffffffffffffffffffffffffffffff1673ffffffffffffffffffffffffffffffffffffffff1681526020019081526020015f205f8473ffffffffffffffffffffffffffffffffffffffff1673ffffffffffffffffffffffffffffffffffffffff1681526020019081526020015f205f82825461123c9190612276565b9250508190555060045f3373ffffffffffffffffffffffffffffffffffffffff1673ffffffffffffffffffffffffffffffffffffffff1681526020019081526020015f205f8373ffffffffffffffffffffffffffffffffffffffff1673ffffffffffffffffffffffffffffffffffffffff1681526020019081526020015f205f81819054906101000a900463ffffffff16809291906112da906121ef565b91906101000a81548163ffffffff021916908363ffffffff160217905550506113038282611c3e565b7fd0164496e26f9675acaea59fb065313e45d71d1d3e09d3681765773cd4aa191833838360405161133693929190612241565b60405180910390a15050565b5f60035f3373ffffffffffffffffffffffffffffffffffffffff1673ffffffffffffffffffffffffffffffffffffffff1681526020019081526020015f205f8373ffffffffffffffffffffffffffffffffffffffff1673ffffffffffffffffffffffffffffffffffffffff1681526020019081526020015f205f9054906101000a900463ffffffff1663ffffffff169050919050565b5f60025f3373ffffffffffffffffffffffffffffffffffffffff1673ffffffffffffffffffffffffffffffffffffffff1681526020019081526020015f205f8373ffffffffffffffffffffffffffffffffffffffff1673ffffffffffffffffffffffffffffffffffffffff1681526020019081526020015f20549050919050565b5f8111338290916114a1576040517ff6074107000000000000000000000000000000000000000000000000000000008152600401611498929190612159565b60405180910390fd5b505060025f3373ffffffffffffffffffffffffffffffffffffffff1673ffffffffffffffffffffffffffffffffffffffff1681526020019081526020015f205f5f73ffffffffffffffffffffffffffffffffffffffff1673ffffffffffffffffffffffffffffffffffffffff1681526020019081526020015f205481111533829091611564576040517ff607410700000000000000000000000000000000000000000000000000000000815260040161155b929190612159565b60405180910390fd5b50507f00000000000000000000000000000000000000000000000000000000000000006fffffffffffffffffffffffffffffffff16811115338290916115e1576040517ff60741070000000000000000000000000000000000000000000000000000000081526004016115d8929190612159565b60405180910390fd5b50508060025f3373ffffffffffffffffffffffffffffffffffffffff1673ffffffffffffffffffffffffffffffffffffffff1681526020019081526020015f205f5f73ffffffffffffffffffffffffffffffffffffffff1673ffffffffffffffffffffffffffffffffffffffff1681526020019081526020015f205f82825461166a9190612276565b9250508190555060045f3373ffffffffffffffffffffffffffffffffffffffff1673ffffffffffffffffffffffffffffffffffffffff1681526020019081526020015f205f5f73ffffffffffffffffffffffffffffffffffffffff1673ffffffffffffffffffffffffffffffffffffffff1681526020019081526020015f205f81819054906101000a900463ffffffff1680929190611708906121ef565b91906101000a81548163ffffffff021916908363ffffffff1602179055505061173081611c6f565b7f69c169e5c85af54e1ca7e16608ccc812437821387924fb3353a7d053264ddaa03382604051611761929190612159565b60405180910390a150565b5f611775611a74565b60025f8473ffffffffffffffffffffffffffffffffffffffff1673ffffffffffffffffffffffffffffffffffffffff1681526020019081526020015f205f8373ffffffffffffffffffffffffffffffffffffffff1673ffffffffffffffffffffffffffffffffffffffff1681526020019081526020015f2054905092915050565b60015f9054906101000a900473ffffffffffffffffffffffffffffffffffffffff1681565b5f60045f3373ffffffffffffffffffffffffffffffffffffffff1673ffffffffffffffffffffffffffffffffffffffff1681526020019081526020015f205f8373ffffffffffffffffffffffffffffffffffffffff1673ffffffffffffffffffffffffffffffffffffffff1681526020019081526020015f205f9054906101000a900463ffffffff1663ffffffff169050919050565b5f61193360025f3373ffffffffffffffffffffffffffffffffffffffff1673ffffffffffffffffffffffffffffffffffffffff1681526020019081526020015f205f5f73ffffffffffffffffffffffffffffffffffffffff1673ffffffffffffffffffffffffffffffffffffffff1681526020019081526020015f2054611a45565b905090565b611940611a74565b5f73ffffffffffffffffffffffffffffffffffffffff168173ffffffffffffffffffffffffffffffffffffffff16036119b0575f6040517f1e4fbdf70000000000000000000000000000000000000000000000000000000081526004016119a79190612039565b60405180910390fd5b6119b981611afb565b50565b5f6119c5611a74565b60025f8373ffffffffffffffffffffffffffffffffffffffff1673ffffffffffffffffffffffffffffffffffffffff1681526020019081526020015f205f5f73ffffffffffffffffffffffffffffffffffffffff1673ffffffffffffffffffffffffffffffffffffffff1681526020019081526020015f20549050919050565b5f68056bc75e2d63100000611a58611d2a565b83611a6391906122a9565b611a6d9190612317565b9050919050565b611a7c611e4d565b73ffffffffffffffffffffffffffffffffffffffff16611a9a610d42565b73ffffffffffffffffffffffffffffffffffffffff1614611af957611abd611e4d565b6040517f118cdaa7000000000000000000000000000000000000000000000000000000008152600401611af09190612039565b60405180910390fd5b565b5f5f5f9054906101000a900473ffffffffffffffffffffffffffffffffffffffff169050815f5f6101000a81548173ffffffffffffffffffffffffffffffffffffffff021916908373ffffffffffffffffffffffffffffffffffffffff1602179055508173ffffffffffffffffffffffffffffffffffffffff168173ffffffffffffffffffffffffffffffffffffffff167f8be0079c531659141344cd1fd0a4f28419497f9722a3daafe3b4186f6b6457e060405160405180910390a35050565b611c38848573ffffffffffffffffffffffffffffffffffffffff166323b872dd868686604051602401611bf193929190612241565b604051602081830303815290604052915060e01b6020820180517bffffffffffffffffffffffffffffffffffffffffffffffffffffffff8381831617835250505050611e54565b50505050565b611c6b3033838573ffffffffffffffffffffffffffffffffffffffff16611bbc909392919063ffffffff16565b5050565b5f5f3373ffffffffffffffffffffffffffffffffffffffff1683604051611c9590612374565b5f6040518083038185875af1925050503d805f8114611ccf576040519150601f19603f3d011682016040523d82523d5f602084013e611cd4565b606091505b509150915081338483909192611d22576040517f3fd18b85000000000000000000000000000000000000000000000000000000008152600401611d19939291906123f8565b60405180910390fd5b505050505050565b5f5f5f60015f9054906101000a900473ffffffffffffffffffffffffffffffffffffffff1673ffffffffffffffffffffffffffffffffffffffff1663feaf968c6040518163ffffffff1660e01b815260040160a060405180830381865afa158015611d97573d5f5f3e3d5ffd5b505050506040513d601f19601f82011682018060405250810190611dbb91906124ba565b509350509250505f8203611dfb576040517f144c1d9500000000000000000000000000000000000000000000000000000000815260040160405180910390fd5b610e1061ffff168142611e0e9190612276565b11611e45576040517f19abf40e00000000000000000000000000000000000000000000000000000000815260040160405180910390fd5b819250505090565b5f33905090565b5f5f60205f8451602086015f885af180611e73576040513d5f823e3d81fd5b3d92505f519150505f8214611e8c576001811415611ea7565b5f8473ffffffffffffffffffffffffffffffffffffffff163b145b15611ee957836040517f5274afe7000000000000000000000000000000000000000000000000000000008152600401611ee09190612039565b60405180910390fd5b50505050565b5f819050919050565b611f0181611eef565b82525050565b5f602082019050611f1a5f830184611ef8565b92915050565b5f5ffd5b5f73ffffffffffffffffffffffffffffffffffffffff82169050919050565b5f611f4d82611f24565b9050919050565b611f5d81611f43565b8114611f67575f5ffd5b50565b5f81359050611f7881611f54565b92915050565b5f60208284031215611f9357611f92611f20565b5b5f611fa084828501611f6a565b91505092915050565b5f5f60408385031215611fbf57611fbe611f20565b5b5f611fcc85828601611f6a565b9250506020611fdd85828601611f6a565b9150509250929050565b5f6fffffffffffffffffffffffffffffffff82169050919050565b61200b81611fe7565b82525050565b5f6020820190506120245f830184612002565b92915050565b61203381611f43565b82525050565b5f60208201905061204c5f83018461202a565b92915050565b61205b81611eef565b8114612065575f5ffd5b50565b5f8135905061207681612052565b92915050565b5f5f6040838503121561209257612091611f20565b5b5f61209f85828601611f6a565b92505060206120b085828601612068565b9150509250929050565b5f602082840312156120cf576120ce611f20565b5b5f6120dc84828501612068565b91505092915050565b5f819050919050565b5f6121086121036120fe84611f24565b6120e5565b611f24565b9050919050565b5f612119826120ee565b9050919050565b5f61212a8261210f565b9050919050565b61213a81612120565b82525050565b5f6020820190506121535f830184612131565b92915050565b5f60408201905061216c5f83018561202a565b6121796020830184611ef8565b9392505050565b7f4e487b71000000000000000000000000000000000000000000000000000000005f52601160045260245ffd5b5f6121b782611eef565b91506121c283611eef565b92508282019050808211156121da576121d9612180565b5b92915050565b5f63ffffffff82169050919050565b5f6121f9826121e0565b915063ffffffff820361220f5761220e612180565b5b600182019050919050565b5f60408201905061222d5f830185612131565b61223a6020830184612131565b9392505050565b5f6060820190506122545f83018661202a565b612261602083018561202a565b61226e6040830184611ef8565b949350505050565b5f61228082611eef565b915061228b83611eef565b92508282039050818111156122a3576122a2612180565b5b92915050565b5f6122b382611eef565b91506122be83611eef565b92508282026122cc81611eef565b915082820484148315176122e3576122e2612180565b5b5092915050565b7f4e487b71000000000000000000000000000000000000000000000000000000005f52601260045260245ffd5b5f61232182611eef565b915061232c83611eef565b92508261233c5761233b6122ea565b5b828204905092915050565b5f81905092915050565b50565b5f61235f5f83612347565b915061236a82612351565b5f82019050919050565b5f61237e82612354565b9150819050919050565b5f81519050919050565b5f82825260208201905092915050565b8281835e5f83830152505050565b5f601f19601f8301169050919050565b5f6123ca82612388565b6123d48185612392565b93506123e48185602086016123a2565b6123ed816123b0565b840191505092915050565b5f60608201905061240b5f83018661202a565b6124186020830185611ef8565b818103604083015261242a81846123c0565b9050949350505050565b5f69ffffffffffffffffffff82169050919050565b61245281612434565b811461245c575f5ffd5b50565b5f8151905061246d81612449565b92915050565b5f819050919050565b61248581612473565b811461248f575f5ffd5b50565b5f815190506124a08161247c565b92915050565b5f815190506124b481612052565b92915050565b5f5f5f5f5f60a086880312156124d3576124d2611f20565b5b5f6124e08882890161245f565b95505060206124f188828901612492565b9450506040612502888289016124a6565b9350506060612513888289016124a6565b92505060806125248882890161245f565b915050929550929590935056fea2646970667358221220e90310a5100fe560d6810157cc1fac8d6dd38a1c005cccd98f3e99f8d1c944ff64736f6c634300081e0033",
					"opcodes": "PUSH1 0xC0 PUSH1 0x40 MSTORE PUSH8 0xDE0B6B3A7640000 PUSH16 0xFFFFFFFFFFFFFFFFFFFFFFFFFFFFFFFF AND PUSH1 0xA0 SWAP1 PUSH16 0xFFFFFFFFFFFFFFFFFFFFFFFFFFFFFFFF AND DUP2 MSTORE POP CALLVALUE DUP1 ISZERO PUSH2 0x42 JUMPI PUSH0 PUSH0 REVERT JUMPDEST POP PUSH1 0x40 MLOAD PUSH2 0x28B8 CODESIZE SUB DUP1 PUSH2 0x28B8 DUP4 CODECOPY DUP2 DUP2 ADD PUSH1 0x40 MSTORE DUP2 ADD SWAP1 PUSH2 0x64 SWAP2 SWAP1 PUSH2 0x2BC JUMP JUMPDEST CALLER PUSH0 PUSH20 0xFFFFFFFFFFFFFFFFFFFFFFFFFFFFFFFFFFFFFFFF AND DUP2 PUSH20 0xFFFFFFFFFFFFFFFFFFFFFFFFFFFFFFFFFFFFFFFF AND SUB PUSH2 0xD5 JUMPI PUSH0 PUSH1 0x40 MLOAD PUSH32 0x1E4FBDF700000000000000000000000000000000000000000000000000000000 DUP2 MSTORE PUSH1 0x4 ADD PUSH2 0xCC SWAP2 SWAP1 PUSH2 0x309 JUMP JUMPDEST PUSH1 0x40 MLOAD DUP1 SWAP2 SUB SWAP1 REVERT JUMPDEST PUSH2 0xE4 DUP2 PUSH2 0x158 PUSH1 0x20 SHL PUSH1 0x20 SHR JUMP JUMPDEST POP DUP2 PUSH16 0xFFFFFFFFFFFFFFFFFFFFFFFFFFFFFFFF AND PUSH1 0x80 DUP2 PUSH16 0xFFFFFFFFFFFFFFFFFFFFFFFFFFFFFFFF AND DUP2 MSTORE POP POP DUP1 PUSH1 0x1 PUSH0 PUSH2 0x100 EXP DUP2 SLOAD DUP2 PUSH20 0xFFFFFFFFFFFFFFFFFFFFFFFFFFFFFFFFFFFFFFFF MUL NOT AND SWAP1 DUP4 PUSH20 0xFFFFFFFFFFFFFFFFFFFFFFFFFFFFFFFFFFFFFFFF AND MUL OR SWAP1 SSTORE POP POP POP PUSH2 0x322 JUMP JUMPDEST PUSH0 PUSH0 PUSH0 SWAP1 SLOAD SWAP1 PUSH2 0x100 EXP SWAP1 DIV PUSH20 0xFFFFFFFFFFFFFFFFFFFFFFFFFFFFFFFFFFFFFFFF AND SWAP1 POP DUP2 PUSH0 PUSH0 PUSH2 0x100 EXP DUP2 SLOAD DUP2 PUSH20 0xFFFFFFFFFFFFFFFFFFFFFFFFFFFFFFFFFFFFFFFF MUL NOT AND SWAP1 DUP4 PUSH20 0xFFFFFFFFFFFFFFFFFFFFFFFFFFFFFFFFFFFFFFFF AND MUL OR SWAP1 SSTORE POP DUP2 PUSH20 0xFFFFFFFFFFFFFFFFFFFFFFFFFFFFFFFFFFFFFFFF AND DUP2 PUSH20 0xFFFFFFFFFFFFFFFFFFFFFFFFFFFFFFFFFFFFFFFF AND PUSH32 0x8BE0079C531659141344CD1FD0A4F28419497F9722A3DAAFE3B4186F6B6457E0 PUSH1 0x40 MLOAD PUSH1 0x40 MLOAD DUP1 SWAP2 SUB SWAP1 LOG3 POP POP JUMP JUMPDEST PUSH0 PUSH0 REVERT JUMPDEST PUSH0 PUSH16 0xFFFFFFFFFFFFFFFFFFFFFFFFFFFFFFFF DUP3 AND SWAP1 POP SWAP2 SWAP1 POP JUMP JUMPDEST PUSH2 0x241 DUP2 PUSH2 0x21D JUMP JUMPDEST DUP2 EQ PUSH2 0x24B JUMPI PUSH0 PUSH0 REVERT JUMPDEST POP JUMP JUMPDEST PUSH0 DUP2 MLOAD SWAP1 POP PUSH2 0x25C DUP2 PUSH2 0x238 JUMP JUMPDEST SWAP3 SWAP2 POP POP JUMP JUMPDEST PUSH0 PUSH20 0xFFFFFFFFFFFFFFFFFFFFFFFFFFFFFFFFFFFFFFFF DUP3 AND SWAP1 POP SWAP2 SWAP1 POP JUMP JUMPDEST PUSH0 PUSH2 0x28B DUP3 PUSH2 0x262 JUMP JUMPDEST SWAP1 POP SWAP2 SWAP1 POP JUMP JUMPDEST PUSH2 0x29B DUP2 PUSH2 0x281 JUMP JUMPDEST DUP2 EQ PUSH2 0x2A5 JUMPI PUSH0 PUSH0 REVERT JUMPDEST POP JUMP JUMPDEST PUSH0 DUP2 MLOAD SWAP1 POP PUSH2 0x2B6 DUP2 PUSH2 0x292 JUMP JUMPDEST SWAP3 SWAP2 POP POP JUMP JUMPDEST PUSH0 PUSH0 PUSH1 0x40 DUP4 DUP6 SUB SLT ISZERO PUSH2 0x2D2 JUMPI PUSH2 0x2D1 PUSH2 0x219 JUMP JUMPDEST JUMPDEST PUSH0 PUSH2 0x2DF DUP6 DUP3 DUP7 ADD PUSH2 0x24E JUMP JUMPDEST SWAP3 POP POP PUSH1 0x20 PUSH2 0x2F0 DUP6 DUP3 DUP7 ADD PUSH2 0x2A8 JUMP JUMPDEST SWAP2 POP POP SWAP3 POP SWAP3 SWAP1 POP JUMP JUMPDEST PUSH2 0x303 DUP2 PUSH2 0x281 JUMP JUMPDEST DUP3 MSTORE POP POP JUMP JUMPDEST PUSH0 PUSH1 0x20 DUP3 ADD SWAP1 POP PUSH2 0x31C PUSH0 DUP4 ADD DUP5 PUSH2 0x2FA JUMP JUMPDEST SWAP3 SWAP2 POP POP JUMP JUMPDEST PUSH1 0x80 MLOAD PUSH1 0xA0 MLOAD PUSH2 0x2567 PUSH2 0x351 PUSH0 CODECOPY PUSH0 DUP2 DUP2 PUSH2 0xCFC ADD MSTORE PUSH2 0x1568 ADD MSTORE PUSH0 DUP2 DUP2 PUSH2 0x658 ADD MSTORE PUSH2 0xD20 ADD MSTORE PUSH2 0x2567 PUSH0 RETURN INVALID PUSH1 0x80 PUSH1 0x40 MSTORE PUSH1 0x4 CALLDATASIZE LT PUSH2 0x169 JUMPI PUSH0 CALLDATALOAD PUSH1 0xE0 SHR DUP1 PUSH4 0x94F649DD GT PUSH2 0xD0 JUMPI DUP1 PUSH4 0xC311D049 GT PUSH2 0x89 JUMPI DUP1 PUSH4 0xD2706C91 GT PUSH2 0x63 JUMPI DUP1 PUSH4 0xD2706C91 EQ PUSH2 0x542 JUMPI DUP1 PUSH4 0xEF649249 EQ PUSH2 0x57E JUMPI DUP1 PUSH4 0xF2FDE38B EQ PUSH2 0x5A8 JUMPI DUP1 PUSH4 0xF8B2CB4F EQ PUSH2 0x5D0 JUMPI PUSH2 0x178 JUMP JUMPDEST DUP1 PUSH4 0xC311D049 EQ PUSH2 0x4B4 JUMPI DUP1 PUSH4 0xC3A8962C EQ PUSH2 0x4DC JUMPI DUP1 PUSH4 0xC77E551B EQ PUSH2 0x518 JUMPI PUSH2 0x178 JUMP JUMPDEST DUP1 PUSH4 0x94F649DD EQ PUSH2 0x374 JUMPI DUP1 PUSH4 0x962B9BCC EQ PUSH2 0x3B0 JUMPI DUP1 PUSH4 0x97FEB926 EQ PUSH2 0x3EC JUMPI DUP1 PUSH4 0xA1DB9782 EQ PUSH2 0x414 JUMPI DUP1 PUSH4 0xA2ABECD3 EQ PUSH2 0x43C JUMPI DUP1 PUSH4 0xB588D225 EQ PUSH2 0x478 JUMPI PUSH2 0x178 JUMP JUMPDEST DUP1 PUSH4 0x6B149D87 GT PUSH2 0x122 JUMPI DUP1 PUSH4 0x6B149D87 EQ PUSH2 0x28E JUMPI DUP1 PUSH4 0x715018A6 EQ PUSH2 0x2B8 JUMPI DUP1 PUSH4 0x7DC532C5 EQ PUSH2 0x2CE JUMPI DUP1 PUSH4 0x7F86EE43 EQ PUSH2 0x2F6 JUMPI DUP1 PUSH4 0x80EF10ED EQ PUSH2 0x320 JUMPI DUP1 PUSH4 0x8DA5CB5B EQ PUSH2 0x34A JUMPI PUSH2 0x178 JUMP JUMPDEST DUP1 PUSH4 0x12065FE0 EQ PUSH2 0x17C JUMPI DUP1 PUSH4 0x21D60805 EQ PUSH2 0x1A6 JUMPI DUP1 PUSH4 0x297BEB3C EQ PUSH2 0x1E2 JUMPI DUP1 PUSH4 0x3A2B643A EQ PUSH2 0x21E JUMPI DUP1 PUSH4 0x439370B1 EQ PUSH2 0x25A JUMPI DUP1 PUSH4 0x50D6C1E8 EQ PUSH2 0x264 JUMPI PUSH2 0x178 JUMP JUMPDEST CALLDATASIZE PUSH2 0x178 JUMPI PUSH2 0x176 PUSH2 0x60C JUMP JUMPDEST STOP JUMPDEST PUSH0 PUSH0 REVERT JUMPDEST CALLVALUE DUP1 ISZERO PUSH2 0x187 JUMPI PUSH0 PUSH0 REVERT JUMPDEST POP PUSH2 0x190 PUSH2 0x8D5 JUMP JUMPDEST PUSH1 0x40 MLOAD PUSH2 0x19D SWAP2 SWAP1 PUSH2 0x1F07 JUMP JUMPDEST PUSH1 0x40 MLOAD DUP1 SWAP2 SUB SWAP1 RETURN JUMPDEST CALLVALUE DUP1 ISZERO PUSH2 0x1B1 JUMPI PUSH0 PUSH0 REVERT JUMPDEST POP PUSH2 0x1CC PUSH1 0x4 DUP1 CALLDATASIZE SUB DUP2 ADD SWAP1 PUSH2 0x1C7 SWAP2 SWAP1 PUSH2 0x1F7E JUMP JUMPDEST PUSH2 0x954 JUMP JUMPDEST PUSH1 0x40 MLOAD PUSH2 0x1D9 SWAP2 SWAP1 PUSH2 0x1F07 JUMP JUMPDEST PUSH1 0x40 MLOAD DUP1 SWAP2 SUB SWAP1 RETURN JUMPDEST CALLVALUE DUP1 ISZERO PUSH2 0x1ED JUMPI PUSH0 PUSH0 REVERT JUMPDEST POP PUSH2 0x208 PUSH1 0x4 DUP1 CALLDATASIZE SUB DUP2 ADD SWAP1 PUSH2 0x203 SWAP2 SWAP1 PUSH2 0x1FA9 JUMP JUMPDEST PUSH2 0x9DD JUMP JUMPDEST PUSH1 0x40 MLOAD PUSH2 0x215 SWAP2 SWAP1 PUSH2 0x1F07 JUMP JUMPDEST PUSH1 0x40 MLOAD DUP1 SWAP2 SUB SWAP1 RETURN JUMPDEST CALLVALUE DUP1 ISZERO PUSH2 0x229 JUMPI PUSH0 PUSH0 REVERT JUMPDEST POP PUSH2 0x244 PUSH1 0x4 DUP1 CALLDATASIZE SUB DUP2 ADD SWAP1 PUSH2 0x23F SWAP2 SWAP1 PUSH2 0x1F7E JUMP JUMPDEST PUSH2 0xA7C JUMP JUMPDEST PUSH1 0x40 MLOAD PUSH2 0x251 SWAP2 SWAP1 PUSH2 0x1F07 JUMP JUMPDEST PUSH1 0x40 MLOAD DUP1 SWAP2 SUB SWAP1 RETURN JUMPDEST PUSH2 0x262 PUSH2 0x60C JUMP JUMPDEST STOP JUMPDEST CALLVALUE DUP1 ISZERO PUSH2 0x26F JUMPI PUSH0 PUSH0 REVERT JUMPDEST POP PUSH2 0x278 PUSH2 0xB1A JUMP JUMPDEST PUSH1 0x40 MLOAD PUSH2 0x285 SWAP2 SWAP1 PUSH2 0x1F07 JUMP JUMPDEST PUSH1 0x40 MLOAD DUP1 SWAP2 SUB SWAP1 RETURN JUMPDEST CALLVALUE DUP1 ISZERO PUSH2 0x299 JUMPI PUSH0 PUSH0 REVERT JUMPDEST POP PUSH2 0x2A2 PUSH2 0xBAE JUMP JUMPDEST PUSH1 0x40 MLOAD PUSH2 0x2AF SWAP2 SWAP1 PUSH2 0x1F07 JUMP JUMPDEST PUSH1 0x40 MLOAD DUP1 SWAP2 SUB SWAP1 RETURN JUMPDEST CALLVALUE DUP1 ISZERO PUSH2 0x2C3 JUMPI PUSH0 PUSH0 REVERT JUMPDEST POP PUSH2 0x2CC PUSH2 0xC42 JUMP JUMPDEST STOP JUMPDEST CALLVALUE DUP1 ISZERO PUSH2 0x2D9 JUMPI PUSH0 PUSH0 REVERT JUMPDEST POP PUSH2 0x2F4 PUSH1 0x4 DUP1 CALLDATASIZE SUB DUP2 ADD SWAP1 PUSH2 0x2EF SWAP2 SWAP1 PUSH2 0x1F7E JUMP JUMPDEST PUSH2 0xC55 JUMP JUMPDEST STOP JUMPDEST CALLVALUE DUP1 ISZERO PUSH2 0x301 JUMPI PUSH0 PUSH0 REVERT JUMPDEST POP PUSH2 0x30A PUSH2 0xCFA JUMP JUMPDEST PUSH1 0x40 MLOAD PUSH2 0x317 SWAP2 SWAP1 PUSH2 0x2011 JUMP JUMPDEST PUSH1 0x40 MLOAD DUP1 SWAP2 SUB SWAP1 RETURN JUMPDEST CALLVALUE DUP1 ISZERO PUSH2 0x32B JUMPI PUSH0 PUSH0 REVERT JUMPDEST POP PUSH2 0x334 PUSH2 0xD1E JUMP JUMPDEST PUSH1 0x40 MLOAD PUSH2 0x341 SWAP2 SWAP1 PUSH2 0x2011 JUMP JUMPDEST PUSH1 0x40 MLOAD DUP1 SWAP2 SUB SWAP1 RETURN JUMPDEST CALLVALUE DUP1 ISZERO PUSH2 0x355 JUMPI PUSH0 PUSH0 REVERT JUMPDEST POP PUSH2 0x35E PUSH2 0xD42 JUMP JUMPDEST PUSH1 0x40 MLOAD PUSH2 0x36B SWAP2 SWAP1 PUSH2 0x2039 JUMP JUMPDEST PUSH1 0x40 MLOAD DUP1 SWAP2 SUB SWAP1 RETURN JUMPDEST CALLVALUE DUP1 ISZERO PUSH2 0x37F JUMPI PUSH0 PUSH0 REVERT JUMPDEST POP PUSH2 0x39A PUSH1 0x4 DUP1 CALLDATASIZE SUB DUP2 ADD SWAP1 PUSH2 0x395 SWAP2 SWAP1 PUSH2 0x1F7E JUMP JUMPDEST PUSH2 0xD69 JUMP JUMPDEST PUSH1 0x40 MLOAD PUSH2 0x3A7 SWAP2 SWAP1 PUSH2 0x1F07 JUMP JUMPDEST PUSH1 0x40 MLOAD DUP1 SWAP2 SUB SWAP1 RETURN JUMPDEST CALLVALUE DUP1 ISZERO PUSH2 0x3BB JUMPI PUSH0 PUSH0 REVERT JUMPDEST POP PUSH2 0x3D6 PUSH1 0x4 DUP1 CALLDATASIZE SUB DUP2 ADD SWAP1 PUSH2 0x3D1 SWAP2 SWAP1 PUSH2 0x1FA9 JUMP JUMPDEST PUSH2 0xE07 JUMP JUMPDEST PUSH1 0x40 MLOAD PUSH2 0x3E3 SWAP2 SWAP1 PUSH2 0x1F07 JUMP JUMPDEST PUSH1 0x40 MLOAD DUP1 SWAP2 SUB SWAP1 RETURN JUMPDEST CALLVALUE DUP1 ISZERO PUSH2 0x3F7 JUMPI PUSH0 PUSH0 REVERT JUMPDEST POP PUSH2 0x412 PUSH1 0x4 DUP1 CALLDATASIZE SUB DUP2 ADD SWAP1 PUSH2 0x40D SWAP2 SWAP1 PUSH2 0x207C JUMP JUMPDEST PUSH2 0xEA6 JUMP JUMPDEST STOP JUMPDEST CALLVALUE DUP1 ISZERO PUSH2 0x41F JUMPI PUSH0 PUSH0 REVERT JUMPDEST POP PUSH2 0x43A PUSH1 0x4 DUP1 CALLDATASIZE SUB DUP2 ADD SWAP1 PUSH2 0x435 SWAP2 SWAP1 PUSH2 0x207C JUMP JUMPDEST PUSH2 0x10A0 JUMP JUMPDEST STOP JUMPDEST CALLVALUE DUP1 ISZERO PUSH2 0x447 JUMPI PUSH0 PUSH0 REVERT JUMPDEST POP PUSH2 0x462 PUSH1 0x4 DUP1 CALLDATASIZE SUB DUP2 ADD SWAP1 PUSH2 0x45D SWAP2 SWAP1 PUSH2 0x1F7E JUMP JUMPDEST PUSH2 0x1342 JUMP JUMPDEST PUSH1 0x40 MLOAD PUSH2 0x46F SWAP2 SWAP1 PUSH2 0x1F07 JUMP JUMPDEST PUSH1 0x40 MLOAD DUP1 SWAP2 SUB SWAP1 RETURN JUMPDEST CALLVALUE DUP1 ISZERO PUSH2 0x483 JUMPI PUSH0 PUSH0 REVERT JUMPDEST POP PUSH2 0x49E PUSH1 0x4 DUP1 CALLDATASIZE SUB DUP2 ADD SWAP1 PUSH2 0x499 SWAP2 SWAP1 PUSH2 0x1F7E JUMP JUMPDEST PUSH2 0x13D8 JUMP JUMPDEST PUSH1 0x40 MLOAD PUSH2 0x4AB SWAP2 SWAP1 PUSH2 0x1F07 JUMP JUMPDEST PUSH1 0x40 MLOAD DUP1 SWAP2 SUB SWAP1 RETURN JUMPDEST CALLVALUE DUP1 ISZERO PUSH2 0x4BF JUMPI PUSH0 PUSH0 REVERT JUMPDEST POP PUSH2 0x4DA PUSH1 0x4 DUP1 CALLDATASIZE SUB DUP2 ADD SWAP1 PUSH2 0x4D5 SWAP2 SWAP1 PUSH2 0x20BA JUMP JUMPDEST PUSH2 0x1459 JUMP JUMPDEST STOP JUMPDEST CALLVALUE DUP1 ISZERO PUSH2 0x4E7 JUMPI PUSH0 PUSH0 REVERT JUMPDEST POP PUSH2 0x502 PUSH1 0x4 DUP1 CALLDATASIZE SUB DUP2 ADD SWAP1 PUSH2 0x4FD SWAP2 SWAP1 PUSH2 0x1FA9 JUMP JUMPDEST PUSH2 0x176C JUMP JUMPDEST PUSH1 0x40 MLOAD PUSH2 0x50F SWAP2 SWAP1 PUSH2 0x1F07 JUMP JUMPDEST PUSH1 0x40 MLOAD DUP1 SWAP2 SUB SWAP1 RETURN JUMPDEST CALLVALUE DUP1 ISZERO PUSH2 0x523 JUMPI PUSH0 PUSH0 REVERT JUMPDEST POP PUSH2 0x52C PUSH2 0x17F6 JUMP JUMPDEST PUSH1 0x40 MLOAD PUSH2 0x539 SWAP2 SWAP1 PUSH2 0x2140 JUMP JUMPDEST PUSH1 0x40 MLOAD DUP1 SWAP2 SUB SWAP1 RETURN JUMPDEST CALLVALUE DUP1 ISZERO PUSH2 0x54D JUMPI PUSH0 PUSH0 REVERT JUMPDEST POP PUSH2 0x568 PUSH1 0x4 DUP1 CALLDATASIZE SUB DUP2 ADD SWAP1 PUSH2 0x563 SWAP2 SWAP1 PUSH2 0x1F7E JUMP JUMPDEST PUSH2 0x181B JUMP JUMPDEST PUSH1 0x40 MLOAD PUSH2 0x575 SWAP2 SWAP1 PUSH2 0x1F07 JUMP JUMPDEST PUSH1 0x40 MLOAD DUP1 SWAP2 SUB SWAP1 RETURN JUMPDEST CALLVALUE DUP1 ISZERO PUSH2 0x589 JUMPI PUSH0 PUSH0 REVERT JUMPDEST POP PUSH2 0x592 PUSH2 0x18B1 JUMP JUMPDEST PUSH1 0x40 MLOAD PUSH2 0x59F SWAP2 SWAP1 PUSH2 0x1F07 JUMP JUMPDEST PUSH1 0x40 MLOAD DUP1 SWAP2 SUB SWAP1 RETURN JUMPDEST CALLVALUE DUP1 ISZERO PUSH2 0x5B3 JUMPI PUSH0 PUSH0 REVERT JUMPDEST POP PUSH2 0x5CE PUSH1 0x4 DUP1 CALLDATASIZE SUB DUP2 ADD SWAP1 PUSH2 0x5C9 SWAP2 SWAP1 PUSH2 0x1F7E JUMP JUMPDEST PUSH2 0x1938 JUMP JUMPDEST STOP JUMPDEST CALLVALUE DUP1 ISZERO PUSH2 0x5DB JUMPI PUSH0 PUSH0 REVERT JUMPDEST POP PUSH2 0x5F6 PUSH1 0x4 DUP1 CALLDATASIZE SUB DUP2 ADD SWAP1 PUSH2 0x5F1 SWAP2 SWAP1 PUSH2 0x1F7E JUMP JUMPDEST PUSH2 0x19BC JUMP JUMPDEST PUSH1 0x40 MLOAD PUSH2 0x603 SWAP2 SWAP1 PUSH2 0x1F07 JUMP JUMPDEST PUSH1 0x40 MLOAD DUP1 SWAP2 SUB SWAP1 RETURN JUMPDEST PUSH0 CALLVALUE GT CALLER CALLVALUE SWAP1 SWAP2 PUSH2 0x654 JUMPI PUSH1 0x40 MLOAD PUSH32 0xACB26D8E00000000000000000000000000000000000000000000000000000000 DUP2 MSTORE PUSH1 0x4 ADD PUSH2 0x64B SWAP3 SWAP2 SWAP1 PUSH2 0x2159 JUMP JUMPDEST PUSH1 0x40 MLOAD DUP1 SWAP2 SUB SWAP1 REVERT JUMPDEST POP POP PUSH32 0x0 PUSH16 0xFFFFFFFFFFFFFFFFFFFFFFFFFFFFFFFF AND PUSH1 0x2 PUSH0 CALLER PUSH20 0xFFFFFFFFFFFFFFFFFFFFFFFFFFFFFFFFFFFFFFFF AND PUSH20 0xFFFFFFFFFFFFFFFFFFFFFFFFFFFFFFFFFFFFFFFF AND DUP2 MSTORE PUSH1 0x20 ADD SWAP1 DUP2 MSTORE PUSH1 0x20 ADD PUSH0 KECCAK256 PUSH0 PUSH0 PUSH20 0xFFFFFFFFFFFFFFFFFFFFFFFFFFFFFFFFFFFFFFFF AND PUSH20 0xFFFFFFFFFFFFFFFFFFFFFFFFFFFFFFFFFFFFFFFF AND DUP2 MSTORE PUSH1 0x20 ADD SWAP1 DUP2 MSTORE PUSH1 0x20 ADD PUSH0 KECCAK256 SLOAD CALLVALUE PUSH2 0x70D SWAP2 SWAP1 PUSH2 0x21AD JUMP JUMPDEST GT ISZERO CALLER CALLVALUE SWAP1 SWAP2 PUSH2 0x754 JUMPI PUSH1 0x40 MLOAD PUSH32 0xACB26D8E00000000000000000000000000000000000000000000000000000000 DUP2 MSTORE PUSH1 0x4 ADD PUSH2 0x74B SWAP3 SWAP2 SWAP1 PUSH2 0x2159 JUMP JUMPDEST PUSH1 0x40 MLOAD DUP1 SWAP2 SUB SWAP1 REVERT JUMPDEST POP POP CALLVALUE PUSH1 0x2 PUSH0 CALLER PUSH20 0xFFFFFFFFFFFFFFFFFFFFFFFFFFFFFFFFFFFFFFFF AND PUSH20 0xFFFFFFFFFFFFFFFFFFFFFFFFFFFFFFFFFFFFFFFF AND DUP2 MSTORE PUSH1 0x20 ADD SWAP1 DUP2 MSTORE PUSH1 0x20 ADD PUSH0 KECCAK256 PUSH0 PUSH0 PUSH20 0xFFFFFFFFFFFFFFFFFFFFFFFFFFFFFFFFFFFFFFFF AND PUSH20 0xFFFFFFFFFFFFFFFFFFFFFFFFFFFFFFFFFFFFFFFF AND DUP2 MSTORE PUSH1 0x20 ADD SWAP1 DUP2 MSTORE PUSH1 0x20 ADD PUSH0 KECCAK256 PUSH0 DUP3 DUP3 SLOAD PUSH2 0x7DD SWAP2 SWAP1 PUSH2 0x21AD JUMP JUMPDEST SWAP3 POP POP DUP2 SWAP1 SSTORE POP PUSH1 0x3 PUSH0 CALLER PUSH20 0xFFFFFFFFFFFFFFFFFFFFFFFFFFFFFFFFFFFFFFFF AND PUSH20 0xFFFFFFFFFFFFFFFFFFFFFFFFFFFFFFFFFFFFFFFF AND DUP2 MSTORE PUSH1 0x20 ADD SWAP1 DUP2 MSTORE PUSH1 0x20 ADD PUSH0 KECCAK256 PUSH0 PUSH0 PUSH20 0xFFFFFFFFFFFFFFFFFFFFFFFFFFFFFFFFFFFFFFFF AND PUSH20 0xFFFFFFFFFFFFFFFFFFFFFFFFFFFFFFFFFFFFFFFF AND DUP2 MSTORE PUSH1 0x20 ADD SWAP1 DUP2 MSTORE PUSH1 0x20 ADD PUSH0 KECCAK256 PUSH0 DUP2 DUP2 SWAP1 SLOAD SWAP1 PUSH2 0x100 EXP SWAP1 DIV PUSH4 0xFFFFFFFF AND DUP1 SWAP3 SWAP2 SWAP1 PUSH2 0x87B SWAP1 PUSH2 0x21EF JUMP JUMPDEST SWAP2 SWAP1 PUSH2 0x100 EXP DUP2 SLOAD DUP2 PUSH4 0xFFFFFFFF MUL NOT AND SWAP1 DUP4 PUSH4 0xFFFFFFFF AND MUL OR SWAP1 SSTORE POP POP PUSH32 0x2DA466A7B24304F47E87FA2E1E5A81B9831CE54FEC19055CE277CA2F39BA42C4 CALLER CALLVALUE PUSH1 0x40 MLOAD PUSH2 0x8CB SWAP3 SWAP2 SWAP1 PUSH2 0x2159 JUMP JUMPDEST PUSH1 0x40 MLOAD DUP1 SWAP2 SUB SWAP1 LOG1 JUMP JUMPDEST PUSH0 PUSH1 0x2 PUSH0 CALLER PUSH20 0xFFFFFFFFFFFFFFFFFFFFFFFFFFFFFFFFFFFFFFFF AND PUSH20 0xFFFFFFFFFFFFFFFFFFFFFFFFFFFFFFFFFFFFFFFF AND DUP2 MSTORE PUSH1 0x20 ADD SWAP1 DUP2 MSTORE PUSH1 0x20 ADD PUSH0 KECCAK256 PUSH0 PUSH0 PUSH20 0xFFFFFFFFFFFFFFFFFFFFFFFFFFFFFFFFFFFFFFFF AND PUSH20 0xFFFFFFFFFFFFFFFFFFFFFFFFFFFFFFFFFFFFFFFF AND DUP2 MSTORE PUSH1 0x20 ADD SWAP1 DUP2 MSTORE PUSH1 0x20 ADD PUSH0 KECCAK256 SLOAD SWAP1 POP SWAP1 JUMP JUMPDEST PUSH0 PUSH2 0x9D6 PUSH1 0x2 PUSH0 DUP5 PUSH20 0xFFFFFFFFFFFFFFFFFFFFFFFFFFFFFFFFFFFFFFFF AND PUSH20 0xFFFFFFFFFFFFFFFFFFFFFFFFFFFFFFFFFFFFFFFF AND DUP2 MSTORE PUSH1 0x20 ADD SWAP1 DUP2 MSTORE PUSH1 0x20 ADD PUSH0 KECCAK256 PUSH0 PUSH0 PUSH20 0xFFFFFFFFFFFFFFFFFFFFFFFFFFFFFFFFFFFFFFFF AND PUSH20 0xFFFFFFFFFFFFFFFFFFFFFFFFFFFFFFFFFFFFFFFF AND DUP2 MSTORE PUSH1 0x20 ADD SWAP1 DUP2 MSTORE PUSH1 0x20 ADD PUSH0 KECCAK256 SLOAD PUSH2 0x1A45 JUMP JUMPDEST SWAP1 POP SWAP2 SWAP1 POP JUMP JUMPDEST PUSH0 PUSH2 0x9E6 PUSH2 0x1A74 JUMP JUMPDEST PUSH1 0x3 PUSH0 DUP5 PUSH20 0xFFFFFFFFFFFFFFFFFFFFFFFFFFFFFFFFFFFFFFFF AND PUSH20 0xFFFFFFFFFFFFFFFFFFFFFFFFFFFFFFFFFFFFFFFF AND DUP2 MSTORE PUSH1 0x20 ADD SWAP1 DUP2 MSTORE PUSH1 0x20 ADD PUSH0 KECCAK256 PUSH0 DUP4 PUSH20 0xFFFFFFFFFFFFFFFFFFFFFFFFFFFFFFFFFFFFFFFF AND PUSH20 0xFFFFFFFFFFFFFFFFFFFFFFFFFFFFFFFFFFFFFFFF AND DUP2 MSTORE PUSH1 0x20 ADD SWAP1 DUP2 MSTORE PUSH1 0x20 ADD PUSH0 KECCAK256 PUSH0 SWAP1 SLOAD SWAP1 PUSH2 0x100 EXP SWAP1 DIV PUSH4 0xFFFFFFFF AND PUSH4 0xFFFFFFFF AND SWAP1 POP SWAP3 SWAP2 POP POP JUMP JUMPDEST PUSH0 PUSH2 0xA85 PUSH2 0x1A74 JUMP JUMPDEST PUSH1 0x4 PUSH0 DUP4 PUSH20 0xFFFFFFFFFFFFFFFFFFFFFFFFFFFFFFFFFFFFFFFF AND PUSH20 0xFFFFFFFFFFFFFFFFFFFFFFFFFFFFFFFFFFFFFFFF AND DUP2 MSTORE PUSH1 0x20 ADD SWAP1 DUP2 MSTORE PUSH1 0x20 ADD PUSH0 KECCAK256 PUSH0 PUSH0 PUSH20 0xFFFFFFFFFFFFFFFFFFFFFFFFFFFFFFFFFFFFFFFF AND PUSH20 0xFFFFFFFFFFFFFFFFFFFFFFFFFFFFFFFFFFFFFFFF AND DUP2 MSTORE PUSH1 0x20 ADD SWAP1 DUP2 MSTORE PUSH1 0x20 ADD PUSH0 KECCAK256 PUSH0 SWAP1 SLOAD SWAP1 PUSH2 0x100 EXP SWAP1 DIV PUSH4 0xFFFFFFFF AND PUSH4 0xFFFFFFFF AND SWAP1 POP SWAP2 SWAP1 POP JUMP JUMPDEST PUSH0 PUSH1 0x4 PUSH0 CALLER PUSH20 0xFFFFFFFFFFFFFFFFFFFFFFFFFFFFFFFFFFFFFFFF AND PUSH20 0xFFFFFFFFFFFFFFFFFFFFFFFFFFFFFFFFFFFFFFFF AND DUP2 MSTORE PUSH1 0x20 ADD SWAP1 DUP2 MSTORE PUSH1 0x20 ADD PUSH0 KECCAK256 PUSH0 PUSH0 PUSH20 0xFFFFFFFFFFFFFFFFFFFFFFFFFFFFFFFFFFFFFFFF AND PUSH20 0xFFFFFFFFFFFFFFFFFFFFFFFFFFFFFFFFFFFFFFFF AND DUP2 MSTORE PUSH1 0x20 ADD SWAP1 DUP2 MSTORE PUSH1 0x20 ADD PUSH0 KECCAK256 PUSH0 SWAP1 SLOAD SWAP1 PUSH2 0x100 EXP SWAP1 DIV PUSH4 0xFFFFFFFF AND PUSH4 0xFFFFFFFF AND SWAP1 POP SWAP1 JUMP JUMPDEST PUSH0 PUSH1 0x3 PUSH0 CALLER PUSH20 0xFFFFFFFFFFFFFFFFFFFFFFFFFFFFFFFFFFFFFFFF AND PUSH20 0xFFFFFFFFFFFFFFFFFFFFFFFFFFFFFFFFFFFFFFFF AND DUP2 MSTORE PUSH1 0x20 ADD SWAP1 DUP2 MSTORE PUSH1 0x20 ADD PUSH0 KECCAK256 PUSH0 PUSH0 PUSH20 0xFFFFFFFFFFFFFFFFFFFFFFFFFFFFFFFFFFFFFFFF AND PUSH20 0xFFFFFFFFFFFFFFFFFFFFFFFFFFFFFFFFFFFFFFFF AND DUP2 MSTORE PUSH1 0x20 ADD SWAP1 DUP2 MSTORE PUSH1 0x20 ADD PUSH0 KECCAK256 PUSH0 SWAP1 SLOAD SWAP1 PUSH2 0x100 EXP SWAP1 DIV PUSH4 0xFFFFFFFF AND PUSH4 0xFFFFFFFF AND SWAP1 POP SWAP1 JUMP JUMPDEST PUSH2 0xC4A PUSH2 0x1A74 JUMP JUMPDEST PUSH2 0xC53 PUSH0 PUSH2 0x1AFB JUMP JUMPDEST JUMP JUMPDEST PUSH2 0xC5D PUSH2 0x1A74 JUMP JUMPDEST PUSH32 0x3BE680563C528780D5A9CD763A27B4A48AB5F9DC10E4083A2FA55B6FC5FF33E6 PUSH1 0x1 PUSH0 SWAP1 SLOAD SWAP1 PUSH2 0x100 EXP SWAP1 DIV PUSH20 0xFFFFFFFFFFFFFFFFFFFFFFFFFFFFFFFFFFFFFFFF AND DUP3 PUSH1 0x40 MLOAD PUSH2 0xCAF SWAP3 SWAP2 SWAP1 PUSH2 0x221A JUMP JUMPDEST PUSH1 0x40 MLOAD DUP1 SWAP2 SUB SWAP1 LOG1 DUP1 PUSH1 0x1 PUSH0 PUSH2 0x100 EXP DUP2 SLOAD DUP2 PUSH20 0xFFFFFFFFFFFFFFFFFFFFFFFFFFFFFFFFFFFFFFFF MUL NOT AND SWAP1 DUP4 PUSH20 0xFFFFFFFFFFFFFFFFFFFFFFFFFFFFFFFFFFFFFFFF AND MUL OR SWAP1 SSTORE POP POP JUMP JUMPDEST PUSH32 0x0 DUP2 JUMP JUMPDEST PUSH32 0x0 DUP2 JUMP JUMPDEST PUSH0 PUSH0 PUSH0 SWAP1 SLOAD SWAP1 PUSH2 0x100 EXP SWAP1 DIV PUSH20 0xFFFFFFFFFFFFFFFFFFFFFFFFFFFFFFFFFFFFFFFF AND SWAP1 POP SWAP1 JUMP JUMPDEST PUSH0 PUSH2 0xD72 PUSH2 0x1A74 JUMP JUMPDEST PUSH1 0x3 PUSH0 DUP4 PUSH20 0xFFFFFFFFFFFFFFFFFFFFFFFFFFFFFFFFFFFFFFFF AND PUSH20 0xFFFFFFFFFFFFFFFFFFFFFFFFFFFFFFFFFFFFFFFF AND DUP2 MSTORE PUSH1 0x20 ADD SWAP1 DUP2 MSTORE PUSH1 0x20 ADD PUSH0 KECCAK256 PUSH0 PUSH0 PUSH20 0xFFFFFFFFFFFFFFFFFFFFFFFFFFFFFFFFFFFFFFFF AND PUSH20 0xFFFFFFFFFFFFFFFFFFFFFFFFFFFFFFFFFFFFFFFF AND DUP2 MSTORE PUSH1 0x20 ADD SWAP1 DUP2 MSTORE PUSH1 0x20 ADD PUSH0 KECCAK256 PUSH0 SWAP1 SLOAD SWAP1 PUSH2 0x100 EXP SWAP1 DIV PUSH4 0xFFFFFFFF AND PUSH4 0xFFFFFFFF AND SWAP1 POP SWAP2 SWAP1 POP JUMP JUMPDEST PUSH0 PUSH2 0xE10 PUSH2 0x1A74 JUMP JUMPDEST PUSH1 0x4 PUSH0 DUP5 PUSH20 0xFFFFFFFFFFFFFFFFFFFFFFFFFFFFFFFFFFFFFFFF AND PUSH20 0xFFFFFFFFFFFFFFFFFFFFFFFFFFFFFFFFFFFFFFFF AND DUP2 MSTORE PUSH1 0x20 ADD SWAP1 DUP2 MSTORE PUSH1 0x20 ADD PUSH0 KECCAK256 PUSH0 DUP4 PUSH20 0xFFFFFFFFFFFFFFFFFFFFFFFFFFFFFFFFFFFFFFFF AND PUSH20 0xFFFFFFFFFFFFFFFFFFFFFFFFFFFFFFFFFFFFFFFF AND DUP2 MSTORE PUSH1 0x20 ADD SWAP1 DUP2 MSTORE PUSH1 0x20 ADD PUSH0 KECCAK256 PUSH0 SWAP1 SLOAD SWAP1 PUSH2 0x100 EXP SWAP1 DIV PUSH4 0xFFFFFFFF AND PUSH4 0xFFFFFFFF AND SWAP1 POP SWAP3 SWAP2 POP POP JUMP JUMPDEST PUSH0 DUP2 GT CALLER DUP3 SWAP1 SWAP2 PUSH2 0xEEE JUMPI PUSH1 0x40 MLOAD PUSH32 0xACB26D8E00000000000000000000000000000000000000000000000000000000 DUP2 MSTORE PUSH1 0x4 ADD PUSH2 0xEE5 SWAP3 SWAP2 SWAP1 PUSH2 0x2159 JUMP JUMPDEST PUSH1 0x40 MLOAD DUP1 SWAP2 SUB SWAP1 REVERT JUMPDEST POP POP DUP1 PUSH1 0x2 PUSH0 CALLER PUSH20 0xFFFFFFFFFFFFFFFFFFFFFFFFFFFFFFFFFFFFFFFF AND PUSH20 0xFFFFFFFFFFFFFFFFFFFFFFFFFFFFFFFFFFFFFFFF AND DUP2 MSTORE PUSH1 0x20 ADD SWAP1 DUP2 MSTORE PUSH1 0x20 ADD PUSH0 KECCAK256 PUSH0 DUP5 PUSH20 0xFFFFFFFFFFFFFFFFFFFFFFFFFFFFFFFFFFFFFFFF AND PUSH20 0xFFFFFFFFFFFFFFFFFFFFFFFFFFFFFFFFFFFFFFFF AND DUP2 MSTORE PUSH1 0x20 ADD SWAP1 DUP2 MSTORE PUSH1 0x20 ADD PUSH0 KECCAK256 PUSH0 DUP3 DUP3 SLOAD PUSH2 0xF77 SWAP2 SWAP1 PUSH2 0x21AD JUMP JUMPDEST SWAP3 POP POP DUP2 SWAP1 SSTORE POP PUSH1 0x3 PUSH0 CALLER PUSH20 0xFFFFFFFFFFFFFFFFFFFFFFFFFFFFFFFFFFFFFFFF AND PUSH20 0xFFFFFFFFFFFFFFFFFFFFFFFFFFFFFFFFFFFFFFFF AND DUP2 MSTORE PUSH1 0x20 ADD SWAP1 DUP2 MSTORE PUSH1 0x20 ADD PUSH0 KECCAK256 PUSH0 DUP4 PUSH20 0xFFFFFFFFFFFFFFFFFFFFFFFFFFFFFFFFFFFFFFFF AND PUSH20 0xFFFFFFFFFFFFFFFFFFFFFFFFFFFFFFFFFFFFFFFF AND DUP2 MSTORE PUSH1 0x20 ADD SWAP1 DUP2 MSTORE PUSH1 0x20 ADD PUSH0 KECCAK256 PUSH0 DUP2 DUP2 SWAP1 SLOAD SWAP1 PUSH2 0x100 EXP SWAP1 DIV PUSH4 0xFFFFFFFF AND DUP1 SWAP3 SWAP2 SWAP1 PUSH2 0x1015 SWAP1 PUSH2 0x21EF JUMP JUMPDEST SWAP2 SWAP1 PUSH2 0x100 EXP DUP2 SLOAD DUP2 PUSH4 0xFFFFFFFF MUL NOT AND SWAP1 DUP4 PUSH4 0xFFFFFFFF AND MUL OR SWAP1 SSTORE POP POP PUSH32 0xE33E9822E3317B004D587136BAB2627EA1ECFBBA4EB79ABDDD0A56CFDD09C0E1 CALLER DUP4 DUP4 PUSH1 0x40 MLOAD PUSH2 0x1067 SWAP4 SWAP3 SWAP2 SWAP1 PUSH2 0x2241 JUMP JUMPDEST PUSH1 0x40 MLOAD DUP1 SWAP2 SUB SWAP1 LOG1 PUSH2 0x109C CALLER ADDRESS DUP4 DUP6 PUSH20 0xFFFFFFFFFFFFFFFFFFFFFFFFFFFFFFFFFFFFFFFF AND PUSH2 0x1BBC SWAP1 SWAP4 SWAP3 SWAP2 SWAP1 PUSH4 0xFFFFFFFF AND JUMP JUMPDEST POP POP JUMP JUMPDEST PUSH0 DUP2 GT CALLER DUP4 DUP4 SWAP1 SWAP2 SWAP3 PUSH2 0x10EB JUMPI PUSH1 0x40 MLOAD PUSH32 0xB4E4601D00000000000000000000000000000000000000000000000000000000 DUP2 MSTORE PUSH1 0x4 ADD PUSH2 0x10E2 SWAP4 SWAP3 SWAP2 SWAP1 PUSH2 0x2241 JUMP JUMPDEST PUSH1 0x40 MLOAD DUP1 SWAP2 SUB SWAP1 REVERT JUMPDEST POP POP POP PUSH1 0x2 PUSH0 CALLER PUSH20 0xFFFFFFFFFFFFFFFFFFFFFFFFFFFFFFFFFFFFFFFF AND PUSH20 0xFFFFFFFFFFFFFFFFFFFFFFFFFFFFFFFFFFFFFFFF AND DUP2 MSTORE PUSH1 0x20 ADD SWAP1 DUP2 MSTORE PUSH1 0x20 ADD PUSH0 KECCAK256 PUSH0 DUP4 PUSH20 0xFFFFFFFFFFFFFFFFFFFFFFFFFFFFFFFFFFFFFFFF AND PUSH20 0xFFFFFFFFFFFFFFFFFFFFFFFFFFFFFFFFFFFFFFFF AND DUP2 MSTORE PUSH1 0x20 ADD SWAP1 DUP2 MSTORE PUSH1 0x20 ADD PUSH0 KECCAK256 SLOAD DUP2 GT ISZERO CALLER DUP4 DUP4 SWAP1 SWAP2 SWAP3 PUSH2 0x11B2 JUMPI PUSH1 0x40 MLOAD PUSH32 0xB4E4601D00000000000000000000000000000000000000000000000000000000 DUP2 MSTORE PUSH1 0x4 ADD PUSH2 0x11A9 SWAP4 SWAP3 SWAP2 SWAP1 PUSH2 0x2241 JUMP JUMPDEST PUSH1 0x40 MLOAD DUP1 SWAP2 SUB SWAP1 REVERT JUMPDEST POP POP POP DUP1 PUSH1 0x2 PUSH0 CALLER PUSH20 0xFFFFFFFFFFFFFFFFFFFFFFFFFFFFFFFFFFFFFFFF AND PUSH20 0xFFFFFFFFFFFFFFFFFFFFFFFFFFFFFFFFFFFFFFFF AND DUP2 MSTORE PUSH1 0x20 ADD SWAP1 DUP2 MSTORE PUSH1 0x20 ADD PUSH0 KECCAK256 PUSH0 DUP5 PUSH20 0xFFFFFFFFFFFFFFFFFFFFFFFFFFFFFFFFFFFFFFFF AND PUSH20 0xFFFFFFFFFFFFFFFFFFFFFFFFFFFFFFFFFFFFFFFF AND DUP2 MSTORE PUSH1 0x20 ADD SWAP1 DUP2 MSTORE PUSH1 0x20 ADD PUSH0 KECCAK256 PUSH0 DUP3 DUP3 SLOAD PUSH2 0x123C SWAP2 SWAP1 PUSH2 0x2276 JUMP JUMPDEST SWAP3 POP POP DUP2 SWAP1 SSTORE POP PUSH1 0x4 PUSH0 CALLER PUSH20 0xFFFFFFFFFFFFFFFFFFFFFFFFFFFFFFFFFFFFFFFF AND PUSH20 0xFFFFFFFFFFFFFFFFFFFFFFFFFFFFFFFFFFFFFFFF AND DUP2 MSTORE PUSH1 0x20 ADD SWAP1 DUP2 MSTORE PUSH1 0x20 ADD PUSH0 KECCAK256 PUSH0 DUP4 PUSH20 0xFFFFFFFFFFFFFFFFFFFFFFFFFFFFFFFFFFFFFFFF AND PUSH20 0xFFFFFFFFFFFFFFFFFFFFFFFFFFFFFFFFFFFFFFFF AND DUP2 MSTORE PUSH1 0x20 ADD SWAP1 DUP2 MSTORE PUSH1 0x20 ADD PUSH0 KECCAK256 PUSH0 DUP2 DUP2 SWAP1 SLOAD SWAP1 PUSH2 0x100 EXP SWAP1 DIV PUSH4 0xFFFFFFFF AND DUP1 SWAP3 SWAP2 SWAP1 PUSH2 0x12DA SWAP1 PUSH2 0x21EF JUMP JUMPDEST SWAP2 SWAP1 PUSH2 0x100 EXP DUP2 SLOAD DUP2 PUSH4 0xFFFFFFFF MUL NOT AND SWAP1 DUP4 PUSH4 0xFFFFFFFF AND MUL OR SWAP1 SSTORE POP POP PUSH2 0x1303 DUP3 DUP3 PUSH2 0x1C3E JUMP JUMPDEST PUSH32 0xD0164496E26F9675ACAEA59FB065313E45D71D1D3E09D3681765773CD4AA1918 CALLER DUP4 DUP4 PUSH1 0x40 MLOAD PUSH2 0x1336 SWAP4 SWAP3 SWAP2 SWAP1 PUSH2 0x2241 JUMP JUMPDEST PUSH1 0x40 MLOAD DUP1 SWAP2 SUB SWAP1 LOG1 POP POP JUMP JUMPDEST PUSH0 PUSH1 0x3 PUSH0 CALLER PUSH20 0xFFFFFFFFFFFFFFFFFFFFFFFFFFFFFFFFFFFFFFFF AND PUSH20 0xFFFFFFFFFFFFFFFFFFFFFFFFFFFFFFFFFFFFFFFF AND DUP2 MSTORE PUSH1 0x20 ADD SWAP1 DUP2 MSTORE PUSH1 0x20 ADD PUSH0 KECCAK256 PUSH0 DUP4 PUSH20 0xFFFFFFFFFFFFFFFFFFFFFFFFFFFFFFFFFFFFFFFF AND PUSH20 0xFFFFFFFFFFFFFFFFFFFFFFFFFFFFFFFFFFFFFFFF AND DUP2 MSTORE PUSH1 0x20 ADD SWAP1 DUP2 MSTORE PUSH1 0x20 ADD PUSH0 KECCAK256 PUSH0 SWAP1 SLOAD SWAP1 PUSH2 0x100 EXP SWAP1 DIV PUSH4 0xFFFFFFFF AND PUSH4 0xFFFFFFFF AND SWAP1 POP SWAP2 SWAP1 POP JUMP JUMPDEST PUSH0 PUSH1 0x2 PUSH0 CALLER PUSH20 0xFFFFFFFFFFFFFFFFFFFFFFFFFFFFFFFFFFFFFFFF AND PUSH20 0xFFFFFFFFFFFFFFFFFFFFFFFFFFFFFFFFFFFFFFFF AND DUP2 MSTORE PUSH1 0x20 ADD SWAP1 DUP2 MSTORE PUSH1 0x20 ADD PUSH0 KECCAK256 PUSH0 DUP4 PUSH20 0xFFFFFFFFFFFFFFFFFFFFFFFFFFFFFFFFFFFFFFFF AND PUSH20 0xFFFFFFFFFFFFFFFFFFFFFFFFFFFFFFFFFFFFFFFF AND DUP2 MSTORE PUSH1 0x20 ADD SWAP1 DUP2 MSTORE PUSH1 0x20 ADD PUSH0 KECCAK256 SLOAD SWAP1 POP SWAP2 SWAP1 POP JUMP JUMPDEST PUSH0 DUP2 GT CALLER DUP3 SWAP1 SWAP2 PUSH2 0x14A1 JUMPI PUSH1 0x40 MLOAD PUSH32 0xF607410700000000000000000000000000000000000000000000000000000000 DUP2 MSTORE PUSH1 0x4 ADD PUSH2 0x1498 SWAP3 SWAP2 SWAP1 PUSH2 0x2159 JUMP JUMPDEST PUSH1 0x40 MLOAD DUP1 SWAP2 SUB SWAP1 REVERT JUMPDEST POP POP PUSH1 0x2 PUSH0 CALLER PUSH20 0xFFFFFFFFFFFFFFFFFFFFFFFFFFFFFFFFFFFFFFFF AND PUSH20 0xFFFFFFFFFFFFFFFFFFFFFFFFFFFFFFFFFFFFFFFF AND DUP2 MSTORE PUSH1 0x20 ADD SWAP1 DUP2 MSTORE PUSH1 0x20 ADD PUSH0 KECCAK256 PUSH0 PUSH0 PUSH20 0xFFFFFFFFFFFFFFFFFFFFFFFFFFFFFFFFFFFFFFFF AND PUSH20 0xFFFFFFFFFFFFFFFFFFFFFFFFFFFFFFFFFFFFFFFF AND DUP2 MSTORE PUSH1 0x20 ADD SWAP1 DUP2 MSTORE PUSH1 0x20 ADD PUSH0 KECCAK256 SLOAD DUP2 GT ISZERO CALLER DUP3 SWAP1 SWAP2 PUSH2 0x1564 JUMPI PUSH1 0x40 MLOAD PUSH32 0xF607410700000000000000000000000000000000000000000000000000000000 DUP2 MSTORE PUSH1 0x4 ADD PUSH2 0x155B SWAP3 SWAP2 SWAP1 PUSH2 0x2159 JUMP JUMPDEST PUSH1 0x40 MLOAD DUP1 SWAP2 SUB SWAP1 REVERT JUMPDEST POP POP PUSH32 0x0 PUSH16 0xFFFFFFFFFFFFFFFFFFFFFFFFFFFFFFFF AND DUP2 GT ISZERO CALLER DUP3 SWAP1 SWAP2 PUSH2 0x15E1 JUMPI PUSH1 0x40 MLOAD PUSH32 0xF607410700000000000000000000000000000000000000000000000000000000 DUP2 MSTORE PUSH1 0x4 ADD PUSH2 0x15D8 SWAP3 SWAP2 SWAP1 PUSH2 0x2159 JUMP JUMPDEST PUSH1 0x40 MLOAD DUP1 SWAP2 SUB SWAP1 REVERT JUMPDEST POP POP DUP1 PUSH1 0x2 PUSH0 CALLER PUSH20 0xFFFFFFFFFFFFFFFFFFFFFFFFFFFFFFFFFFFFFFFF AND PUSH20 0xFFFFFFFFFFFFFFFFFFFFFFFFFFFFFFFFFFFFFFFF AND DUP2 MSTORE PUSH1 0x20 ADD SWAP1 DUP2 MSTORE PUSH1 0x20 ADD PUSH0 KECCAK256 PUSH0 PUSH0 PUSH20 0xFFFFFFFFFFFFFFFFFFFFFFFFFFFFFFFFFFFFFFFF AND PUSH20 0xFFFFFFFFFFFFFFFFFFFFFFFFFFFFFFFFFFFFFFFF AND DUP2 MSTORE PUSH1 0x20 ADD SWAP1 DUP2 MSTORE PUSH1 0x20 ADD PUSH0 KECCAK256 PUSH0 DUP3 DUP3 SLOAD PUSH2 0x166A SWAP2 SWAP1 PUSH2 0x2276 JUMP JUMPDEST SWAP3 POP POP DUP2 SWAP1 SSTORE POP PUSH1 0x4 PUSH0 CALLER PUSH20 0xFFFFFFFFFFFFFFFFFFFFFFFFFFFFFFFFFFFFFFFF AND PUSH20 0xFFFFFFFFFFFFFFFFFFFFFFFFFFFFFFFFFFFFFFFF AND DUP2 MSTORE PUSH1 0x20 ADD SWAP1 DUP2 MSTORE PUSH1 0x20 ADD PUSH0 KECCAK256 PUSH0 PUSH0 PUSH20 0xFFFFFFFFFFFFFFFFFFFFFFFFFFFFFFFFFFFFFFFF AND PUSH20 0xFFFFFFFFFFFFFFFFFFFFFFFFFFFFFFFFFFFFFFFF AND DUP2 MSTORE PUSH1 0x20 ADD SWAP1 DUP2 MSTORE PUSH1 0x20 ADD PUSH0 KECCAK256 PUSH0 DUP2 DUP2 SWAP1 SLOAD SWAP1 PUSH2 0x100 EXP SWAP1 DIV PUSH4 0xFFFFFFFF AND DUP1 SWAP3 SWAP2 SWAP1 PUSH2 0x1708 SWAP1 PUSH2 0x21EF JUMP JUMPDEST SWAP2 SWAP1 PUSH2 0x100 EXP DUP2 SLOAD DUP2 PUSH4 0xFFFFFFFF MUL NOT AND SWAP1 DUP4 PUSH4 0xFFFFFFFF AND MUL OR SWAP1 SSTORE POP POP PUSH2 0x1730 DUP2 PUSH2 0x1C6F JUMP JUMPDEST PUSH32 0x69C169E5C85AF54E1CA7E16608CCC812437821387924FB3353A7D053264DDAA0 CALLER DUP3 PUSH1 0x40 MLOAD PUSH2 0x1761 SWAP3 SWAP2 SWAP1 PUSH2 0x2159 JUMP JUMPDEST PUSH1 0x40 MLOAD DUP1 SWAP2 SUB SWAP1 LOG1 POP JUMP JUMPDEST PUSH0 PUSH2 0x1775 PUSH2 0x1A74 JUMP JUMPDEST PUSH1 0x2 PUSH0 DUP5 PUSH20 0xFFFFFFFFFFFFFFFFFFFFFFFFFFFFFFFFFFFFFFFF AND PUSH20 0xFFFFFFFFFFFFFFFFFFFFFFFFFFFFFFFFFFFFFFFF AND DUP2 MSTORE PUSH1 0x20 ADD SWAP1 DUP2 MSTORE PUSH1 0x20 ADD PUSH0 KECCAK256 PUSH0 DUP4 PUSH20 0xFFFFFFFFFFFFFFFFFFFFFFFFFFFFFFFFFFFFFFFF AND PUSH20 0xFFFFFFFFFFFFFFFFFFFFFFFFFFFFFFFFFFFFFFFF AND DUP2 MSTORE PUSH1 0x20 ADD SWAP1 DUP2 MSTORE PUSH1 0x20 ADD PUSH0 KECCAK256 SLOAD SWAP1 POP SWAP3 SWAP2 POP POP JUMP JUMPDEST PUSH1 0x1 PUSH0 SWAP1 SLOAD SWAP1 PUSH2 0x100 EXP SWAP1 DIV PUSH20 0xFFFFFFFFFFFFFFFFFFFFFFFFFFFFFFFFFFFFFFFF AND DUP2 JUMP JUMPDEST PUSH0 PUSH1 0x4 PUSH0 CALLER PUSH20 0xFFFFFFFFFFFFFFFFFFFFFFFFFFFFFFFFFFFFFFFF AND PUSH20 0xFFFFFFFFFFFFFFFFFFFFFFFFFFFFFFFFFFFFFFFF AND DUP2 MSTORE PUSH1 0x20 ADD SWAP1 DUP2 MSTORE PUSH1 0x20 ADD PUSH0 KECCAK256 PUSH0 DUP4 PUSH20 0xFFFFFFFFFFFFFFFFFFFFFFFFFFFFFFFFFFFFFFFF AND PUSH20 0xFFFFFFFFFFFFFFFFFFFFFFFFFFFFFFFFFFFFFFFF AND DUP2 MSTORE PUSH1 0x20 ADD SWAP1 DUP2 MSTORE PUSH1 0x20 ADD PUSH0 KECCAK256 PUSH0 SWAP1 SLOAD SWAP1 PUSH2 0x100 EXP SWAP1 DIV PUSH4 0xFFFFFFFF AND PUSH4 0xFFFFFFFF AND SWAP1 POP SWAP2 SWAP1 POP JUMP JUMPDEST PUSH0 PUSH2 0x1933 PUSH1 0x2 PUSH0 CALLER PUSH20 0xFFFFFFFFFFFFFFFFFFFFFFFFFFFFFFFFFFFFFFFF AND PUSH20 0xFFFFFFFFFFFFFFFFFFFFFFFFFFFFFFFFFFFFFFFF AND DUP2 MSTORE PUSH1 0x20 ADD SWAP1 DUP2 MSTORE PUSH1 0x20 ADD PUSH0 KECCAK256 PUSH0 PUSH0 PUSH20 0xFFFFFFFFFFFFFFFFFFFFFFFFFFFFFFFFFFFFFFFF AND PUSH20 0xFFFFFFFFFFFFFFFFFFFFFFFFFFFFFFFFFFFFFFFF AND DUP2 MSTORE PUSH1 0x20 ADD SWAP1 DUP2 MSTORE PUSH1 0x20 ADD PUSH0 KECCAK256 SLOAD PUSH2 0x1A45 JUMP JUMPDEST SWAP1 POP SWAP1 JUMP JUMPDEST PUSH2 0x1940 PUSH2 0x1A74 JUMP JUMPDEST PUSH0 PUSH20 0xFFFFFFFFFFFFFFFFFFFFFFFFFFFFFFFFFFFFFFFF AND DUP2 PUSH20 0xFFFFFFFFFFFFFFFFFFFFFFFFFFFFFFFFFFFFFFFF AND SUB PUSH2 0x19B0 JUMPI PUSH0 PUSH1 0x40 MLOAD PUSH32 0x1E4FBDF700000000000000000000000000000000000000000000000000000000 DUP2 MSTORE PUSH1 0x4 ADD PUSH2 0x19A7 SWAP2 SWAP1 PUSH2 0x2039 JUMP JUMPDEST PUSH1 0x40 MLOAD DUP1 SWAP2 SUB SWAP1 REVERT JUMPDEST PUSH2 0x19B9 DUP2 PUSH2 0x1AFB JUMP JUMPDEST POP JUMP JUMPDEST PUSH0 PUSH2 0x19C5 PUSH2 0x1A74 JUMP JUMPDEST PUSH1 0x2 PUSH0 DUP4 PUSH20 0xFFFFFFFFFFFFFFFFFFFFFFFFFFFFFFFFFFFFFFFF AND PUSH20 0xFFFFFFFFFFFFFFFFFFFFFFFFFFFFFFFFFFFFFFFF AND DUP2 MSTORE PUSH1 0x20 ADD SWAP1 DUP2 MSTORE PUSH1 0x20 ADD PUSH0 KECCAK256 PUSH0 PUSH0 PUSH20 0xFFFFFFFFFFFFFFFFFFFFFFFFFFFFFFFFFFFFFFFF AND PUSH20 0xFFFFFFFFFFFFFFFFFFFFFFFFFFFFFFFFFFFFFFFF AND DUP2 MSTORE PUSH1 0x20 ADD SWAP1 DUP2 MSTORE PUSH1 0x20 ADD PUSH0 KECCAK256 SLOAD SWAP1 POP SWAP2 SWAP1 POP JUMP JUMPDEST PUSH0 PUSH9 0x56BC75E2D63100000 PUSH2 0x1A58 PUSH2 0x1D2A JUMP JUMPDEST DUP4 PUSH2 0x1A63 SWAP2 SWAP1 PUSH2 0x22A9 JUMP JUMPDEST PUSH2 0x1A6D SWAP2 SWAP1 PUSH2 0x2317 JUMP JUMPDEST SWAP1 POP SWAP2 SWAP1 POP JUMP JUMPDEST PUSH2 0x1A7C PUSH2 0x1E4D JUMP JUMPDEST PUSH20 0xFFFFFFFFFFFFFFFFFFFFFFFFFFFFFFFFFFFFFFFF AND PUSH2 0x1A9A PUSH2 0xD42 JUMP JUMPDEST PUSH20 0xFFFFFFFFFFFFFFFFFFFFFFFFFFFFFFFFFFFFFFFF AND EQ PUSH2 0x1AF9 JUMPI PUSH2 0x1ABD PUSH2 0x1E4D JUMP JUMPDEST PUSH1 0x40 MLOAD PUSH32 0x118CDAA700000000000000000000000000000000000000000000000000000000 DUP2 MSTORE PUSH1 0x4 ADD PUSH2 0x1AF0 SWAP2 SWAP1 PUSH2 0x2039 JUMP JUMPDEST PUSH1 0x40 MLOAD DUP1 SWAP2 SUB SWAP1 REVERT JUMPDEST JUMP JUMPDEST PUSH0 PUSH0 PUSH0 SWAP1 SLOAD SWAP1 PUSH2 0x100 EXP SWAP1 DIV PUSH20 0xFFFFFFFFFFFFFFFFFFFFFFFFFFFFFFFFFFFFFFFF AND SWAP1 POP DUP2 PUSH0 PUSH0 PUSH2 0x100 EXP DUP2 SLOAD DUP2 PUSH20 0xFFFFFFFFFFFFFFFFFFFFFFFFFFFFFFFFFFFFFFFF MUL NOT AND SWAP1 DUP4 PUSH20 0xFFFFFFFFFFFFFFFFFFFFFFFFFFFFFFFFFFFFFFFF AND MUL OR SWAP1 SSTORE POP DUP2 PUSH20 0xFFFFFFFFFFFFFFFFFFFFFFFFFFFFFFFFFFFFFFFF AND DUP2 PUSH20 0xFFFFFFFFFFFFFFFFFFFFFFFFFFFFFFFFFFFFFFFF AND PUSH32 0x8BE0079C531659141344CD1FD0A4F28419497F9722A3DAAFE3B4186F6B6457E0 PUSH1 0x40 MLOAD PUSH1 0x40 MLOAD DUP1 SWAP2 SUB SWAP1 LOG3 POP POP JUMP JUMPDEST PUSH2 0x1C38 DUP5 DUP6 PUSH20 0xFFFFFFFFFFFFFFFFFFFFFFFFFFFFFFFFFFFFFFFF AND PUSH4 0x23B872DD DUP7 DUP7 DUP7 PUSH1 0x40 MLOAD PUSH1 0x24 ADD PUSH2 0x1BF1 SWAP4 SWAP3 SWAP2 SWAP1 PUSH2 0x2241 JUMP JUMPDEST PUSH1 0x40 MLOAD PUSH1 0x20 DUP2 DUP4 SUB SUB DUP2 MSTORE SWAP1 PUSH1 0x40 MSTORE SWAP2 POP PUSH1 0xE0 SHL PUSH1 0x20 DUP3 ADD DUP1 MLOAD PUSH28 0xFFFFFFFFFFFFFFFFFFFFFFFFFFFFFFFFFFFFFFFFFFFFFFFFFFFFFFFF DUP4 DUP2 DUP4 AND OR DUP4 MSTORE POP POP POP POP PUSH2 0x1E54 JUMP JUMPDEST POP POP POP POP JUMP JUMPDEST PUSH2 0x1C6B ADDRESS CALLER DUP4 DUP6 PUSH20 0xFFFFFFFFFFFFFFFFFFFFFFFFFFFFFFFFFFFFFFFF AND PUSH2 0x1BBC SWAP1 SWAP4 SWAP3 SWAP2 SWAP1 PUSH4 0xFFFFFFFF AND JUMP JUMPDEST POP POP JUMP JUMPDEST PUSH0 PUSH0 CALLER PUSH20 0xFFFFFFFFFFFFFFFFFFFFFFFFFFFFFFFFFFFFFFFF AND DUP4 PUSH1 0x40 MLOAD PUSH2 0x1C95 SWAP1 PUSH2 0x2374 JUMP JUMPDEST PUSH0 PUSH1 0x40 MLOAD DUP1 DUP4 SUB DUP2 DUP6 DUP8 GAS CALL SWAP3 POP POP POP RETURNDATASIZE DUP1 PUSH0 DUP2 EQ PUSH2 0x1CCF JUMPI PUSH1 0x40 MLOAD SWAP2 POP PUSH1 0x1F NOT PUSH1 0x3F RETURNDATASIZE ADD AND DUP3 ADD PUSH1 0x40 MSTORE RETURNDATASIZE DUP3 MSTORE RETURNDATASIZE PUSH0 PUSH1 0x20 DUP5 ADD RETURNDATACOPY PUSH2 0x1CD4 JUMP JUMPDEST PUSH1 0x60 SWAP2 POP JUMPDEST POP SWAP2 POP SWAP2 POP DUP2 CALLER DUP5 DUP4 SWAP1 SWAP2 SWAP3 PUSH2 0x1D22 JUMPI PUSH1 0x40 MLOAD PUSH32 0x3FD18B8500000000000000000000000000000000000000000000000000000000 DUP2 MSTORE PUSH1 0x4 ADD PUSH2 0x1D19 SWAP4 SWAP3 SWAP2 SWAP1 PUSH2 0x23F8 JUMP JUMPDEST PUSH1 0x40 MLOAD DUP1 SWAP2 SUB SWAP1 REVERT JUMPDEST POP POP POP POP POP POP JUMP JUMPDEST PUSH0 PUSH0 PUSH0 PUSH1 0x1 PUSH0 SWAP1 SLOAD SWAP1 PUSH2 0x100 EXP SWAP1 DIV PUSH20 0xFFFFFFFFFFFFFFFFFFFFFFFFFFFFFFFFFFFFFFFF AND PUSH20 0xFFFFFFFFFFFFFFFFFFFFFFFFFFFFFFFFFFFFFFFF AND PUSH4 0xFEAF968C PUSH1 0x40 MLOAD DUP2 PUSH4 0xFFFFFFFF AND PUSH1 0xE0 SHL DUP2 MSTORE PUSH1 0x4 ADD PUSH1 0xA0 PUSH1 0x40 MLOAD DUP1 DUP4 SUB DUP2 DUP7 GAS STATICCALL ISZERO DUP1 ISZERO PUSH2 0x1D97 JUMPI RETURNDATASIZE PUSH0 PUSH0 RETURNDATACOPY RETURNDATASIZE PUSH0 REVERT JUMPDEST POP POP POP POP PUSH1 0x40 MLOAD RETURNDATASIZE PUSH1 0x1F NOT PUSH1 0x1F DUP3 ADD AND DUP3 ADD DUP1 PUSH1 0x40 MSTORE POP DUP2 ADD SWAP1 PUSH2 0x1DBB SWAP2 SWAP1 PUSH2 0x24BA JUMP JUMPDEST POP SWAP4 POP POP SWAP3 POP POP PUSH0 DUP3 SUB PUSH2 0x1DFB JUMPI PUSH1 0x40 MLOAD PUSH32 0x144C1D9500000000000000000000000000000000000000000000000000000000 DUP2 MSTORE PUSH1 0x4 ADD PUSH1 0x40 MLOAD DUP1 SWAP2 SUB SWAP1 REVERT JUMPDEST PUSH2 0xE10 PUSH2 0xFFFF AND DUP2 TIMESTAMP PUSH2 0x1E0E SWAP2 SWAP1 PUSH2 0x2276 JUMP JUMPDEST GT PUSH2 0x1E45 JUMPI PUSH1 0x40 MLOAD PUSH32 0x19ABF40E00000000000000000000000000000000000000000000000000000000 DUP2 MSTORE PUSH1 0x4 ADD PUSH1 0x40 MLOAD DUP1 SWAP2 SUB SWAP1 REVERT JUMPDEST DUP2 SWAP3 POP POP POP SWAP1 JUMP JUMPDEST PUSH0 CALLER SWAP1 POP SWAP1 JUMP JUMPDEST PUSH0 PUSH0 PUSH1 0x20 PUSH0 DUP5 MLOAD PUSH1 0x20 DUP7 ADD PUSH0 DUP9 GAS CALL DUP1 PUSH2 0x1E73 JUMPI PUSH1 0x40 MLOAD RETURNDATASIZE PUSH0 DUP3 RETURNDATACOPY RETURNDATASIZE DUP2 REVERT JUMPDEST RETURNDATASIZE SWAP3 POP PUSH0 MLOAD SWAP2 POP POP PUSH0 DUP3 EQ PUSH2 0x1E8C JUMPI PUSH1 0x1 DUP2 EQ ISZERO PUSH2 0x1EA7 JUMP JUMPDEST PUSH0 DUP5 PUSH20 0xFFFFFFFFFFFFFFFFFFFFFFFFFFFFFFFFFFFFFFFF AND EXTCODESIZE EQ JUMPDEST ISZERO PUSH2 0x1EE9 JUMPI DUP4 PUSH1 0x40 MLOAD PUSH32 0x5274AFE700000000000000000000000000000000000000000000000000000000 DUP2 MSTORE PUSH1 0x4 ADD PUSH2 0x1EE0 SWAP2 SWAP1 PUSH2 0x2039 JUMP JUMPDEST PUSH1 0x40 MLOAD DUP1 SWAP2 SUB SWAP1 REVERT JUMPDEST POP POP POP POP JUMP JUMPDEST PUSH0 DUP2 SWAP1 POP SWAP2 SWAP1 POP JUMP JUMPDEST PUSH2 0x1F01 DUP2 PUSH2 0x1EEF JUMP JUMPDEST DUP3 MSTORE POP POP JUMP JUMPDEST PUSH0 PUSH1 0x20 DUP3 ADD SWAP1 POP PUSH2 0x1F1A PUSH0 DUP4 ADD DUP5 PUSH2 0x1EF8 JUMP JUMPDEST SWAP3 SWAP2 POP POP JUMP JUMPDEST PUSH0 PUSH0 REVERT JUMPDEST PUSH0 PUSH20 0xFFFFFFFFFFFFFFFFFFFFFFFFFFFFFFFFFFFFFFFF DUP3 AND SWAP1 POP SWAP2 SWAP1 POP JUMP JUMPDEST PUSH0 PUSH2 0x1F4D DUP3 PUSH2 0x1F24 JUMP JUMPDEST SWAP1 POP SWAP2 SWAP1 POP JUMP JUMPDEST PUSH2 0x1F5D DUP2 PUSH2 0x1F43 JUMP JUMPDEST DUP2 EQ PUSH2 0x1F67 JUMPI PUSH0 PUSH0 REVERT JUMPDEST POP JUMP JUMPDEST PUSH0 DUP2 CALLDATALOAD SWAP1 POP PUSH2 0x1F78 DUP2 PUSH2 0x1F54 JUMP JUMPDEST SWAP3 SWAP2 POP POP JUMP JUMPDEST PUSH0 PUSH1 0x20 DUP3 DUP5 SUB SLT ISZERO PUSH2 0x1F93 JUMPI PUSH2 0x1F92 PUSH2 0x1F20 JUMP JUMPDEST JUMPDEST PUSH0 PUSH2 0x1FA0 DUP5 DUP3 DUP6 ADD PUSH2 0x1F6A JUMP JUMPDEST SWAP2 POP POP SWAP3 SWAP2 POP POP JUMP JUMPDEST PUSH0 PUSH0 PUSH1 0x40 DUP4 DUP6 SUB SLT ISZERO PUSH2 0x1FBF JUMPI PUSH2 0x1FBE PUSH2 0x1F20 JUMP JUMPDEST JUMPDEST PUSH0 PUSH2 0x1FCC DUP6 DUP3 DUP7 ADD PUSH2 0x1F6A JUMP JUMPDEST SWAP3 POP POP PUSH1 0x20 PUSH2 0x1FDD DUP6 DUP3 DUP7 ADD PUSH2 0x1F6A JUMP JUMPDEST SWAP2 POP POP SWAP3 POP SWAP3 SWAP1 POP JUMP JUMPDEST PUSH0 PUSH16 0xFFFFFFFFFFFFFFFFFFFFFFFFFFFFFFFF DUP3 AND SWAP1 POP SWAP2 SWAP1 POP JUMP JUMPDEST PUSH2 0x200B DUP2 PUSH2 0x1FE7 JUMP JUMPDEST DUP3 MSTORE POP POP JUMP JUMPDEST PUSH0 PUSH1 0x20 DUP3 ADD SWAP1 POP PUSH2 0x2024 PUSH0 DUP4 ADD DUP5 PUSH2 0x2002 JUMP JUMPDEST SWAP3 SWAP2 POP POP JUMP JUMPDEST PUSH2 0x2033 DUP2 PUSH2 0x1F43 JUMP JUMPDEST DUP3 MSTORE POP POP JUMP JUMPDEST PUSH0 PUSH1 0x20 DUP3 ADD SWAP1 POP PUSH2 0x204C PUSH0 DUP4 ADD DUP5 PUSH2 0x202A JUMP JUMPDEST SWAP3 SWAP2 POP POP JUMP JUMPDEST PUSH2 0x205B DUP2 PUSH2 0x1EEF JUMP JUMPDEST DUP2 EQ PUSH2 0x2065 JUMPI PUSH0 PUSH0 REVERT JUMPDEST POP JUMP JUMPDEST PUSH0 DUP2 CALLDATALOAD SWAP1 POP PUSH2 0x2076 DUP2 PUSH2 0x2052 JUMP JUMPDEST SWAP3 SWAP2 POP POP JUMP JUMPDEST PUSH0 PUSH0 PUSH1 0x40 DUP4 DUP6 SUB SLT ISZERO PUSH2 0x2092 JUMPI PUSH2 0x2091 PUSH2 0x1F20 JUMP JUMPDEST JUMPDEST PUSH0 PUSH2 0x209F DUP6 DUP3 DUP7 ADD PUSH2 0x1F6A JUMP JUMPDEST SWAP3 POP POP PUSH1 0x20 PUSH2 0x20B0 DUP6 DUP3 DUP7 ADD PUSH2 0x2068 JUMP JUMPDEST SWAP2 POP POP SWAP3 POP SWAP3 SWAP1 POP JUMP JUMPDEST PUSH0 PUSH1 0x20 DUP3 DUP5 SUB SLT ISZERO PUSH2 0x20CF JUMPI PUSH2 0x20CE PUSH2 0x1F20 JUMP JUMPDEST JUMPDEST PUSH0 PUSH2 0x20DC DUP5 DUP3 DUP6 ADD PUSH2 0x2068 JUMP JUMPDEST SWAP2 POP POP SWAP3 SWAP2 POP POP JUMP JUMPDEST PUSH0 DUP2 SWAP1 POP SWAP2 SWAP1 POP JUMP JUMPDEST PUSH0 PUSH2 0x2108 PUSH2 0x2103 PUSH2 0x20FE DUP5 PUSH2 0x1F24 JUMP JUMPDEST PUSH2 0x20E5 JUMP JUMPDEST PUSH2 0x1F24 JUMP JUMPDEST SWAP1 POP SWAP2 SWAP1 POP JUMP JUMPDEST PUSH0 PUSH2 0x2119 DUP3 PUSH2 0x20EE JUMP JUMPDEST SWAP1 POP SWAP2 SWAP1 POP JUMP JUMPDEST PUSH0 PUSH2 0x212A DUP3 PUSH2 0x210F JUMP JUMPDEST SWAP1 POP SWAP2 SWAP1 POP JUMP JUMPDEST PUSH2 0x213A DUP2 PUSH2 0x2120 JUMP JUMPDEST DUP3 MSTORE POP POP JUMP JUMPDEST PUSH0 PUSH1 0x20 DUP3 ADD SWAP1 POP PUSH2 0x2153 PUSH0 DUP4 ADD DUP5 PUSH2 0x2131 JUMP JUMPDEST SWAP3 SWAP2 POP POP JUMP JUMPDEST PUSH0 PUSH1 0x40 DUP3 ADD SWAP1 POP PUSH2 0x216C PUSH0 DUP4 ADD DUP6 PUSH2 0x202A JUMP JUMPDEST PUSH2 0x2179 PUSH1 0x20 DUP4 ADD DUP5 PUSH2 0x1EF8 JUMP JUMPDEST SWAP4 SWAP3 POP POP POP JUMP JUMPDEST PUSH32 0x4E487B7100000000000000000000000000000000000000000000000000000000 PUSH0 MSTORE PUSH1 0x11 PUSH1 0x4 MSTORE PUSH1 0x24 PUSH0 REVERT JUMPDEST PUSH0 PUSH2 0x21B7 DUP3 PUSH2 0x1EEF JUMP JUMPDEST SWAP2 POP PUSH2 0x21C2 DUP4 PUSH2 0x1EEF JUMP JUMPDEST SWAP3 POP DUP3 DUP3 ADD SWAP1 POP DUP1 DUP3 GT ISZERO PUSH2 0x21DA JUMPI PUSH2 0x21D9 PUSH2 0x2180 JUMP JUMPDEST JUMPDEST SWAP3 SWAP2 POP POP JUMP JUMPDEST PUSH0 PUSH4 0xFFFFFFFF DUP3 AND SWAP1 POP SWAP2 SWAP1 POP JUMP JUMPDEST PUSH0 PUSH2 0x21F9 DUP3 PUSH2 0x21E0 JUMP JUMPDEST SWAP2 POP PUSH4 0xFFFFFFFF DUP3 SUB PUSH2 0x220F JUMPI PUSH2 0x220E PUSH2 0x2180 JUMP JUMPDEST JUMPDEST PUSH1 0x1 DUP3 ADD SWAP1 POP SWAP2 SWAP1 POP JUMP JUMPDEST PUSH0 PUSH1 0x40 DUP3 ADD SWAP1 POP PUSH2 0x222D PUSH0 DUP4 ADD DUP6 PUSH2 0x2131 JUMP JUMPDEST PUSH2 0x223A PUSH1 0x20 DUP4 ADD DUP5 PUSH2 0x2131 JUMP JUMPDEST SWAP4 SWAP3 POP POP POP JUMP JUMPDEST PUSH0 PUSH1 0x60 DUP3 ADD SWAP1 POP PUSH2 0x2254 PUSH0 DUP4 ADD DUP7 PUSH2 0x202A JUMP JUMPDEST PUSH2 0x2261 PUSH1 0x20 DUP4 ADD DUP6 PUSH2 0x202A JUMP JUMPDEST PUSH2 0x226E PUSH1 0x40 DUP4 ADD DUP5 PUSH2 0x1EF8 JUMP JUMPDEST SWAP5 SWAP4 POP POP POP POP JUMP JUMPDEST PUSH0 PUSH2 0x2280 DUP3 PUSH2 0x1EEF JUMP JUMPDEST SWAP2 POP PUSH2 0x228B DUP4 PUSH2 0x1EEF JUMP JUMPDEST SWAP3 POP DUP3 DUP3 SUB SWAP1 POP DUP2 DUP2 GT ISZERO PUSH2 0x22A3 JUMPI PUSH2 0x22A2 PUSH2 0x2180 JUMP JUMPDEST JUMPDEST SWAP3 SWAP2 POP POP JUMP JUMPDEST PUSH0 PUSH2 0x22B3 DUP3 PUSH2 0x1EEF JUMP JUMPDEST SWAP2 POP PUSH2 0x22BE DUP4 PUSH2 0x1EEF JUMP JUMPDEST SWAP3 POP DUP3 DUP3 MUL PUSH2 0x22CC DUP2 PUSH2 0x1EEF JUMP JUMPDEST SWAP2 POP DUP3 DUP3 DIV DUP5 EQ DUP4 ISZERO OR PUSH2 0x22E3 JUMPI PUSH2 0x22E2 PUSH2 0x2180 JUMP JUMPDEST JUMPDEST POP SWAP3 SWAP2 POP POP JUMP JUMPDEST PUSH32 0x4E487B7100000000000000000000000000000000000000000000000000000000 PUSH0 MSTORE PUSH1 0x12 PUSH1 0x4 MSTORE PUSH1 0x24 PUSH0 REVERT JUMPDEST PUSH0 PUSH2 0x2321 DUP3 PUSH2 0x1EEF JUMP JUMPDEST SWAP2 POP PUSH2 0x232C DUP4 PUSH2 0x1EEF JUMP JUMPDEST SWAP3 POP DUP3 PUSH2 0x233C JUMPI PUSH2 0x233B PUSH2 0x22EA JUMP JUMPDEST JUMPDEST DUP3 DUP3 DIV SWAP1 POP SWAP3 SWAP2 POP POP JUMP JUMPDEST PUSH0 DUP2 SWAP1 POP SWAP3 SWAP2 POP POP JUMP JUMPDEST POP JUMP JUMPDEST PUSH0 PUSH2 0x235F PUSH0 DUP4 PUSH2 0x2347 JUMP JUMPDEST SWAP2 POP PUSH2 0x236A DUP3 PUSH2 0x2351 JUMP JUMPDEST PUSH0 DUP3 ADD SWAP1 POP SWAP2 SWAP1 POP JUMP JUMPDEST PUSH0 PUSH2 0x237E DUP3 PUSH2 0x2354 JUMP JUMPDEST SWAP2 POP DUP2 SWAP1 POP SWAP2 SWAP1 POP JUMP JUMPDEST PUSH0 DUP2 MLOAD SWAP1 POP SWAP2 SWAP1 POP JUMP JUMPDEST PUSH0 DUP3 DUP3 MSTORE PUSH1 0x20 DUP3 ADD SWAP1 POP SWAP3 SWAP2 POP POP JUMP JUMPDEST DUP3 DUP2 DUP4 MCOPY PUSH0 DUP4 DUP4 ADD MSTORE POP POP POP JUMP JUMPDEST PUSH0 PUSH1 0x1F NOT PUSH1 0x1F DUP4 ADD AND SWAP1 POP SWAP2 SWAP1 POP JUMP JUMPDEST PUSH0 PUSH2 0x23CA DUP3 PUSH2 0x2388 JUMP JUMPDEST PUSH2 0x23D4 DUP2 DUP6 PUSH2 0x2392 JUMP JUMPDEST SWAP4 POP PUSH2 0x23E4 DUP2 DUP6 PUSH1 0x20 DUP7 ADD PUSH2 0x23A2 JUMP JUMPDEST PUSH2 0x23ED DUP2 PUSH2 0x23B0 JUMP JUMPDEST DUP5 ADD SWAP2 POP POP SWAP3 SWAP2 POP POP JUMP JUMPDEST PUSH0 PUSH1 0x60 DUP3 ADD SWAP1 POP PUSH2 0x240B PUSH0 DUP4 ADD DUP7 PUSH2 0x202A JUMP JUMPDEST PUSH2 0x2418 PUSH1 0x20 DUP4 ADD DUP6 PUSH2 0x1EF8 JUMP JUMPDEST DUP2 DUP2 SUB PUSH1 0x40 DUP4 ADD MSTORE PUSH2 0x242A DUP2 DUP5 PUSH2 0x23C0 JUMP JUMPDEST SWAP1 POP SWAP5 SWAP4 POP POP POP POP JUMP JUMPDEST PUSH0 PUSH10 0xFFFFFFFFFFFFFFFFFFFF DUP3 AND SWAP1 POP SWAP2 SWAP1 POP JUMP JUMPDEST PUSH2 0x2452 DUP2 PUSH2 0x2434 JUMP JUMPDEST DUP2 EQ PUSH2 0x245C JUMPI PUSH0 PUSH0 REVERT JUMPDEST POP JUMP JUMPDEST PUSH0 DUP2 MLOAD SWAP1 POP PUSH2 0x246D DUP2 PUSH2 0x2449 JUMP JUMPDEST SWAP3 SWAP2 POP POP JUMP JUMPDEST PUSH0 DUP2 SWAP1 POP SWAP2 SWAP1 POP JUMP JUMPDEST PUSH2 0x2485 DUP2 PUSH2 0x2473 JUMP JUMPDEST DUP2 EQ PUSH2 0x248F JUMPI PUSH0 PUSH0 REVERT JUMPDEST POP JUMP JUMPDEST PUSH0 DUP2 MLOAD SWAP1 POP PUSH2 0x24A0 DUP2 PUSH2 0x247C JUMP JUMPDEST SWAP3 SWAP2 POP POP JUMP JUMPDEST PUSH0 DUP2 MLOAD SWAP1 POP PUSH2 0x24B4 DUP2 PUSH2 0x2052 JUMP JUMPDEST SWAP3 SWAP2 POP POP JUMP JUMPDEST PUSH0 PUSH0 PUSH0 PUSH0 PUSH0 PUSH1 0xA0 DUP7 DUP9 SUB SLT ISZERO PUSH2 0x24D3 JUMPI PUSH2 0x24D2 PUSH2 0x1F20 JUMP JUMPDEST JUMPDEST PUSH0 PUSH2 0x24E0 DUP9 DUP3 DUP10 ADD PUSH2 0x245F JUMP JUMPDEST SWAP6 POP POP PUSH1 0x20 PUSH2 0x24F1 DUP9 DUP3 DUP10 ADD PUSH2 0x2492 JUMP JUMPDEST SWAP5 POP POP PUSH1 0x40 PUSH2 0x2502 DUP9 DUP3 DUP10 ADD PUSH2 0x24A6 JUMP JUMPDEST SWAP4 POP POP PUSH1 0x60 PUSH2 0x2513 DUP9 DUP3 DUP10 ADD PUSH2 0x24A6 JUMP JUMPDEST SWAP3 POP POP PUSH1 0x80 PUSH2 0x2524 DUP9 DUP3 DUP10 ADD PUSH2 0x245F JUMP JUMPDEST SWAP2 POP POP SWAP3 SWAP6 POP SWAP3 SWAP6 SWAP1 SWAP4 POP JUMP INVALID LOG2 PUSH5 0x6970667358 0x22 SLT KECCAK256 0xE9 SUB LT 0xA5 LT 0xF JUMPF 0x60D6 DUP2 ADD JUMPI 0xCC 0x1F 0xAC DUP14 PUSH14 0xD38A1C005CCCD98F3E99F8D1C944 SELFDESTRUCT PUSH5 0x736F6C6343 STOP ADDMOD 0x1E STOP CALLER "
				},
				"gasEstimates": {
					"creation": {
						"codeDepositCost": "1915000",
						"executionCost": "infinite",
						"totalCost": "infinite"
					},
					"external": {
						"depositERC20(address,uint256)": "infinite",
						"depositEth()": "infinite",
						"getBalance()": "2630",
						"getBalance(address)": "infinite",
						"getBalanceInUSD()": "infinite",
						"getBalanceInUSD(address)": "infinite",
						"getDeposits()": "2670",
						"getDeposits(address)": "infinite",
						"getERC20Balance(address)": "3049",
						"getERC20Balance(address,address)": "infinite",
						"getERC20Deposits(address)": "3068",
						"getERC20Deposits(address,address)": "infinite",
						"getERC20Withdrawals(address)": "3001",
						"getERC20Withdrawals(address,address)": "infinite",
						"getWithdrawals()": "2781",
						"getWithdrawals(address)": "infinite",
						"owner()": "2647",
						"renounceOwnership()": "infinite",
						"s_bankCap()": "infinite",
						"s_feeds()": "infinite",
						"s_withdrawLimit()": "infinite",
						"setFeeds(address)": "infinite",
						"transferOwnership(address)": "infinite",
						"withdrawERC20(address,uint256)": "infinite",
						"withdrawEth(uint256)": "infinite"
					},
					"internal": {
						"chainlinkFeed()": "infinite",
						"convertEthInUSD(uint256)": "infinite",
						"transferERC20(address,uint256)": "infinite",
						"transferEth(uint256)": "infinite"
					}
				},
				"methodIdentifiers": {
					"depositERC20(address,uint256)": "97feb926",
					"depositEth()": "439370b1",
					"getBalance()": "12065fe0",
					"getBalance(address)": "f8b2cb4f",
					"getBalanceInUSD()": "ef649249",
					"getBalanceInUSD(address)": "21d60805",
					"getDeposits()": "6b149d87",
					"getDeposits(address)": "94f649dd",
					"getERC20Balance(address)": "b588d225",
					"getERC20Balance(address,address)": "c3a8962c",
					"getERC20Deposits(address)": "a2abecd3",
					"getERC20Deposits(address,address)": "297beb3c",
					"getERC20Withdrawals(address)": "d2706c91",
					"getERC20Withdrawals(address,address)": "962b9bcc",
					"getWithdrawals()": "50d6c1e8",
					"getWithdrawals(address)": "3a2b643a",
					"owner()": "8da5cb5b",
					"renounceOwnership()": "715018a6",
					"s_bankCap()": "80ef10ed",
					"s_feeds()": "c77e551b",
					"s_withdrawLimit()": "7f86ee43",
					"setFeeds(address)": "7dc532c5",
					"transferOwnership(address)": "f2fde38b",
					"withdrawERC20(address,uint256)": "a1db9782",
					"withdrawEth(uint256)": "c311d049"
				}
			},
			"storageLayout": {
				"storage": [
					{
						"astId": 54,
						"contract": "contracts/KipuBankV3.sol:KipuBankV3",
						"label": "_owner",
						"offset": 0,
						"slot": "0",
						"type": "t_address"
					},
					{
						"astId": 900,
						"contract": "contracts/KipuBankV3.sol:KipuBankV3",
						"label": "s_feeds",
						"offset": 0,
						"slot": "1",
						"type": "t_contract(AggregatorV3Interface)45"
					},
					{
						"astId": 907,
						"contract": "contracts/KipuBankV3.sol:KipuBankV3",
						"label": "s_balances",
						"offset": 0,
						"slot": "2",
						"type": "t_mapping(t_address,t_mapping(t_address,t_uint256))"
					},
					{
						"astId": 914,
						"contract": "contracts/KipuBankV3.sol:KipuBankV3",
						"label": "s_deposits",
						"offset": 0,
						"slot": "3",
						"type": "t_mapping(t_address,t_mapping(t_address,t_uint32))"
					},
					{
						"astId": 921,
						"contract": "contracts/KipuBankV3.sol:KipuBankV3",
						"label": "s_withdrawals",
						"offset": 0,
						"slot": "4",
						"type": "t_mapping(t_address,t_mapping(t_address,t_uint32))"
					}
				],
				"types": {
					"t_address": {
						"encoding": "inplace",
						"label": "address",
						"numberOfBytes": "20"
					},
					"t_contract(AggregatorV3Interface)45": {
						"encoding": "inplace",
						"label": "contract AggregatorV3Interface",
						"numberOfBytes": "20"
					},
					"t_mapping(t_address,t_mapping(t_address,t_uint256))": {
						"encoding": "mapping",
						"key": "t_address",
						"label": "mapping(address => mapping(address => uint256))",
						"numberOfBytes": "32",
						"value": "t_mapping(t_address,t_uint256)"
					},
					"t_mapping(t_address,t_mapping(t_address,t_uint32))": {
						"encoding": "mapping",
						"key": "t_address",
						"label": "mapping(address => mapping(address => uint32))",
						"numberOfBytes": "32",
						"value": "t_mapping(t_address,t_uint32)"
					},
					"t_mapping(t_address,t_uint256)": {
						"encoding": "mapping",
						"key": "t_address",
						"label": "mapping(address => uint256)",
						"numberOfBytes": "32",
						"value": "t_uint256"
					},
					"t_mapping(t_address,t_uint32)": {
						"encoding": "mapping",
						"key": "t_address",
						"label": "mapping(address => uint32)",
						"numberOfBytes": "32",
						"value": "t_uint32"
					},
					"t_uint256": {
						"encoding": "inplace",
						"label": "uint256",
						"numberOfBytes": "32"
					},
					"t_uint32": {
						"encoding": "inplace",
						"label": "uint32",
						"numberOfBytes": "4"
					}
				}
			},
			"userdoc": {
				"errors": {
					"DepositNotAllowed(address,uint256)": [
						{
							"notice": "Error emitido cuando se intenta depositar una cantidad inválida (=0, o la cuenta superaría el bankCap)"
						}
					],
					"ERC20DepositNotAllowed(address,address,uint256)": [
						{
							"notice": "Error emitido cuando se intenta depositar una cantidad inválida de un token ERC20 (=0)"
						}
					],
					"ERC20ExtractionNotAllowed(address,address,uint256)": [
						{
							"notice": "Error emitido cuando se intenta extraer una cantidad inválda de un token ERC20 (<=0, >saldo)"
						}
					],
					"ExtractionNotAllowed(address,uint256)": [
						{
							"notice": "Error emitido cuando se intenta extraer una cantidad inválda (<=0, >saldo, >límite)"
						}
					],
					"ExtractionReverted(address,uint256,bytes)": [
						{
							"notice": "Error emitido cuando falla una extracción"
						}
					],
					"OracleCompromised()": [
						{
							"notice": "Error emitido cuando falla el oráculo"
						}
					],
					"StalePrice()": [
						{
							"notice": "Error emitido cuando la última actualización del oráculo supera el heartbeat"
						}
					]
				},
				"events": {
					"ChainlinkFeedUpdated(address,address)": {
						"notice": "Evento emitido al extraer USDC exitosamente"
					},
					"Deposited(address,uint256)": {
						"notice": "Evento emitido al depositar exitosamente"
					},
					"ERC20Deposited(address,address,uint256)": {
						"notice": "Evento emitido al depositar USDC exitosamente"
					},
					"ERC20Extracted(address,address,uint256)": {
						"notice": "Evento emitido al extraer USDC exitosamente"
					},
					"Extracted(address,uint256)": {
						"notice": "Evento emitido al extraer exitosamente"
					}
				},
				"kind": "user",
				"methods": {
					"depositERC20(address,uint256)": {
						"notice": "Función externa para recibir depósitos de tokens ERC20Emite un evento cuando la transacción es exitosa."
					},
					"depositEth()": {
						"notice": "Función para hacer un depósitoSólo se puede depositar un valor mayor a 0, siempre que no se supere el bankCap"
					},
					"getBalance()": {
						"notice": "Función pública para ver el balance de ETH que uno mismo tiene"
					},
					"getBalance(address)": {
						"notice": "Función onlyOwner para ver el balance de ETH que algún usuario tiene"
					},
					"getBalanceInUSD()": {
						"notice": "Función pública para ver el balance de ETH que uno mismo tiene en USD"
					},
					"getBalanceInUSD(address)": {
						"notice": "Función onlyOwner para ver el balance de ETH que algún usuario tiene en USD"
					},
					"getDeposits()": {
						"notice": "Función pública para ver la cantidad de depósitos de ETH que uno hizo"
					},
					"getDeposits(address)": {
						"notice": "Función onlyOwner para ver la cantidad de depósitos de ETH que algún usuario hizo"
					},
					"getERC20Balance(address)": {
						"notice": "Función pública para ver el balance que uno mismo tiene de un token ERC20 específico"
					},
					"getERC20Balance(address,address)": {
						"notice": "Función onlyOwner para ver el balance que algún usuario tiene en algún token ERC20"
					},
					"getERC20Deposits(address)": {
						"notice": "Función pública para ver la cantidad de depósitos que uno hizo de un token ERC20 específico"
					},
					"getERC20Deposits(address,address)": {
						"notice": "Función onlyOwner para ver la cantidad de depósitos que algún usuario hizo de algún token ERC20"
					},
					"getERC20Withdrawals(address)": {
						"notice": "Función pública para ver la cantidad de extracciones que uno hizo de un token ERC20 específico"
					},
					"getERC20Withdrawals(address,address)": {
						"notice": "Función onlyOwner para ver la cantidad de extracciones que algún usuario hizo de algún token ERC20"
					},
					"getWithdrawals()": {
						"notice": "Función pública para ver la cantidad de extracciones de ETH que uno hizo"
					},
					"getWithdrawals(address)": {
						"notice": "Función onlyOwner para ver la cantidad de extracciones de ETH que algún usuario hizo"
					},
					"s_bankCap()": {
						"notice": "Límite de balance por cuenta"
					},
					"s_feeds()": {
						"notice": "variable para almacenar la dirección del Chainlink Feed"
					},
					"s_withdrawLimit()": {
						"notice": "Límite de extracción por cuenta"
					},
					"setFeeds(address)": {
						"notice": "Función para actualizar el Chainlink Price Feed"
					},
					"withdrawERC20(address,uint256)": {
						"notice": "Función para hacer un depósito"
					},
					"withdrawEth(uint256)": {
						"notice": "Función para hacer un depósito"
					}
				},
				"notice": "Contrato para el TP Final del Módulo 4 del curso de EthKipuEs una simulación de banco con depósitos y extracciones, auditable por el dueño del contrato, que además incorpora USDC al que se hizo previamente",
				"version": 1
			}
		}
	}
}